{
	"contracts/pragma.sol": {
		"calculator": {
			"abi": [
				{
					"inputs": [
						{
							"internalType": "uint256",
							"name": "a",
							"type": "uint256"
						},
						{
							"internalType": "uint256",
							"name": "b",
							"type": "uint256"
						}
					],
					"name": "div",
					"outputs": [
						{
							"internalType": "uint256",
							"name": "",
							"type": "uint256"
						}
					],
					"stateMutability": "view",
					"type": "function"
				},
				{
					"inputs": [
						{
							"internalType": "uint256",
							"name": "a",
							"type": "uint256"
						},
						{
							"internalType": "uint256",
							"name": "b",
							"type": "uint256"
						}
					],
					"name": "multiply",
					"outputs": [
						{
							"internalType": "uint256",
							"name": "",
							"type": "uint256"
						}
					],
					"stateMutability": "view",
					"type": "function"
				},
				{
					"inputs": [
						{
							"internalType": "uint256",
							"name": "a",
							"type": "uint256"
						},
						{
							"internalType": "uint256",
							"name": "b",
							"type": "uint256"
						}
					],
					"name": "res",
					"outputs": [
						{
							"internalType": "uint256",
							"name": "",
							"type": "uint256"
						}
					],
					"stateMutability": "view",
					"type": "function"
				},
				{
					"inputs": [
						{
							"internalType": "uint256",
							"name": "a",
							"type": "uint256"
						},
						{
							"internalType": "uint256",
							"name": "b",
							"type": "uint256"
						}
					],
					"name": "sum",
					"outputs": [
						{
							"internalType": "uint256",
							"name": "",
							"type": "uint256"
						}
					],
					"stateMutability": "view",
					"type": "function"
				}
			],
			"devdoc": {
				"kind": "dev",
				"methods": {},
				"version": 1
			},
			"evm": {
				"assembly": "    /* \"contracts/pragma.sol\":56:565  contract calculator {... */\n  mstore(0x40, 0x80)\n  callvalue\n  dup1\n  iszero\n  tag_1\n  jumpi\n  0x00\n  dup1\n  revert\ntag_1:\n  pop\n  dataSize(sub_0)\n  dup1\n  dataOffset(sub_0)\n  0x00\n  codecopy\n  0x00\n  return\nstop\n\nsub_0: assembly {\n        /* \"contracts/pragma.sol\":56:565  contract calculator {... */\n      mstore(0x40, 0x80)\n      callvalue\n      dup1\n      iszero\n      tag_1\n      jumpi\n      0x00\n      dup1\n      revert\n    tag_1:\n      pop\n      jumpi(tag_2, lt(calldatasize, 0x04))\n      shr(0xe0, calldataload(0x00))\n      dup1\n      0x165c4a16\n      eq\n      tag_3\n      jumpi\n      dup1\n      0x2be9c120\n      eq\n      tag_4\n      jumpi\n      dup1\n      0xa391c15b\n      eq\n      tag_5\n      jumpi\n      dup1\n      0xcad0899b\n      eq\n      tag_6\n      jumpi\n    tag_2:\n      0x00\n      dup1\n      revert\n        /* \"contracts/pragma.sol\":84:202  function multiply(uint a, uint b) public view returns(uint){... */\n    tag_3:\n      tag_7\n      0x04\n      dup1\n      calldatasize\n      sub\n      dup2\n      add\n      swap1\n      tag_8\n      swap2\n      swap1\n      tag_9\n      jump\t// in\n    tag_8:\n      tag_10\n      jump\t// in\n    tag_7:\n      mload(0x40)\n      tag_11\n      swap2\n      swap1\n      tag_12\n      jump\t// in\n    tag_11:\n      mload(0x40)\n      dup1\n      swap2\n      sub\n      swap1\n      return\n        /* \"contracts/pragma.sol\":328:441  function res(uint a, uint b) public view returns(uint){... */\n    tag_4:\n      tag_13\n      0x04\n      dup1\n      calldatasize\n      sub\n      dup2\n      add\n      swap1\n      tag_14\n      swap2\n      swap1\n      tag_9\n      jump\t// in\n    tag_14:\n      tag_15\n      jump\t// in\n    tag_13:\n      mload(0x40)\n      tag_16\n      swap2\n      swap1\n      tag_12\n      jump\t// in\n    tag_16:\n      mload(0x40)\n      dup1\n      swap2\n      sub\n      swap1\n      return\n        /* \"contracts/pragma.sol\":448:561  function div(uint a, uint b) public view returns(uint){... */\n    tag_5:\n      tag_17\n      0x04\n      dup1\n      calldatasize\n      sub\n      dup2\n      add\n      swap1\n      tag_18\n      swap2\n      swap1\n      tag_9\n      jump\t// in\n    tag_18:\n      tag_19\n      jump\t// in\n    tag_17:\n      mload(0x40)\n      tag_20\n      swap2\n      swap1\n      tag_12\n      jump\t// in\n    tag_20:\n      mload(0x40)\n      dup1\n      swap2\n      sub\n      swap1\n      return\n        /* \"contracts/pragma.sol\":208:321  function sum(uint a, uint b) public view returns(uint){... */\n    tag_6:\n      tag_21\n      0x04\n      dup1\n      calldatasize\n      sub\n      dup2\n      add\n      swap1\n      tag_22\n      swap2\n      swap1\n      tag_9\n      jump\t// in\n    tag_22:\n      tag_23\n      jump\t// in\n    tag_21:\n      mload(0x40)\n      tag_24\n      swap2\n      swap1\n      tag_12\n      jump\t// in\n    tag_24:\n      mload(0x40)\n      dup1\n      swap2\n      sub\n      swap1\n      return\n        /* \"contracts/pragma.sol\":84:202  function multiply(uint a, uint b) public view returns(uint){... */\n    tag_10:\n        /* \"contracts/pragma.sol\":138:142  uint */\n      0x00\n        /* \"contracts/pragma.sol\":153:164  uint result */\n      dup1\n        /* \"contracts/pragma.sol\":171:172  b */\n      dup3\n        /* \"contracts/pragma.sol\":167:168  a */\n      dup5\n        /* \"contracts/pragma.sol\":167:172  a * b */\n      tag_26\n      swap2\n      swap1\n      tag_27\n      jump\t// in\n    tag_26:\n        /* \"contracts/pragma.sol\":153:172  uint result = a * b */\n      swap1\n      pop\n        /* \"contracts/pragma.sol\":189:195  result */\n      dup1\n        /* \"contracts/pragma.sol\":182:195  return result */\n      swap2\n      pop\n      pop\n        /* \"contracts/pragma.sol\":84:202  function multiply(uint a, uint b) public view returns(uint){... */\n      swap3\n      swap2\n      pop\n      pop\n      jump\t// out\n        /* \"contracts/pragma.sol\":328:441  function res(uint a, uint b) public view returns(uint){... */\n    tag_15:\n        /* \"contracts/pragma.sol\":377:381  uint */\n      0x00\n        /* \"contracts/pragma.sol\":392:403  uint result */\n      dup1\n        /* \"contracts/pragma.sol\":410:411  b */\n      dup3\n        /* \"contracts/pragma.sol\":406:407  a */\n      dup5\n        /* \"contracts/pragma.sol\":406:411  a - b */\n      tag_29\n      swap2\n      swap1\n      tag_30\n      jump\t// in\n    tag_29:\n        /* \"contracts/pragma.sol\":392:411  uint result = a - b */\n      swap1\n      pop\n        /* \"contracts/pragma.sol\":428:434  result */\n      dup1\n        /* \"contracts/pragma.sol\":421:434  return result */\n      swap2\n      pop\n      pop\n        /* \"contracts/pragma.sol\":328:441  function res(uint a, uint b) public view returns(uint){... */\n      swap3\n      swap2\n      pop\n      pop\n      jump\t// out\n        /* \"contracts/pragma.sol\":448:561  function div(uint a, uint b) public view returns(uint){... */\n    tag_19:\n        /* \"contracts/pragma.sol\":497:501  uint */\n      0x00\n        /* \"contracts/pragma.sol\":512:523  uint result */\n      dup1\n        /* \"contracts/pragma.sol\":530:531  b */\n      dup3\n        /* \"contracts/pragma.sol\":526:527  a */\n      dup5\n        /* \"contracts/pragma.sol\":526:531  a / b */\n      tag_32\n      swap2\n      swap1\n      tag_33\n      jump\t// in\n    tag_32:\n        /* \"contracts/pragma.sol\":512:531  uint result = a / b */\n      swap1\n      pop\n        /* \"contracts/pragma.sol\":548:554  result */\n      dup1\n        /* \"contracts/pragma.sol\":541:554  return result */\n      swap2\n      pop\n      pop\n        /* \"contracts/pragma.sol\":448:561  function div(uint a, uint b) public view returns(uint){... */\n      swap3\n      swap2\n      pop\n      pop\n      jump\t// out\n        /* \"contracts/pragma.sol\":208:321  function sum(uint a, uint b) public view returns(uint){... */\n    tag_23:\n        /* \"contracts/pragma.sol\":257:261  uint */\n      0x00\n        /* \"contracts/pragma.sol\":272:283  uint result */\n      dup1\n        /* \"contracts/pragma.sol\":290:291  b */\n      dup3\n        /* \"contracts/pragma.sol\":286:287  a */\n      dup5\n        /* \"contracts/pragma.sol\":286:291  a + b */\n      tag_35\n      swap2\n      swap1\n      tag_36\n      jump\t// in\n    tag_35:\n        /* \"contracts/pragma.sol\":272:291  uint result = a + b */\n      swap1\n      pop\n        /* \"contracts/pragma.sol\":308:314  result */\n      dup1\n        /* \"contracts/pragma.sol\":301:314  return result */\n      swap2\n      pop\n      pop\n        /* \"contracts/pragma.sol\":208:321  function sum(uint a, uint b) public view returns(uint){... */\n      swap3\n      swap2\n      pop\n      pop\n      jump\t// out\n        /* \"#utility.yul\":7:146   */\n    tag_38:\n        /* \"#utility.yul\":53:58   */\n      0x00\n        /* \"#utility.yul\":91:97   */\n      dup2\n        /* \"#utility.yul\":78:98   */\n      calldataload\n        /* \"#utility.yul\":69:98   */\n      swap1\n      pop\n        /* \"#utility.yul\":107:140   */\n      tag_40\n        /* \"#utility.yul\":134:139   */\n      dup2\n        /* \"#utility.yul\":107:140   */\n      tag_41\n      jump\t// in\n    tag_40:\n        /* \"#utility.yul\":59:146   */\n      swap3\n      swap2\n      pop\n      pop\n      jump\t// out\n        /* \"#utility.yul\":152:559   */\n    tag_9:\n        /* \"#utility.yul\":220:226   */\n      0x00\n        /* \"#utility.yul\":228:234   */\n      dup1\n        /* \"#utility.yul\":277:279   */\n      0x40\n        /* \"#utility.yul\":265:274   */\n      dup4\n        /* \"#utility.yul\":256:263   */\n      dup6\n        /* \"#utility.yul\":252:275   */\n      sub\n        /* \"#utility.yul\":248:280   */\n      slt\n        /* \"#utility.yul\":245:247   */\n      iszero\n      tag_43\n      jumpi\n        /* \"#utility.yul\":293:294   */\n      0x00\n        /* \"#utility.yul\":290:291   */\n      dup1\n        /* \"#utility.yul\":283:295   */\n      revert\n        /* \"#utility.yul\":245:247   */\n    tag_43:\n        /* \"#utility.yul\":336:337   */\n      0x00\n        /* \"#utility.yul\":361:414   */\n      tag_44\n        /* \"#utility.yul\":406:413   */\n      dup6\n        /* \"#utility.yul\":397:403   */\n      dup3\n        /* \"#utility.yul\":386:395   */\n      dup7\n        /* \"#utility.yul\":382:404   */\n      add\n        /* \"#utility.yul\":361:414   */\n      tag_38\n      jump\t// in\n    tag_44:\n        /* \"#utility.yul\":351:414   */\n      swap3\n      pop\n        /* \"#utility.yul\":307:424   */\n      pop\n        /* \"#utility.yul\":463:465   */\n      0x20\n        /* \"#utility.yul\":489:542   */\n      tag_45\n        /* \"#utility.yul\":534:541   */\n      dup6\n        /* \"#utility.yul\":525:531   */\n      dup3\n        /* \"#utility.yul\":514:523   */\n      dup7\n        /* \"#utility.yul\":510:532   */\n      add\n        /* \"#utility.yul\":489:542   */\n      tag_38\n      jump\t// in\n    tag_45:\n        /* \"#utility.yul\":479:542   */\n      swap2\n      pop\n        /* \"#utility.yul\":434:552   */\n      pop\n        /* \"#utility.yul\":235:559   */\n      swap3\n      pop\n      swap3\n      swap1\n      pop\n      jump\t// out\n        /* \"#utility.yul\":565:683   */\n    tag_46:\n        /* \"#utility.yul\":652:676   */\n      tag_48\n        /* \"#utility.yul\":670:675   */\n      dup2\n        /* \"#utility.yul\":652:676   */\n      tag_49\n      jump\t// in\n    tag_48:\n        /* \"#utility.yul\":647:650   */\n      dup3\n        /* \"#utility.yul\":640:677   */\n      mstore\n        /* \"#utility.yul\":630:683   */\n      pop\n      pop\n      jump\t// out\n        /* \"#utility.yul\":689:911   */\n    tag_12:\n        /* \"#utility.yul\":782:786   */\n      0x00\n        /* \"#utility.yul\":820:822   */\n      0x20\n        /* \"#utility.yul\":809:818   */\n      dup3\n        /* \"#utility.yul\":805:823   */\n      add\n        /* \"#utility.yul\":797:823   */\n      swap1\n      pop\n        /* \"#utility.yul\":833:904   */\n      tag_51\n        /* \"#utility.yul\":901:902   */\n      0x00\n        /* \"#utility.yul\":890:899   */\n      dup4\n        /* \"#utility.yul\":886:903   */\n      add\n        /* \"#utility.yul\":877:883   */\n      dup5\n        /* \"#utility.yul\":833:904   */\n      tag_46\n      jump\t// in\n    tag_51:\n        /* \"#utility.yul\":787:911   */\n      swap3\n      swap2\n      pop\n      pop\n      jump\t// out\n        /* \"#utility.yul\":917:1222   */\n    tag_36:\n        /* \"#utility.yul\":957:960   */\n      0x00\n        /* \"#utility.yul\":976:996   */\n      tag_53\n        /* \"#utility.yul\":994:995   */\n      dup3\n        /* \"#utility.yul\":976:996   */\n      tag_49\n      jump\t// in\n    tag_53:\n        /* \"#utility.yul\":971:996   */\n      swap2\n      pop\n        /* \"#utility.yul\":1010:1030   */\n      tag_54\n        /* \"#utility.yul\":1028:1029   */\n      dup4\n        /* \"#utility.yul\":1010:1030   */\n      tag_49\n      jump\t// in\n    tag_54:\n        /* \"#utility.yul\":1005:1030   */\n      swap3\n      pop\n        /* \"#utility.yul\":1164:1165   */\n      dup3\n        /* \"#utility.yul\":1096:1162   */\n      0xffffffffffffffffffffffffffffffffffffffffffffffffffffffffffffffff\n        /* \"#utility.yul\":1092:1166   */\n      sub\n        /* \"#utility.yul\":1089:1090   */\n      dup3\n        /* \"#utility.yul\":1086:1167   */\n      gt\n        /* \"#utility.yul\":1083:1085   */\n      iszero\n      tag_55\n      jumpi\n        /* \"#utility.yul\":1170:1188   */\n      tag_56\n      tag_57\n      jump\t// in\n    tag_56:\n        /* \"#utility.yul\":1083:1085   */\n    tag_55:\n        /* \"#utility.yul\":1214:1215   */\n      dup3\n        /* \"#utility.yul\":1211:1212   */\n      dup3\n        /* \"#utility.yul\":1207:1216   */\n      add\n        /* \"#utility.yul\":1200:1216   */\n      swap1\n      pop\n        /* \"#utility.yul\":961:1222   */\n      swap3\n      swap2\n      pop\n      pop\n      jump\t// out\n        /* \"#utility.yul\":1228:1413   */\n    tag_33:\n        /* \"#utility.yul\":1268:1269   */\n      0x00\n        /* \"#utility.yul\":1285:1305   */\n      tag_59\n        /* \"#utility.yul\":1303:1304   */\n      dup3\n        /* \"#utility.yul\":1285:1305   */\n      tag_49\n      jump\t// in\n    tag_59:\n        /* \"#utility.yul\":1280:1305   */\n      swap2\n      pop\n        /* \"#utility.yul\":1319:1339   */\n      tag_60\n        /* \"#utility.yul\":1337:1338   */\n      dup4\n        /* \"#utility.yul\":1319:1339   */\n      tag_49\n      jump\t// in\n    tag_60:\n        /* \"#utility.yul\":1314:1339   */\n      swap3\n      pop\n        /* \"#utility.yul\":1358:1359   */\n      dup3\n        /* \"#utility.yul\":1348:1350   */\n      tag_61\n      jumpi\n        /* \"#utility.yul\":1363:1381   */\n      tag_62\n      tag_63\n      jump\t// in\n    tag_62:\n        /* \"#utility.yul\":1348:1350   */\n    tag_61:\n        /* \"#utility.yul\":1405:1406   */\n      dup3\n        /* \"#utility.yul\":1402:1403   */\n      dup3\n        /* \"#utility.yul\":1398:1407   */\n      div\n        /* \"#utility.yul\":1393:1407   */\n      swap1\n      pop\n        /* \"#utility.yul\":1270:1413   */\n      swap3\n      swap2\n      pop\n      pop\n      jump\t// out\n        /* \"#utility.yul\":1419:1767   */\n    tag_27:\n        /* \"#utility.yul\":1459:1466   */\n      0x00\n        /* \"#utility.yul\":1482:1502   */\n      tag_65\n        /* \"#utility.yul\":1500:1501   */\n      dup3\n        /* \"#utility.yul\":1482:1502   */\n      tag_49\n      jump\t// in\n    tag_65:\n        /* \"#utility.yul\":1477:1502   */\n      swap2\n      pop\n        /* \"#utility.yul\":1516:1536   */\n      tag_66\n        /* \"#utility.yul\":1534:1535   */\n      dup4\n        /* \"#utility.yul\":1516:1536   */\n      tag_49\n      jump\t// in\n    tag_66:\n        /* \"#utility.yul\":1511:1536   */\n      swap3\n      pop\n        /* \"#utility.yul\":1704:1705   */\n      dup2\n        /* \"#utility.yul\":1636:1702   */\n      0xffffffffffffffffffffffffffffffffffffffffffffffffffffffffffffffff\n        /* \"#utility.yul\":1632:1706   */\n      div\n        /* \"#utility.yul\":1629:1630   */\n      dup4\n        /* \"#utility.yul\":1626:1707   */\n      gt\n        /* \"#utility.yul\":1621:1622   */\n      dup3\n        /* \"#utility.yul\":1614:1623   */\n      iszero\n        /* \"#utility.yul\":1607:1624   */\n      iszero\n        /* \"#utility.yul\":1603:1708   */\n      and\n        /* \"#utility.yul\":1600:1602   */\n      iszero\n      tag_67\n      jumpi\n        /* \"#utility.yul\":1711:1729   */\n      tag_68\n      tag_57\n      jump\t// in\n    tag_68:\n        /* \"#utility.yul\":1600:1602   */\n    tag_67:\n        /* \"#utility.yul\":1759:1760   */\n      dup3\n        /* \"#utility.yul\":1756:1757   */\n      dup3\n        /* \"#utility.yul\":1752:1761   */\n      mul\n        /* \"#utility.yul\":1741:1761   */\n      swap1\n      pop\n        /* \"#utility.yul\":1467:1767   */\n      swap3\n      swap2\n      pop\n      pop\n      jump\t// out\n        /* \"#utility.yul\":1773:1964   */\n    tag_30:\n        /* \"#utility.yul\":1813:1817   */\n      0x00\n        /* \"#utility.yul\":1833:1853   */\n      tag_70\n        /* \"#utility.yul\":1851:1852   */\n      dup3\n        /* \"#utility.yul\":1833:1853   */\n      tag_49\n      jump\t// in\n    tag_70:\n        /* \"#utility.yul\":1828:1853   */\n      swap2\n      pop\n        /* \"#utility.yul\":1867:1887   */\n      tag_71\n        /* \"#utility.yul\":1885:1886   */\n      dup4\n        /* \"#utility.yul\":1867:1887   */\n      tag_49\n      jump\t// in\n    tag_71:\n        /* \"#utility.yul\":1862:1887   */\n      swap3\n      pop\n        /* \"#utility.yul\":1906:1907   */\n      dup3\n        /* \"#utility.yul\":1903:1904   */\n      dup3\n        /* \"#utility.yul\":1900:1908   */\n      lt\n        /* \"#utility.yul\":1897:1899   */\n      iszero\n      tag_72\n      jumpi\n        /* \"#utility.yul\":1911:1929   */\n      tag_73\n      tag_57\n      jump\t// in\n    tag_73:\n        /* \"#utility.yul\":1897:1899   */\n    tag_72:\n        /* \"#utility.yul\":1956:1957   */\n      dup3\n        /* \"#utility.yul\":1953:1954   */\n      dup3\n        /* \"#utility.yul\":1949:1958   */\n      sub\n        /* \"#utility.yul\":1941:1958   */\n      swap1\n      pop\n        /* \"#utility.yul\":1818:1964   */\n      swap3\n      swap2\n      pop\n      pop\n      jump\t// out\n        /* \"#utility.yul\":1970:2047   */\n    tag_49:\n        /* \"#utility.yul\":2007:2014   */\n      0x00\n        /* \"#utility.yul\":2036:2041   */\n      dup2\n        /* \"#utility.yul\":2025:2041   */\n      swap1\n      pop\n        /* \"#utility.yul\":2015:2047   */\n      swap2\n      swap1\n      pop\n      jump\t// out\n        /* \"#utility.yul\":2053:2233   */\n    tag_57:\n        /* \"#utility.yul\":2101:2178   */\n      0x4e487b7100000000000000000000000000000000000000000000000000000000\n        /* \"#utility.yul\":2098:2099   */\n      0x00\n        /* \"#utility.yul\":2091:2179   */\n      mstore\n        /* \"#utility.yul\":2198:2202   */\n      0x11\n        /* \"#utility.yul\":2195:2196   */\n      0x04\n        /* \"#utility.yul\":2188:2203   */\n      mstore\n        /* \"#utility.yul\":2222:2226   */\n      0x24\n        /* \"#utility.yul\":2219:2220   */\n      0x00\n        /* \"#utility.yul\":2212:2227   */\n      revert\n        /* \"#utility.yul\":2239:2419   */\n    tag_63:\n        /* \"#utility.yul\":2287:2364   */\n      0x4e487b7100000000000000000000000000000000000000000000000000000000\n        /* \"#utility.yul\":2284:2285   */\n      0x00\n        /* \"#utility.yul\":2277:2365   */\n      mstore\n        /* \"#utility.yul\":2384:2388   */\n      0x12\n        /* \"#utility.yul\":2381:2382   */\n      0x04\n        /* \"#utility.yul\":2374:2389   */\n      mstore\n        /* \"#utility.yul\":2408:2412   */\n      0x24\n        /* \"#utility.yul\":2405:2406   */\n      0x00\n        /* \"#utility.yul\":2398:2413   */\n      revert\n        /* \"#utility.yul\":2425:2547   */\n    tag_41:\n        /* \"#utility.yul\":2498:2522   */\n      tag_78\n        /* \"#utility.yul\":2516:2521   */\n      dup2\n        /* \"#utility.yul\":2498:2522   */\n      tag_49\n      jump\t// in\n    tag_78:\n        /* \"#utility.yul\":2491:2496   */\n      dup2\n        /* \"#utility.yul\":2488:2523   */\n      eq\n        /* \"#utility.yul\":2478:2480   */\n      tag_79\n      jumpi\n        /* \"#utility.yul\":2537:2538   */\n      0x00\n        /* \"#utility.yul\":2534:2535   */\n      dup1\n        /* \"#utility.yul\":2527:2539   */\n      revert\n        /* \"#utility.yul\":2478:2480   */\n    tag_79:\n        /* \"#utility.yul\":2468:2547   */\n      pop\n      jump\t// out\n\n    auxdata: 0xa2646970667358221220efd47dfc088acdf265dee17d4391afec2701d5a67ce0432ae3a6b13cf2ebdefd64736f6c63430008040033\n}\n",
				"bytecode": {
					"linkReferences": {},
					"object": "608060405234801561001057600080fd5b506103c2806100206000396000f3fe608060405234801561001057600080fd5b506004361061004c5760003560e01c8063165c4a16146100515780632be9c12014610081578063a391c15b146100b1578063cad0899b146100e1575b600080fd5b61006b60048036038101906100669190610192565b610111565b60405161007891906101dd565b60405180910390f35b61009b60048036038101906100969190610192565b61012c565b6040516100a891906101dd565b60405180910390f35b6100cb60048036038101906100c69190610192565b610147565b6040516100d891906101dd565b60405180910390f35b6100fb60048036038101906100f69190610192565b610162565b60405161010891906101dd565b60405180910390f35b6000808284610120919061027f565b90508091505092915050565b600080828461013b91906102d9565b90508091505092915050565b6000808284610156919061024e565b90508091505092915050565b600080828461017191906101f8565b90508091505092915050565b60008135905061018c81610375565b92915050565b600080604083850312156101a557600080fd5b60006101b38582860161017d565b92505060206101c48582860161017d565b9150509250929050565b6101d78161030d565b82525050565b60006020820190506101f260008301846101ce565b92915050565b60006102038261030d565b915061020e8361030d565b9250827fffffffffffffffffffffffffffffffffffffffffffffffffffffffffffffffff0382111561024357610242610317565b5b828201905092915050565b60006102598261030d565b91506102648361030d565b92508261027457610273610346565b5b828204905092915050565b600061028a8261030d565b91506102958361030d565b9250817fffffffffffffffffffffffffffffffffffffffffffffffffffffffffffffffff04831182151516156102ce576102cd610317565b5b828202905092915050565b60006102e48261030d565b91506102ef8361030d565b92508282101561030257610301610317565b5b828203905092915050565b6000819050919050565b7f4e487b7100000000000000000000000000000000000000000000000000000000600052601160045260246000fd5b7f4e487b7100000000000000000000000000000000000000000000000000000000600052601260045260246000fd5b61037e8161030d565b811461038957600080fd5b5056fea2646970667358221220efd47dfc088acdf265dee17d4391afec2701d5a67ce0432ae3a6b13cf2ebdefd64736f6c63430008040033",
					"opcodes": "PUSH1 0x80 PUSH1 0x40 MSTORE CALLVALUE DUP1 ISZERO PUSH2 0x10 JUMPI PUSH1 0x0 DUP1 REVERT JUMPDEST POP PUSH2 0x3C2 DUP1 PUSH2 0x20 PUSH1 0x0 CODECOPY PUSH1 0x0 RETURN INVALID PUSH1 0x80 PUSH1 0x40 MSTORE CALLVALUE DUP1 ISZERO PUSH2 0x10 JUMPI PUSH1 0x0 DUP1 REVERT JUMPDEST POP PUSH1 0x4 CALLDATASIZE LT PUSH2 0x4C JUMPI PUSH1 0x0 CALLDATALOAD PUSH1 0xE0 SHR DUP1 PUSH4 0x165C4A16 EQ PUSH2 0x51 JUMPI DUP1 PUSH4 0x2BE9C120 EQ PUSH2 0x81 JUMPI DUP1 PUSH4 0xA391C15B EQ PUSH2 0xB1 JUMPI DUP1 PUSH4 0xCAD0899B EQ PUSH2 0xE1 JUMPI JUMPDEST PUSH1 0x0 DUP1 REVERT JUMPDEST PUSH2 0x6B PUSH1 0x4 DUP1 CALLDATASIZE SUB DUP2 ADD SWAP1 PUSH2 0x66 SWAP2 SWAP1 PUSH2 0x192 JUMP JUMPDEST PUSH2 0x111 JUMP JUMPDEST PUSH1 0x40 MLOAD PUSH2 0x78 SWAP2 SWAP1 PUSH2 0x1DD JUMP JUMPDEST PUSH1 0x40 MLOAD DUP1 SWAP2 SUB SWAP1 RETURN JUMPDEST PUSH2 0x9B PUSH1 0x4 DUP1 CALLDATASIZE SUB DUP2 ADD SWAP1 PUSH2 0x96 SWAP2 SWAP1 PUSH2 0x192 JUMP JUMPDEST PUSH2 0x12C JUMP JUMPDEST PUSH1 0x40 MLOAD PUSH2 0xA8 SWAP2 SWAP1 PUSH2 0x1DD JUMP JUMPDEST PUSH1 0x40 MLOAD DUP1 SWAP2 SUB SWAP1 RETURN JUMPDEST PUSH2 0xCB PUSH1 0x4 DUP1 CALLDATASIZE SUB DUP2 ADD SWAP1 PUSH2 0xC6 SWAP2 SWAP1 PUSH2 0x192 JUMP JUMPDEST PUSH2 0x147 JUMP JUMPDEST PUSH1 0x40 MLOAD PUSH2 0xD8 SWAP2 SWAP1 PUSH2 0x1DD JUMP JUMPDEST PUSH1 0x40 MLOAD DUP1 SWAP2 SUB SWAP1 RETURN JUMPDEST PUSH2 0xFB PUSH1 0x4 DUP1 CALLDATASIZE SUB DUP2 ADD SWAP1 PUSH2 0xF6 SWAP2 SWAP1 PUSH2 0x192 JUMP JUMPDEST PUSH2 0x162 JUMP JUMPDEST PUSH1 0x40 MLOAD PUSH2 0x108 SWAP2 SWAP1 PUSH2 0x1DD JUMP JUMPDEST PUSH1 0x40 MLOAD DUP1 SWAP2 SUB SWAP1 RETURN JUMPDEST PUSH1 0x0 DUP1 DUP3 DUP5 PUSH2 0x120 SWAP2 SWAP1 PUSH2 0x27F JUMP JUMPDEST SWAP1 POP DUP1 SWAP2 POP POP SWAP3 SWAP2 POP POP JUMP JUMPDEST PUSH1 0x0 DUP1 DUP3 DUP5 PUSH2 0x13B SWAP2 SWAP1 PUSH2 0x2D9 JUMP JUMPDEST SWAP1 POP DUP1 SWAP2 POP POP SWAP3 SWAP2 POP POP JUMP JUMPDEST PUSH1 0x0 DUP1 DUP3 DUP5 PUSH2 0x156 SWAP2 SWAP1 PUSH2 0x24E JUMP JUMPDEST SWAP1 POP DUP1 SWAP2 POP POP SWAP3 SWAP2 POP POP JUMP JUMPDEST PUSH1 0x0 DUP1 DUP3 DUP5 PUSH2 0x171 SWAP2 SWAP1 PUSH2 0x1F8 JUMP JUMPDEST SWAP1 POP DUP1 SWAP2 POP POP SWAP3 SWAP2 POP POP JUMP JUMPDEST PUSH1 0x0 DUP2 CALLDATALOAD SWAP1 POP PUSH2 0x18C DUP2 PUSH2 0x375 JUMP JUMPDEST SWAP3 SWAP2 POP POP JUMP JUMPDEST PUSH1 0x0 DUP1 PUSH1 0x40 DUP4 DUP6 SUB SLT ISZERO PUSH2 0x1A5 JUMPI PUSH1 0x0 DUP1 REVERT JUMPDEST PUSH1 0x0 PUSH2 0x1B3 DUP6 DUP3 DUP7 ADD PUSH2 0x17D JUMP JUMPDEST SWAP3 POP POP PUSH1 0x20 PUSH2 0x1C4 DUP6 DUP3 DUP7 ADD PUSH2 0x17D JUMP JUMPDEST SWAP2 POP POP SWAP3 POP SWAP3 SWAP1 POP JUMP JUMPDEST PUSH2 0x1D7 DUP2 PUSH2 0x30D JUMP JUMPDEST DUP3 MSTORE POP POP JUMP JUMPDEST PUSH1 0x0 PUSH1 0x20 DUP3 ADD SWAP1 POP PUSH2 0x1F2 PUSH1 0x0 DUP4 ADD DUP5 PUSH2 0x1CE JUMP JUMPDEST SWAP3 SWAP2 POP POP JUMP JUMPDEST PUSH1 0x0 PUSH2 0x203 DUP3 PUSH2 0x30D JUMP JUMPDEST SWAP2 POP PUSH2 0x20E DUP4 PUSH2 0x30D JUMP JUMPDEST SWAP3 POP DUP3 PUSH32 0xFFFFFFFFFFFFFFFFFFFFFFFFFFFFFFFFFFFFFFFFFFFFFFFFFFFFFFFFFFFFFFFF SUB DUP3 GT ISZERO PUSH2 0x243 JUMPI PUSH2 0x242 PUSH2 0x317 JUMP JUMPDEST JUMPDEST DUP3 DUP3 ADD SWAP1 POP SWAP3 SWAP2 POP POP JUMP JUMPDEST PUSH1 0x0 PUSH2 0x259 DUP3 PUSH2 0x30D JUMP JUMPDEST SWAP2 POP PUSH2 0x264 DUP4 PUSH2 0x30D JUMP JUMPDEST SWAP3 POP DUP3 PUSH2 0x274 JUMPI PUSH2 0x273 PUSH2 0x346 JUMP JUMPDEST JUMPDEST DUP3 DUP3 DIV SWAP1 POP SWAP3 SWAP2 POP POP JUMP JUMPDEST PUSH1 0x0 PUSH2 0x28A DUP3 PUSH2 0x30D JUMP JUMPDEST SWAP2 POP PUSH2 0x295 DUP4 PUSH2 0x30D JUMP JUMPDEST SWAP3 POP DUP2 PUSH32 0xFFFFFFFFFFFFFFFFFFFFFFFFFFFFFFFFFFFFFFFFFFFFFFFFFFFFFFFFFFFFFFFF DIV DUP4 GT DUP3 ISZERO ISZERO AND ISZERO PUSH2 0x2CE JUMPI PUSH2 0x2CD PUSH2 0x317 JUMP JUMPDEST JUMPDEST DUP3 DUP3 MUL SWAP1 POP SWAP3 SWAP2 POP POP JUMP JUMPDEST PUSH1 0x0 PUSH2 0x2E4 DUP3 PUSH2 0x30D JUMP JUMPDEST SWAP2 POP PUSH2 0x2EF DUP4 PUSH2 0x30D JUMP JUMPDEST SWAP3 POP DUP3 DUP3 LT ISZERO PUSH2 0x302 JUMPI PUSH2 0x301 PUSH2 0x317 JUMP JUMPDEST JUMPDEST DUP3 DUP3 SUB SWAP1 POP SWAP3 SWAP2 POP POP JUMP JUMPDEST PUSH1 0x0 DUP2 SWAP1 POP SWAP2 SWAP1 POP JUMP JUMPDEST PUSH32 0x4E487B7100000000000000000000000000000000000000000000000000000000 PUSH1 0x0 MSTORE PUSH1 0x11 PUSH1 0x4 MSTORE PUSH1 0x24 PUSH1 0x0 REVERT JUMPDEST PUSH32 0x4E487B7100000000000000000000000000000000000000000000000000000000 PUSH1 0x0 MSTORE PUSH1 0x12 PUSH1 0x4 MSTORE PUSH1 0x24 PUSH1 0x0 REVERT JUMPDEST PUSH2 0x37E DUP2 PUSH2 0x30D JUMP JUMPDEST DUP2 EQ PUSH2 0x389 JUMPI PUSH1 0x0 DUP1 REVERT JUMPDEST POP JUMP INVALID LOG2 PUSH5 0x6970667358 0x22 SLT KECCAK256 0xEF 0xD4 PUSH30 0xFC088ACDF265DEE17D4391AFEC2701D5A67CE0432AE3A6B13CF2EBDEFD64 PUSH20 0x6F6C634300080400330000000000000000000000 "
				},
				"gasEstimates": {
					"creation": {
						"codeDepositCost": "192400",
						"executionCost": "238",
						"totalCost": "192638"
					},
					"external": {
						"div(uint256,uint256)": "infinite",
						"multiply(uint256,uint256)": "infinite",
						"res(uint256,uint256)": "infinite",
						"sum(uint256,uint256)": "infinite"
					}
				},
				"methodIdentifiers": {
					"div(uint256,uint256)": "a391c15b",
					"multiply(uint256,uint256)": "165c4a16",
					"res(uint256,uint256)": "2be9c120",
					"sum(uint256,uint256)": "cad0899b"
				}
			},
			"storageLayout": {
				"storage": [],
				"types": null
			},
			"userdoc": {
				"kind": "user",
				"methods": {},
				"version": 1
			}
		}
	}
}