{
	"contracts/TestEtherReceiver.sol": {
		"ReceiveAndSendEther": {
			"abi": [
				{
					"anonymous": false,
					"inputs": [
						{
							"indexed": false,
							"internalType": "address",
							"name": "",
							"type": "address"
						},
						{
							"indexed": false,
							"internalType": "uint256",
							"name": "",
							"type": "uint256"
						}
					],
					"name": "Received",
					"type": "event"
				},
				{
					"anonymous": false,
					"inputs": [
						{
							"indexed": false,
							"internalType": "address",
							"name": "to",
							"type": "address"
						},
						{
							"indexed": false,
							"internalType": "uint256",
							"name": "amount",
							"type": "uint256"
						}
					],
					"name": "Transferred",
					"type": "event"
				},
				{
					"inputs": [],
					"name": "getBalance",
					"outputs": [
						{
							"internalType": "uint256",
							"name": "",
							"type": "uint256"
						}
					],
					"stateMutability": "view",
					"type": "function"
				},
				{
					"inputs": [
						{
							"internalType": "address payable",
							"name": "_to",
							"type": "address"
						},
						{
							"internalType": "uint256",
							"name": "_amount",
							"type": "uint256"
						}
					],
					"name": "transferETH",
					"outputs": [],
					"stateMutability": "nonpayable",
					"type": "function"
				},
				{
					"stateMutability": "payable",
					"type": "receive"
				}
			],
			"devdoc": {
				"kind": "dev",
				"methods": {},
				"version": 1
			},
			"evm": {
				"assembly": "    /* \"contracts/TestEtherReceiver.sol\":58:606  contract ReceiveAndSendEther {... */\n  mstore(0x40, 0x80)\n  callvalue\n  dup1\n  iszero\n  tag_1\n  jumpi\n  0x00\n  dup1\n  revert\ntag_1:\n  pop\n  dataSize(sub_0)\n  dup1\n  dataOffset(sub_0)\n  0x00\n  codecopy\n  0x00\n  return\nstop\n\nsub_0: assembly {\n        /* \"contracts/TestEtherReceiver.sol\":58:606  contract ReceiveAndSendEther {... */\n      mstore(0x40, 0x80)\n      jumpi(tag_1, lt(calldatasize, 0x04))\n      shr(0xe0, calldataload(0x00))\n      dup1\n      0x12065fe0\n      eq\n      tag_3\n      jumpi\n      dup1\n      0x7b1a4909\n      eq\n      tag_4\n      jumpi\n      0x00\n      dup1\n      revert\n    tag_1:\n      jumpi(tag_2, calldatasize)\n        /* \"contracts/TestEtherReceiver.sol\":224:255  Received(msg.sender, msg.value) */\n      0x40\n      dup1\n      mload\n        /* \"contracts/TestEtherReceiver.sol\":233:243  msg.sender */\n      caller\n        /* \"#utility.yul\":188:239   */\n      dup2\n      mstore\n        /* \"contracts/TestEtherReceiver.sol\":245:254  msg.value */\n      callvalue\n        /* \"#utility.yul\":270:272   */\n      0x20\n        /* \"#utility.yul\":255:273   */\n      dup3\n      add\n        /* \"#utility.yul\":248:282   */\n      mstore\n        /* \"contracts/TestEtherReceiver.sol\":224:255  Received(msg.sender, msg.value) */\n      0x88a5966d370b9919b20f3e2c13ff65706f196a4e32cc2c12bf57088f88525874\n      swap2\n        /* \"#utility.yul\":161:179   */\n      add\n        /* \"contracts/TestEtherReceiver.sol\":224:255  Received(msg.sender, msg.value) */\n      mload(0x40)\n      dup1\n      swap2\n      sub\n      swap1\n      log1\n        /* \"contracts/TestEtherReceiver.sol\":58:606  contract ReceiveAndSendEther {... */\n      stop\n    tag_2:\n      0x00\n      dup1\n      revert\n        /* \"contracts/TestEtherReceiver.sol\":510:604  function getBalance() public view returns (uint) {... */\n    tag_3:\n      callvalue\n      dup1\n      iszero\n      tag_9\n      jumpi\n      0x00\n      dup1\n      revert\n    tag_9:\n      pop\n        /* \"contracts/TestEtherReceiver.sol\":576:597  address(this).balance */\n      selfbalance\n        /* \"contracts/TestEtherReceiver.sol\":510:604  function getBalance() public view returns (uint) {... */\n      mload(0x40)\n        /* \"#utility.yul\":439:464   */\n      swap1\n      dup2\n      mstore\n        /* \"#utility.yul\":427:429   */\n      0x20\n        /* \"#utility.yul\":412:430   */\n      add\n        /* \"contracts/TestEtherReceiver.sol\":510:604  function getBalance() public view returns (uint) {... */\n      mload(0x40)\n      dup1\n      swap2\n      sub\n      swap1\n      return\n        /* \"contracts/TestEtherReceiver.sol\":272:500  function transferETH(address payable _to, uint _amount) public {... */\n    tag_4:\n      callvalue\n      dup1\n      iszero\n      tag_14\n      jumpi\n      0x00\n      dup1\n      revert\n    tag_14:\n      pop\n      tag_15\n      tag_16\n      calldatasize\n      0x04\n      tag_17\n      jump\t// in\n    tag_16:\n      tag_18\n      jump\t// in\n    tag_15:\n      stop\n    tag_18:\n        /* \"contracts/TestEtherReceiver.sol\":378:385  _amount */\n      dup1\n        /* \"contracts/TestEtherReceiver.sol\":353:374  address(this).balance */\n      selfbalance\n        /* \"contracts/TestEtherReceiver.sol\":353:385  address(this).balance >= _amount */\n      lt\n      iszero\n        /* \"contracts/TestEtherReceiver.sol\":345:422  require(address(this).balance >= _amount, \"Insufficient balance in contract\") */\n      tag_21\n      jumpi\n      mload(0x40)\n      shl(0xe5, 0x461bcd)\n      dup2\n      mstore\n        /* \"#utility.yul\":1044:1046   */\n      0x20\n        /* \"contracts/TestEtherReceiver.sol\":345:422  require(address(this).balance >= _amount, \"Insufficient balance in contract\") */\n      0x04\n      dup3\n      add\n        /* \"#utility.yul\":1026:1047   */\n      dup2\n      swap1\n      mstore\n        /* \"#utility.yul\":1063:1081   */\n      0x24\n      dup3\n      add\n        /* \"#utility.yul\":1056:1086   */\n      mstore\n        /* \"#utility.yul\":1122:1156   */\n      0x496e73756666696369656e742062616c616e636520696e20636f6e7472616374\n        /* \"#utility.yul\":1102:1120   */\n      0x44\n      dup3\n      add\n        /* \"#utility.yul\":1095:1157   */\n      mstore\n        /* \"#utility.yul\":1174:1192   */\n      0x64\n      add\n        /* \"contracts/TestEtherReceiver.sol\":345:422  require(address(this).balance >= _amount, \"Insufficient balance in contract\") */\n      mload(0x40)\n      dup1\n      swap2\n      sub\n      swap1\n      revert\n    tag_21:\n        /* \"contracts/TestEtherReceiver.sol\":432:453  _to.transfer(_amount) */\n      mload(0x40)\n      sub(shl(0xa0, 0x01), 0x01)\n        /* \"contracts/TestEtherReceiver.sol\":432:444  _to.transfer */\n      dup4\n      and\n      swap1\n        /* \"contracts/TestEtherReceiver.sol\":432:453  _to.transfer(_amount) */\n      dup3\n      iszero\n      0x08fc\n      mul\n      swap1\n        /* \"contracts/TestEtherReceiver.sol\":445:452  _amount */\n      dup4\n      swap1\n        /* \"contracts/TestEtherReceiver.sol\":432:453  _to.transfer(_amount) */\n      0x00\n      dup2\n      dup2\n      dup2\n        /* \"contracts/TestEtherReceiver.sol\":445:452  _amount */\n      dup6\n        /* \"contracts/TestEtherReceiver.sol\":432:444  _to.transfer */\n      dup9\n        /* \"contracts/TestEtherReceiver.sol\":432:453  _to.transfer(_amount) */\n      dup9\n      call\n      swap4\n      pop\n      pop\n      pop\n      pop\n      iszero\n      dup1\n      iszero\n      tag_25\n      jumpi\n      returndatasize\n      0x00\n      dup1\n      returndatacopy\n      revert(0x00, returndatasize)\n    tag_25:\n      pop\n        /* \"contracts/TestEtherReceiver.sol\":468:493  Transferred(_to, _amount) */\n      0x40\n      dup1\n      mload\n      sub(shl(0xa0, 0x01), 0x01)\n        /* \"#utility.yul\":206:238   */\n      dup5\n      and\n        /* \"#utility.yul\":188:239   */\n      dup2\n      mstore\n        /* \"#utility.yul\":270:272   */\n      0x20\n        /* \"#utility.yul\":255:273   */\n      dup2\n      add\n        /* \"#utility.yul\":248:282   */\n      dup4\n      swap1\n      mstore\n        /* \"contracts/TestEtherReceiver.sol\":468:493  Transferred(_to, _amount) */\n      0xe6d858f14d755446648a6e0c8ab8b5a0f58ccc7920d4c910b0454e4dcd869af0\n      swap2\n        /* \"#utility.yul\":161:179   */\n      add\n        /* \"contracts/TestEtherReceiver.sol\":468:493  Transferred(_to, _amount) */\n      mload(0x40)\n      dup1\n      swap2\n      sub\n      swap1\n      log1\n        /* \"contracts/TestEtherReceiver.sol\":272:500  function transferETH(address payable _to, uint _amount) public {... */\n      pop\n      pop\n      jump\t// out\n        /* \"#utility.yul\":475:837   */\n    tag_17:\n        /* \"#utility.yul\":551:557   */\n      0x00\n        /* \"#utility.yul\":559:565   */\n      dup1\n        /* \"#utility.yul\":612:614   */\n      0x40\n        /* \"#utility.yul\":600:609   */\n      dup4\n        /* \"#utility.yul\":591:598   */\n      dup6\n        /* \"#utility.yul\":587:610   */\n      sub\n        /* \"#utility.yul\":583:615   */\n      slt\n        /* \"#utility.yul\":580:632   */\n      iszero\n      tag_32\n      jumpi\n        /* \"#utility.yul\":628:629   */\n      0x00\n        /* \"#utility.yul\":625:626   */\n      dup1\n        /* \"#utility.yul\":618:630   */\n      revert\n        /* \"#utility.yul\":580:632   */\n    tag_32:\n        /* \"#utility.yul\":654:677   */\n      dup3\n      calldataload\n      sub(shl(0xa0, 0x01), 0x01)\n        /* \"#utility.yul\":706:737   */\n      dup2\n      and\n        /* \"#utility.yul\":696:738   */\n      dup2\n      eq\n        /* \"#utility.yul\":686:756   */\n      tag_33\n      jumpi\n        /* \"#utility.yul\":752:753   */\n      0x00\n        /* \"#utility.yul\":749:750   */\n      dup1\n        /* \"#utility.yul\":742:754   */\n      revert\n        /* \"#utility.yul\":686:756   */\n    tag_33:\n        /* \"#utility.yul\":775:780   */\n      swap5\n        /* \"#utility.yul\":827:829   */\n      0x20\n        /* \"#utility.yul\":812:830   */\n      swap4\n      swap1\n      swap4\n      add\n        /* \"#utility.yul\":799:831   */\n      calldataload\n      swap4\n      pop\n      pop\n      pop\n        /* \"#utility.yul\":475:837   */\n      jump\t// out\n\n    auxdata: 0xa2646970667358221220217878adf5fc30455b8b703cb0b8f67efb90c650e2469ef2d25d59d18fef0e0c64736f6c63430008120033\n}\n",
				"bytecode": {
					"linkReferences": {},
					"object": "608060405234801561001057600080fd5b506101f2806100206000396000f3fe60806040526004361061002d5760003560e01c806312065fe0146100715780637b1a49091461009157600080fd5b3661006c57604080513381523460208201527f88a5966d370b9919b20f3e2c13ff65706f196a4e32cc2c12bf57088f88525874910160405180910390a1005b600080fd5b34801561007d57600080fd5b504760405190815260200160405180910390f35b34801561009d57600080fd5b506100b16100ac366004610184565b6100b3565b005b804710156101075760405162461bcd60e51b815260206004820181905260248201527f496e73756666696369656e742062616c616e636520696e20636f6e7472616374604482015260640160405180910390fd5b6040516001600160a01b0383169082156108fc029083906000818181858888f1935050505015801561013d573d6000803e3d6000fd5b50604080516001600160a01b0384168152602081018390527fe6d858f14d755446648a6e0c8ab8b5a0f58ccc7920d4c910b0454e4dcd869af0910160405180910390a15050565b6000806040838503121561019757600080fd5b82356001600160a01b03811681146101ae57600080fd5b94602093909301359350505056fea2646970667358221220217878adf5fc30455b8b703cb0b8f67efb90c650e2469ef2d25d59d18fef0e0c64736f6c63430008120033",
					"opcodes": "PUSH1 0x80 PUSH1 0x40 MSTORE CALLVALUE DUP1 ISZERO PUSH2 0x10 JUMPI PUSH1 0x0 DUP1 REVERT JUMPDEST POP PUSH2 0x1F2 DUP1 PUSH2 0x20 PUSH1 0x0 CODECOPY PUSH1 0x0 RETURN INVALID PUSH1 0x80 PUSH1 0x40 MSTORE PUSH1 0x4 CALLDATASIZE LT PUSH2 0x2D JUMPI PUSH1 0x0 CALLDATALOAD PUSH1 0xE0 SHR DUP1 PUSH4 0x12065FE0 EQ PUSH2 0x71 JUMPI DUP1 PUSH4 0x7B1A4909 EQ PUSH2 0x91 JUMPI PUSH1 0x0 DUP1 REVERT JUMPDEST CALLDATASIZE PUSH2 0x6C JUMPI PUSH1 0x40 DUP1 MLOAD CALLER DUP2 MSTORE CALLVALUE PUSH1 0x20 DUP3 ADD MSTORE PUSH32 0x88A5966D370B9919B20F3E2C13FF65706F196A4E32CC2C12BF57088F88525874 SWAP2 ADD PUSH1 0x40 MLOAD DUP1 SWAP2 SUB SWAP1 LOG1 STOP JUMPDEST PUSH1 0x0 DUP1 REVERT JUMPDEST CALLVALUE DUP1 ISZERO PUSH2 0x7D JUMPI PUSH1 0x0 DUP1 REVERT JUMPDEST POP SELFBALANCE PUSH1 0x40 MLOAD SWAP1 DUP2 MSTORE PUSH1 0x20 ADD PUSH1 0x40 MLOAD DUP1 SWAP2 SUB SWAP1 RETURN JUMPDEST CALLVALUE DUP1 ISZERO PUSH2 0x9D JUMPI PUSH1 0x0 DUP1 REVERT JUMPDEST POP PUSH2 0xB1 PUSH2 0xAC CALLDATASIZE PUSH1 0x4 PUSH2 0x184 JUMP JUMPDEST PUSH2 0xB3 JUMP JUMPDEST STOP JUMPDEST DUP1 SELFBALANCE LT ISZERO PUSH2 0x107 JUMPI PUSH1 0x40 MLOAD PUSH3 0x461BCD PUSH1 0xE5 SHL DUP2 MSTORE PUSH1 0x20 PUSH1 0x4 DUP3 ADD DUP2 SWAP1 MSTORE PUSH1 0x24 DUP3 ADD MSTORE PUSH32 0x496E73756666696369656E742062616C616E636520696E20636F6E7472616374 PUSH1 0x44 DUP3 ADD MSTORE PUSH1 0x64 ADD PUSH1 0x40 MLOAD DUP1 SWAP2 SUB SWAP1 REVERT JUMPDEST PUSH1 0x40 MLOAD PUSH1 0x1 PUSH1 0x1 PUSH1 0xA0 SHL SUB DUP4 AND SWAP1 DUP3 ISZERO PUSH2 0x8FC MUL SWAP1 DUP4 SWAP1 PUSH1 0x0 DUP2 DUP2 DUP2 DUP6 DUP9 DUP9 CALL SWAP4 POP POP POP POP ISZERO DUP1 ISZERO PUSH2 0x13D JUMPI RETURNDATASIZE PUSH1 0x0 DUP1 RETURNDATACOPY RETURNDATASIZE PUSH1 0x0 REVERT JUMPDEST POP PUSH1 0x40 DUP1 MLOAD PUSH1 0x1 PUSH1 0x1 PUSH1 0xA0 SHL SUB DUP5 AND DUP2 MSTORE PUSH1 0x20 DUP2 ADD DUP4 SWAP1 MSTORE PUSH32 0xE6D858F14D755446648A6E0C8AB8B5A0F58CCC7920D4C910B0454E4DCD869AF0 SWAP2 ADD PUSH1 0x40 MLOAD DUP1 SWAP2 SUB SWAP1 LOG1 POP POP JUMP JUMPDEST PUSH1 0x0 DUP1 PUSH1 0x40 DUP4 DUP6 SUB SLT ISZERO PUSH2 0x197 JUMPI PUSH1 0x0 DUP1 REVERT JUMPDEST DUP3 CALLDATALOAD PUSH1 0x1 PUSH1 0x1 PUSH1 0xA0 SHL SUB DUP2 AND DUP2 EQ PUSH2 0x1AE JUMPI PUSH1 0x0 DUP1 REVERT JUMPDEST SWAP5 PUSH1 0x20 SWAP4 SWAP1 SWAP4 ADD CALLDATALOAD SWAP4 POP POP POP JUMP INVALID LOG2 PUSH5 0x6970667358 0x22 SLT KECCAK256 0x21 PUSH25 0x78ADF5FC30455B8B703CB0B8F67EFB90C650E2469EF2D25D59 0xD1 DUP16 0xEF 0xE 0xC PUSH5 0x736F6C6343 STOP ADDMOD SLT STOP CALLER "
				},
				"gasEstimates": {
					"creation": {
						"codeDepositCost": "99600",
						"executionCost": "147",
						"totalCost": "99747"
					},
					"external": {
						"getBalance()": "148",
						"transferETH(address,uint256)": "infinite"
					}
				},
				"methodIdentifiers": {
					"getBalance()": "12065fe0",
					"transferETH(address,uint256)": "7b1a4909"
				}
			},
			"storageLayout": {
				"storage": [],
				"types": null
			},
			"userdoc": {
				"kind": "user",
				"methods": {},
				"version": 1
			}
		}
	}
}