{
	"data": {
		"bytecode": {
			"linkReferences": {},
			"object": "608060405234801562000010575f80fd5b5060405162004825380380620048258339818101604052810190620000369190620003b6565b8282815f9081620000489190620006a3565b5080600190816200005a9190620006a3565b5050505f600b5f6101000a81548160ff021916908315150217905550620000966200008a6200010960201b60201c565b6200011060201b60201c565b8282620000b88260405180602001604052805f815250620001d560201b60201c565b15620000c2575f80fd5b620000e28160405180602001604052805f815250620001d560201b60201c565b15620000ec575f80fd5b82600d9081620000fd9190620006a3565b505050505050620007df565b5f33905090565b5f600b60019054906101000a900473ffffffffffffffffffffffffffffffffffffffff16905081600b60016101000a81548173ffffffffffffffffffffffffffffffffffffffff021916908373ffffffffffffffffffffffffffffffffffffffff1602179055508173ffffffffffffffffffffffffffffffffffffffff168173ffffffffffffffffffffffffffffffffffffffff167f8be0079c531659141344cd1fd0a4f28419497f9722a3daafe3b4186f6b6457e060405160405180910390a35050565b5f81604051602001620001e99190620007c7565b6040516020818303038152906040528051906020012083604051602001620002129190620007c7565b6040516020818303038152906040528051906020012014905092915050565b5f604051905090565b5f80fd5b5f80fd5b5f80fd5b5f80fd5b5f601f19601f8301169050919050565b7f4e487b71000000000000000000000000000000000000000000000000000000005f52604160045260245ffd5b62000292826200024a565b810181811067ffffffffffffffff82111715620002b457620002b36200025a565b5b80604052505050565b5f620002c862000231565b9050620002d6828262000287565b919050565b5f67ffffffffffffffff821115620002f857620002f76200025a565b5b62000303826200024a565b9050602081019050919050565b5f5b838110156200032f57808201518184015260208101905062000312565b5f8484015250505050565b5f620003506200034a84620002db565b620002bd565b9050828152602081018484840111156200036f576200036e62000246565b5b6200037c84828562000310565b509392505050565b5f82601f8301126200039b576200039a62000242565b5b8151620003ad8482602086016200033a565b91505092915050565b5f805f60608486031215620003d057620003cf6200023a565b5b5f84015167ffffffffffffffff811115620003f057620003ef6200023e565b5b620003fe8682870162000384565b935050602084015167ffffffffffffffff8111156200042257620004216200023e565b5b620004308682870162000384565b925050604084015167ffffffffffffffff8111156200045457620004536200023e565b5b620004628682870162000384565b9150509250925092565b5f81519050919050565b7f4e487b71000000000000000000000000000000000000000000000000000000005f52602260045260245ffd5b5f6002820490506001821680620004bb57607f821691505b602082108103620004d157620004d062000476565b5b50919050565b5f819050815f5260205f209050919050565b5f6020601f8301049050919050565b5f82821b905092915050565b5f60088302620005357fffffffffffffffffffffffffffffffffffffffffffffffffffffffffffffffff82620004f8565b620005418683620004f8565b95508019841693508086168417925050509392505050565b5f819050919050565b5f819050919050565b5f6200058b620005856200057f8462000559565b62000562565b62000559565b9050919050565b5f819050919050565b620005a6836200056b565b620005be620005b58262000592565b84845462000504565b825550505050565b5f90565b620005d4620005c6565b620005e18184846200059b565b505050565b5b818110156200060857620005fc5f82620005ca565b600181019050620005e7565b5050565b601f82111562000657576200062181620004d7565b6200062c84620004e9565b810160208510156200063c578190505b620006546200064b85620004e9565b830182620005e6565b50505b505050565b5f82821c905092915050565b5f620006795f19846008026200065c565b1980831691505092915050565b5f62000693838362000668565b9150826002028217905092915050565b620006ae826200046c565b67ffffffffffffffff811115620006ca57620006c96200025a565b5b620006d68254620004a3565b620006e38282856200060c565b5f60209050601f83116001811462000719575f841562000704578287015190505b62000710858262000686565b8655506200077f565b601f1984166200072986620004d7565b5f5b8281101562000752578489015182556001820191506020850194506020810190506200072b565b868310156200077257848901516200076e601f89168262000668565b8355505b6001600288020188555050505b505050505050565b5f81905092915050565b5f6200079d826200046c565b620007a9818562000787565b9350620007bb81856020860162000310565b80840191505092915050565b5f620007d4828462000791565b915081905092915050565b61403880620007ed5f395ff3fe608060405234801561000f575f80fd5b50600436106101cd575f3560e01c80635c975abb11610102578063a22cb465116100a0578063d13319c41161006f578063d13319c414610519578063d204c45e14610537578063e985e9c514610553578063f2fde38b14610583576101cd565b8063a22cb46514610481578063b88d4fde1461049d578063bed34bba146104b9578063c87b56dd146104e9576101cd565b8063715018a6116100dc578063715018a6146104315780638456cb591461043b5780638da5cb5b1461044557806395d89b4114610463576101cd565b80635c975abb146103b35780636352211e146103d157806370a0823114610401576101cd565b8063266001d31161016f5780633f4ba83a116101495780633f4ba83a1461034157806342842e0e1461034b57806342966c68146103675780634f6ccce714610383576101cd565b8063266001d3146102c35780632f745c59146102f357806338cc483114610323576101cd565b8063095ea7b3116101ab578063095ea7b31461024f57806318160ddd1461026b5780632384630a1461028957806323b872dd146102a7576101cd565b806301ffc9a7146101d157806306fdde0314610201578063081812fc1461021f575b5f80fd5b6101eb60048036038101906101e691906129a6565b61059f565b6040516101f891906129eb565b60405180910390f35b6102096105b0565b6040516102169190612a8e565b60405180910390f35b61023960048036038101906102349190612ae1565b61063f565b6040516102469190612b4b565b60405180910390f35b61026960048036038101906102649190612b8e565b610681565b005b610273610797565b6040516102809190612bdb565b60405180910390f35b6102916107a3565b60405161029e9190612ccc565b60405180910390f35b6102c160048036038101906102bc9190612cec565b610801565b005b6102dd60048036038101906102d89190612e68565b610861565b6040516102ea9190612a8e565b60405180910390f35b61030d60048036038101906103089190612b8e565b61088d565b60405161031a9190612bdb565b60405180910390f35b61032b61092d565b6040516103389190612b4b565b60405180910390f35b610349610934565b005b61036560048036038101906103609190612cec565b610946565b005b610381600480360381019061037c9190612ae1565b610965565b005b61039d60048036038101906103989190612ae1565b6109c1565b6040516103aa9190612bdb565b60405180910390f35b6103bb610a2f565b6040516103c891906129eb565b60405180910390f35b6103eb60048036038101906103e69190612ae1565b610a44565b6040516103f89190612b4b565b60405180910390f35b61041b60048036038101906104169190612ede565b610ac8565b6040516104289190612bdb565b60405180910390f35b610439610b7c565b005b610443610b8f565b005b61044d610ba1565b60405161045a9190612b4b565b60405180910390f35b61046b610bca565b6040516104789190612a8e565b60405180910390f35b61049b60048036038101906104969190612f33565b610c5a565b005b6104b760048036038101906104b2919061300f565b610c70565b005b6104d360048036038101906104ce9190612e68565b610cd2565b6040516104e091906129eb565b60405180910390f35b61050360048036038101906104fe9190612ae1565b610d2a565b6040516105109190612a8e565b60405180910390f35b610521610d3c565b60405161052e9190612a8e565b60405180910390f35b610551600480360381019061054c919061308f565b610dcc565b005b61056d600480360381019061056891906130e9565b610e04565b60405161057a91906129eb565b60405180910390f35b61059d60048036038101906105989190612ede565b610e92565b005b5f6105a982610f14565b9050919050565b60605f80546105be90613154565b80601f01602080910402602001604051908101604052809291908181526020018280546105ea90613154565b80156106355780601f1061060c57610100808354040283529160200191610635565b820191905f5260205f20905b81548152906001019060200180831161061857829003601f168201915b5050505050905090565b5f61064982610f8d565b60045f8381526020019081526020015f205f9054906101000a900473ffffffffffffffffffffffffffffffffffffffff169050919050565b5f61068b82610a44565b90508073ffffffffffffffffffffffffffffffffffffffff168373ffffffffffffffffffffffffffffffffffffffff16036106fb576040517f08c379a00000000000000000000000000000000000000000000000000000000081526004016106f2906131f4565b60405180910390fd5b8073ffffffffffffffffffffffffffffffffffffffff1661071a610fd8565b73ffffffffffffffffffffffffffffffffffffffff161480610749575061074881610743610fd8565b610e04565b5b610788576040517f08c379a000000000000000000000000000000000000000000000000000000000815260040161077f90613282565b60405180910390fd5b6107928383610fdf565b505050565b5f600880549050905090565b6107ab6128bb565b5f6107b4610ba1565b90506040518060a001604052806107c96105b0565b81526020016107d6610bca565b81526020016107e483610ac8565b81526020016107f25f610d2a565b81526020014781525091505090565b61081261080c610fd8565b82611095565b610851576040517f08c379a000000000000000000000000000000000000000000000000000000000815260040161084890613310565b60405180910390fd5b61085c838383611129565b505050565b60608282604051602001610876929190613372565b604051602081830303815290604052905092915050565b5f61089783610ac8565b82106108d8576040517f08c379a00000000000000000000000000000000000000000000000000000000081526004016108cf90613405565b60405180910390fd5b60065f8473ffffffffffffffffffffffffffffffffffffffff1673ffffffffffffffffffffffffffffffffffffffff1681526020019081526020015f205f8381526020019081526020015f2054905092915050565b5f30905090565b61093c611415565b610944611493565b565b61096083838360405180602001604052805f815250610c70565b505050565b610976610970610fd8565b82611095565b6109b5576040517f08c379a00000000000000000000000000000000000000000000000000000000081526004016109ac90613310565b60405180910390fd5b6109be816114f4565b50565b5f6109ca610797565b8210610a0b576040517f08c379a0000000000000000000000000000000000000000000000000000000008152600401610a0290613493565b60405180910390fd5b60088281548110610a1f57610a1e6134b1565b5b905f5260205f2001549050919050565b5f600b5f9054906101000a900460ff16905090565b5f80610a4f83611500565b90505f73ffffffffffffffffffffffffffffffffffffffff168173ffffffffffffffffffffffffffffffffffffffff1603610abf576040517f08c379a0000000000000000000000000000000000000000000000000000000008152600401610ab690613528565b60405180910390fd5b80915050919050565b5f8073ffffffffffffffffffffffffffffffffffffffff168273ffffffffffffffffffffffffffffffffffffffff1603610b37576040517f08c379a0000000000000000000000000000000000000000000000000000000008152600401610b2e906135b6565b60405180910390fd5b60035f8373ffffffffffffffffffffffffffffffffffffffff1673ffffffffffffffffffffffffffffffffffffffff1681526020019081526020015f20549050919050565b610b84611415565b610b8d5f611539565b565b610b97611415565b610b9f6115fe565b565b5f600b60019054906101000a900473ffffffffffffffffffffffffffffffffffffffff16905090565b606060018054610bd990613154565b80601f0160208091040260200160405190810160405280929190818152602001828054610c0590613154565b8015610c505780601f10610c2757610100808354040283529160200191610c50565b820191905f5260205f20905b815481529060010190602001808311610c3357829003601f168201915b5050505050905090565b610c6c610c65610fd8565b8383611660565b5050565b610c81610c7b610fd8565b83611095565b610cc0576040517f08c379a0000000000000000000000000000000000000000000000000000000008152600401610cb790613310565b60405180910390fd5b610ccc848484846117c7565b50505050565b5f81604051602001610ce4919061360e565b6040516020818303038152906040528051906020012083604051602001610d0b919061360e565b6040516020818303038152906040528051906020012014905092915050565b6060610d3582611823565b9050919050565b6060600d8054610d4b90613154565b80601f0160208091040260200160405190810160405280929190818152602001828054610d7790613154565b8015610dc25780601f10610d9957610100808354040283529160200191610dc2565b820191905f5260205f20905b815481529060010190602001808311610da557829003601f168201915b5050505050905090565b610dd4611415565b5f610ddf600c61192d565b9050610deb600c611939565b610df5838261194d565b610dff818361196a565b505050565b5f60055f8473ffffffffffffffffffffffffffffffffffffffff1673ffffffffffffffffffffffffffffffffffffffff1681526020019081526020015f205f8373ffffffffffffffffffffffffffffffffffffffff1673ffffffffffffffffffffffffffffffffffffffff1681526020019081526020015f205f9054906101000a900460ff16905092915050565b610e9a611415565b5f73ffffffffffffffffffffffffffffffffffffffff168173ffffffffffffffffffffffffffffffffffffffff1603610f08576040517f08c379a0000000000000000000000000000000000000000000000000000000008152600401610eff90613694565b60405180910390fd5b610f1181611539565b50565b5f7f780e9d63000000000000000000000000000000000000000000000000000000007bffffffffffffffffffffffffffffffffffffffffffffffffffffffff1916827bffffffffffffffffffffffffffffffffffffffffffffffffffffffff19161480610f865750610f85826119d5565b5b9050919050565b610f9681611ab6565b610fd5576040517f08c379a0000000000000000000000000000000000000000000000000000000008152600401610fcc90613528565b60405180910390fd5b50565b5f33905090565b8160045f8381526020019081526020015f205f6101000a81548173ffffffffffffffffffffffffffffffffffffffff021916908373ffffffffffffffffffffffffffffffffffffffff160217905550808273ffffffffffffffffffffffffffffffffffffffff1661104f83610a44565b73ffffffffffffffffffffffffffffffffffffffff167f8c5be1e5ebec7d5bd14f71427d1e84f3dd0314c0f7b2291e5b200ac8c7c3b92560405160405180910390a45050565b5f806110a083610a44565b90508073ffffffffffffffffffffffffffffffffffffffff168473ffffffffffffffffffffffffffffffffffffffff1614806110e257506110e18185610e04565b5b8061112057508373ffffffffffffffffffffffffffffffffffffffff166111088461063f565b73ffffffffffffffffffffffffffffffffffffffff16145b91505092915050565b8273ffffffffffffffffffffffffffffffffffffffff1661114982610a44565b73ffffffffffffffffffffffffffffffffffffffff161461119f576040517f08c379a000000000000000000000000000000000000000000000000000000000815260040161119690613722565b60405180910390fd5b5f73ffffffffffffffffffffffffffffffffffffffff168273ffffffffffffffffffffffffffffffffffffffff160361120d576040517f08c379a0000000000000000000000000000000000000000000000000000000008152600401611204906137b0565b60405180910390fd5b61121a8383836001611af6565b8273ffffffffffffffffffffffffffffffffffffffff1661123a82610a44565b73ffffffffffffffffffffffffffffffffffffffff1614611290576040517f08c379a000000000000000000000000000000000000000000000000000000000815260040161128790613722565b60405180910390fd5b60045f8281526020019081526020015f205f6101000a81549073ffffffffffffffffffffffffffffffffffffffff0219169055600160035f8573ffffffffffffffffffffffffffffffffffffffff1673ffffffffffffffffffffffffffffffffffffffff1681526020019081526020015f205f8282540392505081905550600160035f8473ffffffffffffffffffffffffffffffffffffffff1673ffffffffffffffffffffffffffffffffffffffff1681526020019081526020015f205f82825401925050819055508160025f8381526020019081526020015f205f6101000a81548173ffffffffffffffffffffffffffffffffffffffff021916908373ffffffffffffffffffffffffffffffffffffffff160217905550808273ffffffffffffffffffffffffffffffffffffffff168473ffffffffffffffffffffffffffffffffffffffff167fddf252ad1be2c89b69c2b068fc378daa952ba7f163c4a11628f55a4df523b3ef60405160405180910390a46114108383836001611b10565b505050565b61141d610fd8565b73ffffffffffffffffffffffffffffffffffffffff1661143b610ba1565b73ffffffffffffffffffffffffffffffffffffffff1614611491576040517f08c379a000000000000000000000000000000000000000000000000000000000815260040161148890613818565b60405180910390fd5b565b61149b611b16565b5f600b5f6101000a81548160ff0219169083151502179055507f5db9ee0a495bf2e6ff9c91a7834c1ba4fdd244a5e8aa4e537bd38aeae4b073aa6114dd610fd8565b6040516114ea9190612b4b565b60405180910390a1565b6114fd81611b5f565b50565b5f60025f8381526020019081526020015f205f9054906101000a900473ffffffffffffffffffffffffffffffffffffffff169050919050565b5f600b60019054906101000a900473ffffffffffffffffffffffffffffffffffffffff16905081600b60016101000a81548173ffffffffffffffffffffffffffffffffffffffff021916908373ffffffffffffffffffffffffffffffffffffffff1602179055508173ffffffffffffffffffffffffffffffffffffffff168173ffffffffffffffffffffffffffffffffffffffff167f8be0079c531659141344cd1fd0a4f28419497f9722a3daafe3b4186f6b6457e060405160405180910390a35050565b611606611bac565b6001600b5f6101000a81548160ff0219169083151502179055507f62e78cea01bee320cd4e420270b5ea74000d11b0c9f74754ebdbfc544b05a258611649610fd8565b6040516116569190612b4b565b60405180910390a1565b8173ffffffffffffffffffffffffffffffffffffffff168373ffffffffffffffffffffffffffffffffffffffff16036116ce576040517f08c379a00000000000000000000000000000000000000000000000000000000081526004016116c590613880565b60405180910390fd5b8060055f8573ffffffffffffffffffffffffffffffffffffffff1673ffffffffffffffffffffffffffffffffffffffff1681526020019081526020015f205f8473ffffffffffffffffffffffffffffffffffffffff1673ffffffffffffffffffffffffffffffffffffffff1681526020019081526020015f205f6101000a81548160ff0219169083151502179055508173ffffffffffffffffffffffffffffffffffffffff168373ffffffffffffffffffffffffffffffffffffffff167f17307eab39ab6107e8899845ad3d59bd9653f200f220920489ca2b5937696c31836040516117ba91906129eb565b60405180910390a3505050565b6117d2848484611129565b6117de84848484611bf6565b61181d576040517f08c379a00000000000000000000000000000000000000000000000000000000081526004016118149061390e565b60405180910390fd5b50505050565b606061182e82610f8d565b5f600a5f8481526020019081526020015f20805461184b90613154565b80601f016020809104026020016040519081016040528092919081815260200182805461187790613154565b80156118c25780601f10611899576101008083540402835291602001916118c2565b820191905f5260205f20905b8154815290600101906020018083116118a557829003601f168201915b505050505090505f6118d2611d78565b90505f8151036118e6578192505050611928565b5f8251111561191a57808260405160200161190292919061392c565b60405160208183030381529060405292505050611928565b61192384611dcf565b925050505b919050565b5f815f01549050919050565b6001815f015f828254019250508190555050565b611966828260405180602001604052805f815250611e34565b5050565b61197382611ab6565b6119b2576040517f08c379a00000000000000000000000000000000000000000000000000000000081526004016119a9906139bf565b60405180910390fd5b80600a5f8481526020019081526020015f2090816119d09190613b7a565b505050565b5f7f80ac58cd000000000000000000000000000000000000000000000000000000007bffffffffffffffffffffffffffffffffffffffffffffffffffffffff1916827bffffffffffffffffffffffffffffffffffffffffffffffffffffffff19161480611a9f57507f5b5e139f000000000000000000000000000000000000000000000000000000007bffffffffffffffffffffffffffffffffffffffffffffffffffffffff1916827bffffffffffffffffffffffffffffffffffffffffffffffffffffffff1916145b80611aaf5750611aae82611e8e565b5b9050919050565b5f8073ffffffffffffffffffffffffffffffffffffffff16611ad783611500565b73ffffffffffffffffffffffffffffffffffffffff1614159050919050565b611afe611bac565b611b0a84848484611ef7565b50505050565b50505050565b611b1e610a2f565b611b5d576040517f08c379a0000000000000000000000000000000000000000000000000000000008152600401611b5490613c93565b60405180910390fd5b565b611b6881612052565b5f600a5f8381526020019081526020015f208054611b8590613154565b905014611ba957600a5f8281526020019081526020015f205f611ba891906128e8565b5b50565b611bb4610a2f565b15611bf4576040517f08c379a0000000000000000000000000000000000000000000000000000000008152600401611beb90613cfb565b60405180910390fd5b565b5f611c168473ffffffffffffffffffffffffffffffffffffffff16612193565b15611d6b578373ffffffffffffffffffffffffffffffffffffffff1663150b7a02611c3f610fd8565b8786866040518563ffffffff1660e01b8152600401611c619493929190613d61565b6020604051808303815f875af1925050508015611c9c57506040513d601f19601f82011682018060405250810190611c999190613dbf565b60015b611d1b573d805f8114611cca576040519150601f19603f3d011682016040523d82523d5f602084013e611ccf565b606091505b505f815103611d13576040517f08c379a0000000000000000000000000000000000000000000000000000000008152600401611d0a9061390e565b60405180910390fd5b805181602001fd5b63150b7a0260e01b7bffffffffffffffffffffffffffffffffffffffffffffffffffffffff1916817bffffffffffffffffffffffffffffffffffffffffffffffffffffffff191614915050611d70565b600190505b949350505050565b60605f6040518060400160405280601581526020017f68747470733a2f2f697066732e696f2f69706e732f000000000000000000000081525090505f611dbc610d3c565b9050611dc88282610861565b9250505090565b6060611dda82610f8d565b5f611de3611d78565b90505f815111611e015760405180602001604052805f815250611e2c565b80611e0b846121b5565b604051602001611e1c92919061392c565b6040516020818303038152906040525b915050919050565b611e3e838361227f565b611e4a5f848484611bf6565b611e89576040517f08c379a0000000000000000000000000000000000000000000000000000000008152600401611e809061390e565b60405180910390fd5b505050565b5f7f01ffc9a7000000000000000000000000000000000000000000000000000000007bffffffffffffffffffffffffffffffffffffffffffffffffffffffff1916827bffffffffffffffffffffffffffffffffffffffffffffffffffffffff1916149050919050565b611f0384848484612492565b6001811115611f47576040517f08c379a0000000000000000000000000000000000000000000000000000000008152600401611f3e90613e5a565b60405180910390fd5b5f8290505f73ffffffffffffffffffffffffffffffffffffffff168573ffffffffffffffffffffffffffffffffffffffff1603611f8c57611f8781612498565b611fcb565b8373ffffffffffffffffffffffffffffffffffffffff168573ffffffffffffffffffffffffffffffffffffffff1614611fca57611fc985826124dc565b5b5b5f73ffffffffffffffffffffffffffffffffffffffff168473ffffffffffffffffffffffffffffffffffffffff160361200c5761200781612632565b61204b565b8473ffffffffffffffffffffffffffffffffffffffff168473ffffffffffffffffffffffffffffffffffffffff161461204a5761204984826126f2565b5b5b5050505050565b5f61205c82610a44565b905061206b815f846001611af6565b61207482610a44565b905060045f8381526020019081526020015f205f6101000a81549073ffffffffffffffffffffffffffffffffffffffff0219169055600160035f8373ffffffffffffffffffffffffffffffffffffffff1673ffffffffffffffffffffffffffffffffffffffff1681526020019081526020015f205f828254039250508190555060025f8381526020019081526020015f205f6101000a81549073ffffffffffffffffffffffffffffffffffffffff0219169055815f73ffffffffffffffffffffffffffffffffffffffff168273ffffffffffffffffffffffffffffffffffffffff167fddf252ad1be2c89b69c2b068fc378daa952ba7f163c4a11628f55a4df523b3ef60405160405180910390a461218f815f846001611b10565b5050565b5f808273ffffffffffffffffffffffffffffffffffffffff163b119050919050565b60605f60016121c38461276a565b0190505f8167ffffffffffffffff8111156121e1576121e0612d44565b5b6040519080825280601f01601f1916602001820160405280156122135781602001600182028036833780820191505090505b5090505f82602001820190505b600115612274578080600190039150507f3031323334353637383961626364656600000000000000000000000000000000600a86061a8153600a858161226957612268613e78565b5b0494505f8503612220575b819350505050919050565b5f73ffffffffffffffffffffffffffffffffffffffff168273ffffffffffffffffffffffffffffffffffffffff16036122ed576040517f08c379a00000000000000000000000000000000000000000000000000000000081526004016122e490613eef565b60405180910390fd5b6122f681611ab6565b15612336576040517f08c379a000000000000000000000000000000000000000000000000000000000815260040161232d90613f57565b60405180910390fd5b6123435f83836001611af6565b61234c81611ab6565b1561238c576040517f08c379a000000000000000000000000000000000000000000000000000000000815260040161238390613f57565b60405180910390fd5b600160035f8473ffffffffffffffffffffffffffffffffffffffff1673ffffffffffffffffffffffffffffffffffffffff1681526020019081526020015f205f82825401925050819055508160025f8381526020019081526020015f205f6101000a81548173ffffffffffffffffffffffffffffffffffffffff021916908373ffffffffffffffffffffffffffffffffffffffff160217905550808273ffffffffffffffffffffffffffffffffffffffff165f73ffffffffffffffffffffffffffffffffffffffff167fddf252ad1be2c89b69c2b068fc378daa952ba7f163c4a11628f55a4df523b3ef60405160405180910390a461248e5f83836001611b10565b5050565b50505050565b60088054905060095f8381526020019081526020015f2081905550600881908060018154018082558091505060019003905f5260205f20015f909190919091505550565b5f60016124e884610ac8565b6124f29190613fa2565b90505f60075f8481526020019081526020015f205490508181146125c9575f60065f8673ffffffffffffffffffffffffffffffffffffffff1673ffffffffffffffffffffffffffffffffffffffff1681526020019081526020015f205f8481526020019081526020015f205490508060065f8773ffffffffffffffffffffffffffffffffffffffff1673ffffffffffffffffffffffffffffffffffffffff1681526020019081526020015f205f8481526020019081526020015f20819055508160075f8381526020019081526020015f2081905550505b60075f8481526020019081526020015f205f905560065f8573ffffffffffffffffffffffffffffffffffffffff1673ffffffffffffffffffffffffffffffffffffffff1681526020019081526020015f205f8381526020019081526020015f205f905550505050565b5f60016008805490506126459190613fa2565b90505f60095f8481526020019081526020015f205490505f60088381548110612671576126706134b1565b5b905f5260205f20015490508060088381548110612691576126906134b1565b5b905f5260205f2001819055508160095f8381526020019081526020015f208190555060095f8581526020019081526020015f205f905560088054806126d9576126d8613fd5565b5b600190038181905f5260205f20015f9055905550505050565b5f6126fc83610ac8565b90508160065f8573ffffffffffffffffffffffffffffffffffffffff1673ffffffffffffffffffffffffffffffffffffffff1681526020019081526020015f205f8381526020019081526020015f20819055508060075f8481526020019081526020015f2081905550505050565b5f805f90507a184f03e93ff9f4daa797ed6e38ed64bf6a1f01000000000000000083106127c6577a184f03e93ff9f4daa797ed6e38ed64bf6a1f01000000000000000083816127bc576127bb613e78565b5b0492506040810190505b6d04ee2d6d415b85acef81000000008310612803576d04ee2d6d415b85acef810000000083816127f9576127f8613e78565b5b0492506020810190505b662386f26fc10000831061283257662386f26fc10000838161282857612827613e78565b5b0492506010810190505b6305f5e100831061285b576305f5e100838161285157612850613e78565b5b0492506008810190505b612710831061288057612710838161287657612875613e78565b5b0492506004810190505b606483106128a3576064838161289957612898613e78565b5b0492506002810190505b600a83106128b2576001810190505b80915050919050565b6040518060a0016040528060608152602001606081526020015f8152602001606081526020015f81525090565b5080546128f490613154565b5f825580601f106129055750612922565b601f0160209004905f5260205f20908101906129219190612925565b5b50565b5b8082111561293c575f815f905550600101612926565b5090565b5f604051905090565b5f80fd5b5f80fd5b5f7fffffffff0000000000000000000000000000000000000000000000000000000082169050919050565b61298581612951565b811461298f575f80fd5b50565b5f813590506129a08161297c565b92915050565b5f602082840312156129bb576129ba612949565b5b5f6129c884828501612992565b91505092915050565b5f8115159050919050565b6129e5816129d1565b82525050565b5f6020820190506129fe5f8301846129dc565b92915050565b5f81519050919050565b5f82825260208201905092915050565b5f5b83811015612a3b578082015181840152602081019050612a20565b5f8484015250505050565b5f601f19601f8301169050919050565b5f612a6082612a04565b612a6a8185612a0e565b9350612a7a818560208601612a1e565b612a8381612a46565b840191505092915050565b5f6020820190508181035f830152612aa68184612a56565b905092915050565b5f819050919050565b612ac081612aae565b8114612aca575f80fd5b50565b5f81359050612adb81612ab7565b92915050565b5f60208284031215612af657612af5612949565b5b5f612b0384828501612acd565b91505092915050565b5f73ffffffffffffffffffffffffffffffffffffffff82169050919050565b5f612b3582612b0c565b9050919050565b612b4581612b2b565b82525050565b5f602082019050612b5e5f830184612b3c565b92915050565b612b6d81612b2b565b8114612b77575f80fd5b50565b5f81359050612b8881612b64565b92915050565b5f8060408385031215612ba457612ba3612949565b5b5f612bb185828601612b7a565b9250506020612bc285828601612acd565b9150509250929050565b612bd581612aae565b82525050565b5f602082019050612bee5f830184612bcc565b92915050565b5f82825260208201905092915050565b5f612c0e82612a04565b612c188185612bf4565b9350612c28818560208601612a1e565b612c3181612a46565b840191505092915050565b612c4581612aae565b82525050565b5f60a083015f8301518482035f860152612c658282612c04565b91505060208301518482036020860152612c7f8282612c04565b9150506040830151612c946040860182612c3c565b5060608301518482036060860152612cac8282612c04565b9150506080830151612cc16080860182612c3c565b508091505092915050565b5f6020820190508181035f830152612ce48184612c4b565b905092915050565b5f805f60608486031215612d0357612d02612949565b5b5f612d1086828701612b7a565b9350506020612d2186828701612b7a565b9250506040612d3286828701612acd565b9150509250925092565b5f80fd5b5f80fd5b7f4e487b71000000000000000000000000000000000000000000000000000000005f52604160045260245ffd5b612d7a82612a46565b810181811067ffffffffffffffff82111715612d9957612d98612d44565b5b80604052505050565b5f612dab612940565b9050612db78282612d71565b919050565b5f67ffffffffffffffff821115612dd657612dd5612d44565b5b612ddf82612a46565b9050602081019050919050565b828183375f83830152505050565b5f612e0c612e0784612dbc565b612da2565b905082815260208101848484011115612e2857612e27612d40565b5b612e33848285612dec565b509392505050565b5f82601f830112612e4f57612e4e612d3c565b5b8135612e5f848260208601612dfa565b91505092915050565b5f8060408385031215612e7e57612e7d612949565b5b5f83013567ffffffffffffffff811115612e9b57612e9a61294d565b5b612ea785828601612e3b565b925050602083013567ffffffffffffffff811115612ec857612ec761294d565b5b612ed485828601612e3b565b9150509250929050565b5f60208284031215612ef357612ef2612949565b5b5f612f0084828501612b7a565b91505092915050565b612f12816129d1565b8114612f1c575f80fd5b50565b5f81359050612f2d81612f09565b92915050565b5f8060408385031215612f4957612f48612949565b5b5f612f5685828601612b7a565b9250506020612f6785828601612f1f565b9150509250929050565b5f67ffffffffffffffff821115612f8b57612f8a612d44565b5b612f9482612a46565b9050602081019050919050565b5f612fb3612fae84612f71565b612da2565b905082815260208101848484011115612fcf57612fce612d40565b5b612fda848285612dec565b509392505050565b5f82601f830112612ff657612ff5612d3c565b5b8135613006848260208601612fa1565b91505092915050565b5f805f806080858703121561302757613026612949565b5b5f61303487828801612b7a565b945050602061304587828801612b7a565b935050604061305687828801612acd565b925050606085013567ffffffffffffffff8111156130775761307661294d565b5b61308387828801612fe2565b91505092959194509250565b5f80604083850312156130a5576130a4612949565b5b5f6130b285828601612b7a565b925050602083013567ffffffffffffffff8111156130d3576130d261294d565b5b6130df85828601612e3b565b9150509250929050565b5f80604083850312156130ff576130fe612949565b5b5f61310c85828601612b7a565b925050602061311d85828601612b7a565b9150509250929050565b7f4e487b71000000000000000000000000000000000000000000000000000000005f52602260045260245ffd5b5f600282049050600182168061316b57607f821691505b60208210810361317e5761317d613127565b5b50919050565b7f4552433732313a20617070726f76616c20746f2063757272656e74206f776e655f8201527f7200000000000000000000000000000000000000000000000000000000000000602082015250565b5f6131de602183612a0e565b91506131e982613184565b604082019050919050565b5f6020820190508181035f83015261320b816131d2565b9050919050565b7f4552433732313a20617070726f76652063616c6c6572206973206e6f7420746f5f8201527f6b656e206f776e6572206f7220617070726f76656420666f7220616c6c000000602082015250565b5f61326c603d83612a0e565b915061327782613212565b604082019050919050565b5f6020820190508181035f83015261329981613260565b9050919050565b7f4552433732313a2063616c6c6572206973206e6f7420746f6b656e206f776e655f8201527f72206f7220617070726f76656400000000000000000000000000000000000000602082015250565b5f6132fa602d83612a0e565b9150613305826132a0565b604082019050919050565b5f6020820190508181035f830152613327816132ee565b9050919050565b5f81519050919050565b5f81905092915050565b5f61334c8261332e565b6133568185613338565b9350613366818560208601612a1e565b80840191505092915050565b5f61337d8285613342565b91506133898284613342565b91508190509392505050565b7f455243373231456e756d657261626c653a206f776e657220696e646578206f755f8201527f74206f6620626f756e6473000000000000000000000000000000000000000000602082015250565b5f6133ef602b83612a0e565b91506133fa82613395565b604082019050919050565b5f6020820190508181035f83015261341c816133e3565b9050919050565b7f455243373231456e756d657261626c653a20676c6f62616c20696e646578206f5f8201527f7574206f6620626f756e64730000000000000000000000000000000000000000602082015250565b5f61347d602c83612a0e565b915061348882613423565b604082019050919050565b5f6020820190508181035f8301526134aa81613471565b9050919050565b7f4e487b71000000000000000000000000000000000000000000000000000000005f52603260045260245ffd5b7f4552433732313a20696e76616c696420746f6b656e20494400000000000000005f82015250565b5f613512601883612a0e565b915061351d826134de565b602082019050919050565b5f6020820190508181035f83015261353f81613506565b9050919050565b7f4552433732313a2061646472657373207a65726f206973206e6f7420612076615f8201527f6c6964206f776e65720000000000000000000000000000000000000000000000602082015250565b5f6135a0602983612a0e565b91506135ab82613546565b604082019050919050565b5f6020820190508181035f8301526135cd81613594565b9050919050565b5f81905092915050565b5f6135e882612a04565b6135f281856135d4565b9350613602818560208601612a1e565b80840191505092915050565b5f61361982846135de565b915081905092915050565b7f4f776e61626c653a206e6577206f776e657220697320746865207a65726f20615f8201527f6464726573730000000000000000000000000000000000000000000000000000602082015250565b5f61367e602683612a0e565b915061368982613624565b604082019050919050565b5f6020820190508181035f8301526136ab81613672565b9050919050565b7f4552433732313a207472616e736665722066726f6d20696e636f7272656374205f8201527f6f776e6572000000000000000000000000000000000000000000000000000000602082015250565b5f61370c602583612a0e565b9150613717826136b2565b604082019050919050565b5f6020820190508181035f83015261373981613700565b9050919050565b7f4552433732313a207472616e7366657220746f20746865207a65726f206164645f8201527f7265737300000000000000000000000000000000000000000000000000000000602082015250565b5f61379a602483612a0e565b91506137a582613740565b604082019050919050565b5f6020820190508181035f8301526137c78161378e565b9050919050565b7f4f776e61626c653a2063616c6c6572206973206e6f7420746865206f776e65725f82015250565b5f613802602083612a0e565b915061380d826137ce565b602082019050919050565b5f6020820190508181035f83015261382f816137f6565b9050919050565b7f4552433732313a20617070726f766520746f2063616c6c6572000000000000005f82015250565b5f61386a601983612a0e565b915061387582613836565b602082019050919050565b5f6020820190508181035f8301526138978161385e565b9050919050565b7f4552433732313a207472616e7366657220746f206e6f6e2045524337323152655f8201527f63656976657220696d706c656d656e7465720000000000000000000000000000602082015250565b5f6138f8603283612a0e565b91506139038261389e565b604082019050919050565b5f6020820190508181035f830152613925816138ec565b9050919050565b5f61393782856135de565b915061394382846135de565b91508190509392505050565b7f45524337323155524953746f726167653a2055524920736574206f66206e6f6e5f8201527f6578697374656e7420746f6b656e000000000000000000000000000000000000602082015250565b5f6139a9602e83612a0e565b91506139b48261394f565b604082019050919050565b5f6020820190508181035f8301526139d68161399d565b9050919050565b5f819050815f5260205f209050919050565b5f6020601f8301049050919050565b5f82821b905092915050565b5f60088302613a397fffffffffffffffffffffffffffffffffffffffffffffffffffffffffffffffff826139fe565b613a4386836139fe565b95508019841693508086168417925050509392505050565b5f819050919050565b5f613a7e613a79613a7484612aae565b613a5b565b612aae565b9050919050565b5f819050919050565b613a9783613a64565b613aab613aa382613a85565b848454613a0a565b825550505050565b5f90565b613abf613ab3565b613aca818484613a8e565b505050565b5b81811015613aed57613ae25f82613ab7565b600181019050613ad0565b5050565b601f821115613b3257613b03816139dd565b613b0c846139ef565b81016020851015613b1b578190505b613b2f613b27856139ef565b830182613acf565b50505b505050565b5f82821c905092915050565b5f613b525f1984600802613b37565b1980831691505092915050565b5f613b6a8383613b43565b9150826002028217905092915050565b613b8382612a04565b67ffffffffffffffff811115613b9c57613b9b612d44565b5b613ba68254613154565b613bb1828285613af1565b5f60209050601f831160018114613be2575f8415613bd0578287015190505b613bda8582613b5f565b865550613c41565b601f198416613bf0866139dd565b5f5b82811015613c1757848901518255600182019150602085019450602081019050613bf2565b86831015613c345784890151613c30601f891682613b43565b8355505b6001600288020188555050505b505050505050565b7f5061757361626c653a206e6f74207061757365640000000000000000000000005f82015250565b5f613c7d601483612a0e565b9150613c8882613c49565b602082019050919050565b5f6020820190508181035f830152613caa81613c71565b9050919050565b7f5061757361626c653a20706175736564000000000000000000000000000000005f82015250565b5f613ce5601083612a0e565b9150613cf082613cb1565b602082019050919050565b5f6020820190508181035f830152613d1281613cd9565b9050919050565b5f82825260208201905092915050565b5f613d338261332e565b613d3d8185613d19565b9350613d4d818560208601612a1e565b613d5681612a46565b840191505092915050565b5f608082019050613d745f830187612b3c565b613d816020830186612b3c565b613d8e6040830185612bcc565b8181036060830152613da08184613d29565b905095945050505050565b5f81519050613db98161297c565b92915050565b5f60208284031215613dd457613dd3612949565b5b5f613de184828501613dab565b91505092915050565b7f455243373231456e756d657261626c653a20636f6e73656375746976652074725f8201527f616e7366657273206e6f7420737570706f727465640000000000000000000000602082015250565b5f613e44603583612a0e565b9150613e4f82613dea565b604082019050919050565b5f6020820190508181035f830152613e7181613e38565b9050919050565b7f4e487b71000000000000000000000000000000000000000000000000000000005f52601260045260245ffd5b7f4552433732313a206d696e7420746f20746865207a65726f20616464726573735f82015250565b5f613ed9602083612a0e565b9150613ee482613ea5565b602082019050919050565b5f6020820190508181035f830152613f0681613ecd565b9050919050565b7f4552433732313a20746f6b656e20616c7265616479206d696e746564000000005f82015250565b5f613f41601c83612a0e565b9150613f4c82613f0d565b602082019050919050565b5f6020820190508181035f830152613f6e81613f35565b9050919050565b7f4e487b71000000000000000000000000000000000000000000000000000000005f52601160045260245ffd5b5f613fac82612aae565b9150613fb783612aae565b9250828203905081811115613fcf57613fce613f75565b5b92915050565b7f4e487b71000000000000000000000000000000000000000000000000000000005f52603160045260245ffdfea2646970667358221220fb8521791dedd760442de82953710b2f316e757e5e0fcf0ff3fd09edfa23ade964736f6c63430008140033",
			"opcodes": "PUSH1 0x80 PUSH1 0x40 MSTORE CALLVALUE DUP1 ISZERO PUSH3 0x10 JUMPI PUSH0 DUP1 REVERT JUMPDEST POP PUSH1 0x40 MLOAD PUSH3 0x4825 CODESIZE SUB DUP1 PUSH3 0x4825 DUP4 CODECOPY DUP2 DUP2 ADD PUSH1 0x40 MSTORE DUP2 ADD SWAP1 PUSH3 0x36 SWAP2 SWAP1 PUSH3 0x3B6 JUMP JUMPDEST DUP3 DUP3 DUP2 PUSH0 SWAP1 DUP2 PUSH3 0x48 SWAP2 SWAP1 PUSH3 0x6A3 JUMP JUMPDEST POP DUP1 PUSH1 0x1 SWAP1 DUP2 PUSH3 0x5A SWAP2 SWAP1 PUSH3 0x6A3 JUMP JUMPDEST POP POP POP PUSH0 PUSH1 0xB PUSH0 PUSH2 0x100 EXP DUP2 SLOAD DUP2 PUSH1 0xFF MUL NOT AND SWAP1 DUP4 ISZERO ISZERO MUL OR SWAP1 SSTORE POP PUSH3 0x96 PUSH3 0x8A PUSH3 0x109 PUSH1 0x20 SHL PUSH1 0x20 SHR JUMP JUMPDEST PUSH3 0x110 PUSH1 0x20 SHL PUSH1 0x20 SHR JUMP JUMPDEST DUP3 DUP3 PUSH3 0xB8 DUP3 PUSH1 0x40 MLOAD DUP1 PUSH1 0x20 ADD PUSH1 0x40 MSTORE DUP1 PUSH0 DUP2 MSTORE POP PUSH3 0x1D5 PUSH1 0x20 SHL PUSH1 0x20 SHR JUMP JUMPDEST ISZERO PUSH3 0xC2 JUMPI PUSH0 DUP1 REVERT JUMPDEST PUSH3 0xE2 DUP2 PUSH1 0x40 MLOAD DUP1 PUSH1 0x20 ADD PUSH1 0x40 MSTORE DUP1 PUSH0 DUP2 MSTORE POP PUSH3 0x1D5 PUSH1 0x20 SHL PUSH1 0x20 SHR JUMP JUMPDEST ISZERO PUSH3 0xEC JUMPI PUSH0 DUP1 REVERT JUMPDEST DUP3 PUSH1 0xD SWAP1 DUP2 PUSH3 0xFD SWAP2 SWAP1 PUSH3 0x6A3 JUMP JUMPDEST POP POP POP POP POP POP PUSH3 0x7DF JUMP JUMPDEST PUSH0 CALLER SWAP1 POP SWAP1 JUMP JUMPDEST PUSH0 PUSH1 0xB PUSH1 0x1 SWAP1 SLOAD SWAP1 PUSH2 0x100 EXP SWAP1 DIV PUSH20 0xFFFFFFFFFFFFFFFFFFFFFFFFFFFFFFFFFFFFFFFF AND SWAP1 POP DUP2 PUSH1 0xB PUSH1 0x1 PUSH2 0x100 EXP DUP2 SLOAD DUP2 PUSH20 0xFFFFFFFFFFFFFFFFFFFFFFFFFFFFFFFFFFFFFFFF MUL NOT AND SWAP1 DUP4 PUSH20 0xFFFFFFFFFFFFFFFFFFFFFFFFFFFFFFFFFFFFFFFF AND MUL OR SWAP1 SSTORE POP DUP2 PUSH20 0xFFFFFFFFFFFFFFFFFFFFFFFFFFFFFFFFFFFFFFFF AND DUP2 PUSH20 0xFFFFFFFFFFFFFFFFFFFFFFFFFFFFFFFFFFFFFFFF AND PUSH32 0x8BE0079C531659141344CD1FD0A4F28419497F9722A3DAAFE3B4186F6B6457E0 PUSH1 0x40 MLOAD PUSH1 0x40 MLOAD DUP1 SWAP2 SUB SWAP1 LOG3 POP POP JUMP JUMPDEST PUSH0 DUP2 PUSH1 0x40 MLOAD PUSH1 0x20 ADD PUSH3 0x1E9 SWAP2 SWAP1 PUSH3 0x7C7 JUMP JUMPDEST PUSH1 0x40 MLOAD PUSH1 0x20 DUP2 DUP4 SUB SUB DUP2 MSTORE SWAP1 PUSH1 0x40 MSTORE DUP1 MLOAD SWAP1 PUSH1 0x20 ADD KECCAK256 DUP4 PUSH1 0x40 MLOAD PUSH1 0x20 ADD PUSH3 0x212 SWAP2 SWAP1 PUSH3 0x7C7 JUMP JUMPDEST PUSH1 0x40 MLOAD PUSH1 0x20 DUP2 DUP4 SUB SUB DUP2 MSTORE SWAP1 PUSH1 0x40 MSTORE DUP1 MLOAD SWAP1 PUSH1 0x20 ADD KECCAK256 EQ SWAP1 POP SWAP3 SWAP2 POP POP JUMP JUMPDEST PUSH0 PUSH1 0x40 MLOAD SWAP1 POP SWAP1 JUMP JUMPDEST PUSH0 DUP1 REVERT JUMPDEST PUSH0 DUP1 REVERT JUMPDEST PUSH0 DUP1 REVERT JUMPDEST PUSH0 DUP1 REVERT JUMPDEST PUSH0 PUSH1 0x1F NOT PUSH1 0x1F DUP4 ADD AND SWAP1 POP SWAP2 SWAP1 POP JUMP JUMPDEST PUSH32 0x4E487B7100000000000000000000000000000000000000000000000000000000 PUSH0 MSTORE PUSH1 0x41 PUSH1 0x4 MSTORE PUSH1 0x24 PUSH0 REVERT JUMPDEST PUSH3 0x292 DUP3 PUSH3 0x24A JUMP JUMPDEST DUP2 ADD DUP2 DUP2 LT PUSH8 0xFFFFFFFFFFFFFFFF DUP3 GT OR ISZERO PUSH3 0x2B4 JUMPI PUSH3 0x2B3 PUSH3 0x25A JUMP JUMPDEST JUMPDEST DUP1 PUSH1 0x40 MSTORE POP POP POP JUMP JUMPDEST PUSH0 PUSH3 0x2C8 PUSH3 0x231 JUMP JUMPDEST SWAP1 POP PUSH3 0x2D6 DUP3 DUP3 PUSH3 0x287 JUMP JUMPDEST SWAP2 SWAP1 POP JUMP JUMPDEST PUSH0 PUSH8 0xFFFFFFFFFFFFFFFF DUP3 GT ISZERO PUSH3 0x2F8 JUMPI PUSH3 0x2F7 PUSH3 0x25A JUMP JUMPDEST JUMPDEST PUSH3 0x303 DUP3 PUSH3 0x24A JUMP JUMPDEST SWAP1 POP PUSH1 0x20 DUP2 ADD SWAP1 POP SWAP2 SWAP1 POP JUMP JUMPDEST PUSH0 JUMPDEST DUP4 DUP2 LT ISZERO PUSH3 0x32F JUMPI DUP1 DUP3 ADD MLOAD DUP2 DUP5 ADD MSTORE PUSH1 0x20 DUP2 ADD SWAP1 POP PUSH3 0x312 JUMP JUMPDEST PUSH0 DUP5 DUP5 ADD MSTORE POP POP POP POP JUMP JUMPDEST PUSH0 PUSH3 0x350 PUSH3 0x34A DUP5 PUSH3 0x2DB JUMP JUMPDEST PUSH3 0x2BD JUMP JUMPDEST SWAP1 POP DUP3 DUP2 MSTORE PUSH1 0x20 DUP2 ADD DUP5 DUP5 DUP5 ADD GT ISZERO PUSH3 0x36F JUMPI PUSH3 0x36E PUSH3 0x246 JUMP JUMPDEST JUMPDEST PUSH3 0x37C DUP5 DUP3 DUP6 PUSH3 0x310 JUMP JUMPDEST POP SWAP4 SWAP3 POP POP POP JUMP JUMPDEST PUSH0 DUP3 PUSH1 0x1F DUP4 ADD SLT PUSH3 0x39B JUMPI PUSH3 0x39A PUSH3 0x242 JUMP JUMPDEST JUMPDEST DUP2 MLOAD PUSH3 0x3AD DUP5 DUP3 PUSH1 0x20 DUP7 ADD PUSH3 0x33A JUMP JUMPDEST SWAP2 POP POP SWAP3 SWAP2 POP POP JUMP JUMPDEST PUSH0 DUP1 PUSH0 PUSH1 0x60 DUP5 DUP7 SUB SLT ISZERO PUSH3 0x3D0 JUMPI PUSH3 0x3CF PUSH3 0x23A JUMP JUMPDEST JUMPDEST PUSH0 DUP5 ADD MLOAD PUSH8 0xFFFFFFFFFFFFFFFF DUP2 GT ISZERO PUSH3 0x3F0 JUMPI PUSH3 0x3EF PUSH3 0x23E JUMP JUMPDEST JUMPDEST PUSH3 0x3FE DUP7 DUP3 DUP8 ADD PUSH3 0x384 JUMP JUMPDEST SWAP4 POP POP PUSH1 0x20 DUP5 ADD MLOAD PUSH8 0xFFFFFFFFFFFFFFFF DUP2 GT ISZERO PUSH3 0x422 JUMPI PUSH3 0x421 PUSH3 0x23E JUMP JUMPDEST JUMPDEST PUSH3 0x430 DUP7 DUP3 DUP8 ADD PUSH3 0x384 JUMP JUMPDEST SWAP3 POP POP PUSH1 0x40 DUP5 ADD MLOAD PUSH8 0xFFFFFFFFFFFFFFFF DUP2 GT ISZERO PUSH3 0x454 JUMPI PUSH3 0x453 PUSH3 0x23E JUMP JUMPDEST JUMPDEST PUSH3 0x462 DUP7 DUP3 DUP8 ADD PUSH3 0x384 JUMP JUMPDEST SWAP2 POP POP SWAP3 POP SWAP3 POP SWAP3 JUMP JUMPDEST PUSH0 DUP2 MLOAD SWAP1 POP SWAP2 SWAP1 POP JUMP JUMPDEST PUSH32 0x4E487B7100000000000000000000000000000000000000000000000000000000 PUSH0 MSTORE PUSH1 0x22 PUSH1 0x4 MSTORE PUSH1 0x24 PUSH0 REVERT JUMPDEST PUSH0 PUSH1 0x2 DUP3 DIV SWAP1 POP PUSH1 0x1 DUP3 AND DUP1 PUSH3 0x4BB JUMPI PUSH1 0x7F DUP3 AND SWAP2 POP JUMPDEST PUSH1 0x20 DUP3 LT DUP2 SUB PUSH3 0x4D1 JUMPI PUSH3 0x4D0 PUSH3 0x476 JUMP JUMPDEST JUMPDEST POP SWAP2 SWAP1 POP JUMP JUMPDEST PUSH0 DUP2 SWAP1 POP DUP2 PUSH0 MSTORE PUSH1 0x20 PUSH0 KECCAK256 SWAP1 POP SWAP2 SWAP1 POP JUMP JUMPDEST PUSH0 PUSH1 0x20 PUSH1 0x1F DUP4 ADD DIV SWAP1 POP SWAP2 SWAP1 POP JUMP JUMPDEST PUSH0 DUP3 DUP3 SHL SWAP1 POP SWAP3 SWAP2 POP POP JUMP JUMPDEST PUSH0 PUSH1 0x8 DUP4 MUL PUSH3 0x535 PUSH32 0xFFFFFFFFFFFFFFFFFFFFFFFFFFFFFFFFFFFFFFFFFFFFFFFFFFFFFFFFFFFFFFFF DUP3 PUSH3 0x4F8 JUMP JUMPDEST PUSH3 0x541 DUP7 DUP4 PUSH3 0x4F8 JUMP JUMPDEST SWAP6 POP DUP1 NOT DUP5 AND SWAP4 POP DUP1 DUP7 AND DUP5 OR SWAP3 POP POP POP SWAP4 SWAP3 POP POP POP JUMP JUMPDEST PUSH0 DUP2 SWAP1 POP SWAP2 SWAP1 POP JUMP JUMPDEST PUSH0 DUP2 SWAP1 POP SWAP2 SWAP1 POP JUMP JUMPDEST PUSH0 PUSH3 0x58B PUSH3 0x585 PUSH3 0x57F DUP5 PUSH3 0x559 JUMP JUMPDEST PUSH3 0x562 JUMP JUMPDEST PUSH3 0x559 JUMP JUMPDEST SWAP1 POP SWAP2 SWAP1 POP JUMP JUMPDEST PUSH0 DUP2 SWAP1 POP SWAP2 SWAP1 POP JUMP JUMPDEST PUSH3 0x5A6 DUP4 PUSH3 0x56B JUMP JUMPDEST PUSH3 0x5BE PUSH3 0x5B5 DUP3 PUSH3 0x592 JUMP JUMPDEST DUP5 DUP5 SLOAD PUSH3 0x504 JUMP JUMPDEST DUP3 SSTORE POP POP POP POP JUMP JUMPDEST PUSH0 SWAP1 JUMP JUMPDEST PUSH3 0x5D4 PUSH3 0x5C6 JUMP JUMPDEST PUSH3 0x5E1 DUP2 DUP5 DUP5 PUSH3 0x59B JUMP JUMPDEST POP POP POP JUMP JUMPDEST JUMPDEST DUP2 DUP2 LT ISZERO PUSH3 0x608 JUMPI PUSH3 0x5FC PUSH0 DUP3 PUSH3 0x5CA JUMP JUMPDEST PUSH1 0x1 DUP2 ADD SWAP1 POP PUSH3 0x5E7 JUMP JUMPDEST POP POP JUMP JUMPDEST PUSH1 0x1F DUP3 GT ISZERO PUSH3 0x657 JUMPI PUSH3 0x621 DUP2 PUSH3 0x4D7 JUMP JUMPDEST PUSH3 0x62C DUP5 PUSH3 0x4E9 JUMP JUMPDEST DUP2 ADD PUSH1 0x20 DUP6 LT ISZERO PUSH3 0x63C JUMPI DUP2 SWAP1 POP JUMPDEST PUSH3 0x654 PUSH3 0x64B DUP6 PUSH3 0x4E9 JUMP JUMPDEST DUP4 ADD DUP3 PUSH3 0x5E6 JUMP JUMPDEST POP POP JUMPDEST POP POP POP JUMP JUMPDEST PUSH0 DUP3 DUP3 SHR SWAP1 POP SWAP3 SWAP2 POP POP JUMP JUMPDEST PUSH0 PUSH3 0x679 PUSH0 NOT DUP5 PUSH1 0x8 MUL PUSH3 0x65C JUMP JUMPDEST NOT DUP1 DUP4 AND SWAP2 POP POP SWAP3 SWAP2 POP POP JUMP JUMPDEST PUSH0 PUSH3 0x693 DUP4 DUP4 PUSH3 0x668 JUMP JUMPDEST SWAP2 POP DUP3 PUSH1 0x2 MUL DUP3 OR SWAP1 POP SWAP3 SWAP2 POP POP JUMP JUMPDEST PUSH3 0x6AE DUP3 PUSH3 0x46C JUMP JUMPDEST PUSH8 0xFFFFFFFFFFFFFFFF DUP2 GT ISZERO PUSH3 0x6CA JUMPI PUSH3 0x6C9 PUSH3 0x25A JUMP JUMPDEST JUMPDEST PUSH3 0x6D6 DUP3 SLOAD PUSH3 0x4A3 JUMP JUMPDEST PUSH3 0x6E3 DUP3 DUP3 DUP6 PUSH3 0x60C JUMP JUMPDEST PUSH0 PUSH1 0x20 SWAP1 POP PUSH1 0x1F DUP4 GT PUSH1 0x1 DUP2 EQ PUSH3 0x719 JUMPI PUSH0 DUP5 ISZERO PUSH3 0x704 JUMPI DUP3 DUP8 ADD MLOAD SWAP1 POP JUMPDEST PUSH3 0x710 DUP6 DUP3 PUSH3 0x686 JUMP JUMPDEST DUP7 SSTORE POP PUSH3 0x77F JUMP JUMPDEST PUSH1 0x1F NOT DUP5 AND PUSH3 0x729 DUP7 PUSH3 0x4D7 JUMP JUMPDEST PUSH0 JUMPDEST DUP3 DUP2 LT ISZERO PUSH3 0x752 JUMPI DUP5 DUP10 ADD MLOAD DUP3 SSTORE PUSH1 0x1 DUP3 ADD SWAP2 POP PUSH1 0x20 DUP6 ADD SWAP5 POP PUSH1 0x20 DUP2 ADD SWAP1 POP PUSH3 0x72B JUMP JUMPDEST DUP7 DUP4 LT ISZERO PUSH3 0x772 JUMPI DUP5 DUP10 ADD MLOAD PUSH3 0x76E PUSH1 0x1F DUP10 AND DUP3 PUSH3 0x668 JUMP JUMPDEST DUP4 SSTORE POP JUMPDEST PUSH1 0x1 PUSH1 0x2 DUP9 MUL ADD DUP9 SSTORE POP POP POP JUMPDEST POP POP POP POP POP POP JUMP JUMPDEST PUSH0 DUP2 SWAP1 POP SWAP3 SWAP2 POP POP JUMP JUMPDEST PUSH0 PUSH3 0x79D DUP3 PUSH3 0x46C JUMP JUMPDEST PUSH3 0x7A9 DUP2 DUP6 PUSH3 0x787 JUMP JUMPDEST SWAP4 POP PUSH3 0x7BB DUP2 DUP6 PUSH1 0x20 DUP7 ADD PUSH3 0x310 JUMP JUMPDEST DUP1 DUP5 ADD SWAP2 POP POP SWAP3 SWAP2 POP POP JUMP JUMPDEST PUSH0 PUSH3 0x7D4 DUP3 DUP5 PUSH3 0x791 JUMP JUMPDEST SWAP2 POP DUP2 SWAP1 POP SWAP3 SWAP2 POP POP JUMP JUMPDEST PUSH2 0x4038 DUP1 PUSH3 0x7ED PUSH0 CODECOPY PUSH0 RETURN INVALID PUSH1 0x80 PUSH1 0x40 MSTORE CALLVALUE DUP1 ISZERO PUSH2 0xF JUMPI PUSH0 DUP1 REVERT JUMPDEST POP PUSH1 0x4 CALLDATASIZE LT PUSH2 0x1CD JUMPI PUSH0 CALLDATALOAD PUSH1 0xE0 SHR DUP1 PUSH4 0x5C975ABB GT PUSH2 0x102 JUMPI DUP1 PUSH4 0xA22CB465 GT PUSH2 0xA0 JUMPI DUP1 PUSH4 0xD13319C4 GT PUSH2 0x6F JUMPI DUP1 PUSH4 0xD13319C4 EQ PUSH2 0x519 JUMPI DUP1 PUSH4 0xD204C45E EQ PUSH2 0x537 JUMPI DUP1 PUSH4 0xE985E9C5 EQ PUSH2 0x553 JUMPI DUP1 PUSH4 0xF2FDE38B EQ PUSH2 0x583 JUMPI PUSH2 0x1CD JUMP JUMPDEST DUP1 PUSH4 0xA22CB465 EQ PUSH2 0x481 JUMPI DUP1 PUSH4 0xB88D4FDE EQ PUSH2 0x49D JUMPI DUP1 PUSH4 0xBED34BBA EQ PUSH2 0x4B9 JUMPI DUP1 PUSH4 0xC87B56DD EQ PUSH2 0x4E9 JUMPI PUSH2 0x1CD JUMP JUMPDEST DUP1 PUSH4 0x715018A6 GT PUSH2 0xDC JUMPI DUP1 PUSH4 0x715018A6 EQ PUSH2 0x431 JUMPI DUP1 PUSH4 0x8456CB59 EQ PUSH2 0x43B JUMPI DUP1 PUSH4 0x8DA5CB5B EQ PUSH2 0x445 JUMPI DUP1 PUSH4 0x95D89B41 EQ PUSH2 0x463 JUMPI PUSH2 0x1CD JUMP JUMPDEST DUP1 PUSH4 0x5C975ABB EQ PUSH2 0x3B3 JUMPI DUP1 PUSH4 0x6352211E EQ PUSH2 0x3D1 JUMPI DUP1 PUSH4 0x70A08231 EQ PUSH2 0x401 JUMPI PUSH2 0x1CD JUMP JUMPDEST DUP1 PUSH4 0x266001D3 GT PUSH2 0x16F JUMPI DUP1 PUSH4 0x3F4BA83A GT PUSH2 0x149 JUMPI DUP1 PUSH4 0x3F4BA83A EQ PUSH2 0x341 JUMPI DUP1 PUSH4 0x42842E0E EQ PUSH2 0x34B JUMPI DUP1 PUSH4 0x42966C68 EQ PUSH2 0x367 JUMPI DUP1 PUSH4 0x4F6CCCE7 EQ PUSH2 0x383 JUMPI PUSH2 0x1CD JUMP JUMPDEST DUP1 PUSH4 0x266001D3 EQ PUSH2 0x2C3 JUMPI DUP1 PUSH4 0x2F745C59 EQ PUSH2 0x2F3 JUMPI DUP1 PUSH4 0x38CC4831 EQ PUSH2 0x323 JUMPI PUSH2 0x1CD JUMP JUMPDEST DUP1 PUSH4 0x95EA7B3 GT PUSH2 0x1AB JUMPI DUP1 PUSH4 0x95EA7B3 EQ PUSH2 0x24F JUMPI DUP1 PUSH4 0x18160DDD EQ PUSH2 0x26B JUMPI DUP1 PUSH4 0x2384630A EQ PUSH2 0x289 JUMPI DUP1 PUSH4 0x23B872DD EQ PUSH2 0x2A7 JUMPI PUSH2 0x1CD JUMP JUMPDEST DUP1 PUSH4 0x1FFC9A7 EQ PUSH2 0x1D1 JUMPI DUP1 PUSH4 0x6FDDE03 EQ PUSH2 0x201 JUMPI DUP1 PUSH4 0x81812FC EQ PUSH2 0x21F JUMPI JUMPDEST PUSH0 DUP1 REVERT JUMPDEST PUSH2 0x1EB PUSH1 0x4 DUP1 CALLDATASIZE SUB DUP2 ADD SWAP1 PUSH2 0x1E6 SWAP2 SWAP1 PUSH2 0x29A6 JUMP JUMPDEST PUSH2 0x59F JUMP JUMPDEST PUSH1 0x40 MLOAD PUSH2 0x1F8 SWAP2 SWAP1 PUSH2 0x29EB JUMP JUMPDEST PUSH1 0x40 MLOAD DUP1 SWAP2 SUB SWAP1 RETURN JUMPDEST PUSH2 0x209 PUSH2 0x5B0 JUMP JUMPDEST PUSH1 0x40 MLOAD PUSH2 0x216 SWAP2 SWAP1 PUSH2 0x2A8E JUMP JUMPDEST PUSH1 0x40 MLOAD DUP1 SWAP2 SUB SWAP1 RETURN JUMPDEST PUSH2 0x239 PUSH1 0x4 DUP1 CALLDATASIZE SUB DUP2 ADD SWAP1 PUSH2 0x234 SWAP2 SWAP1 PUSH2 0x2AE1 JUMP JUMPDEST PUSH2 0x63F JUMP JUMPDEST PUSH1 0x40 MLOAD PUSH2 0x246 SWAP2 SWAP1 PUSH2 0x2B4B JUMP JUMPDEST PUSH1 0x40 MLOAD DUP1 SWAP2 SUB SWAP1 RETURN JUMPDEST PUSH2 0x269 PUSH1 0x4 DUP1 CALLDATASIZE SUB DUP2 ADD SWAP1 PUSH2 0x264 SWAP2 SWAP1 PUSH2 0x2B8E JUMP JUMPDEST PUSH2 0x681 JUMP JUMPDEST STOP JUMPDEST PUSH2 0x273 PUSH2 0x797 JUMP JUMPDEST PUSH1 0x40 MLOAD PUSH2 0x280 SWAP2 SWAP1 PUSH2 0x2BDB JUMP JUMPDEST PUSH1 0x40 MLOAD DUP1 SWAP2 SUB SWAP1 RETURN JUMPDEST PUSH2 0x291 PUSH2 0x7A3 JUMP JUMPDEST PUSH1 0x40 MLOAD PUSH2 0x29E SWAP2 SWAP1 PUSH2 0x2CCC JUMP JUMPDEST PUSH1 0x40 MLOAD DUP1 SWAP2 SUB SWAP1 RETURN JUMPDEST PUSH2 0x2C1 PUSH1 0x4 DUP1 CALLDATASIZE SUB DUP2 ADD SWAP1 PUSH2 0x2BC SWAP2 SWAP1 PUSH2 0x2CEC JUMP JUMPDEST PUSH2 0x801 JUMP JUMPDEST STOP JUMPDEST PUSH2 0x2DD PUSH1 0x4 DUP1 CALLDATASIZE SUB DUP2 ADD SWAP1 PUSH2 0x2D8 SWAP2 SWAP1 PUSH2 0x2E68 JUMP JUMPDEST PUSH2 0x861 JUMP JUMPDEST PUSH1 0x40 MLOAD PUSH2 0x2EA SWAP2 SWAP1 PUSH2 0x2A8E JUMP JUMPDEST PUSH1 0x40 MLOAD DUP1 SWAP2 SUB SWAP1 RETURN JUMPDEST PUSH2 0x30D PUSH1 0x4 DUP1 CALLDATASIZE SUB DUP2 ADD SWAP1 PUSH2 0x308 SWAP2 SWAP1 PUSH2 0x2B8E JUMP JUMPDEST PUSH2 0x88D JUMP JUMPDEST PUSH1 0x40 MLOAD PUSH2 0x31A SWAP2 SWAP1 PUSH2 0x2BDB JUMP JUMPDEST PUSH1 0x40 MLOAD DUP1 SWAP2 SUB SWAP1 RETURN JUMPDEST PUSH2 0x32B PUSH2 0x92D JUMP JUMPDEST PUSH1 0x40 MLOAD PUSH2 0x338 SWAP2 SWAP1 PUSH2 0x2B4B JUMP JUMPDEST PUSH1 0x40 MLOAD DUP1 SWAP2 SUB SWAP1 RETURN JUMPDEST PUSH2 0x349 PUSH2 0x934 JUMP JUMPDEST STOP JUMPDEST PUSH2 0x365 PUSH1 0x4 DUP1 CALLDATASIZE SUB DUP2 ADD SWAP1 PUSH2 0x360 SWAP2 SWAP1 PUSH2 0x2CEC JUMP JUMPDEST PUSH2 0x946 JUMP JUMPDEST STOP JUMPDEST PUSH2 0x381 PUSH1 0x4 DUP1 CALLDATASIZE SUB DUP2 ADD SWAP1 PUSH2 0x37C SWAP2 SWAP1 PUSH2 0x2AE1 JUMP JUMPDEST PUSH2 0x965 JUMP JUMPDEST STOP JUMPDEST PUSH2 0x39D PUSH1 0x4 DUP1 CALLDATASIZE SUB DUP2 ADD SWAP1 PUSH2 0x398 SWAP2 SWAP1 PUSH2 0x2AE1 JUMP JUMPDEST PUSH2 0x9C1 JUMP JUMPDEST PUSH1 0x40 MLOAD PUSH2 0x3AA SWAP2 SWAP1 PUSH2 0x2BDB JUMP JUMPDEST PUSH1 0x40 MLOAD DUP1 SWAP2 SUB SWAP1 RETURN JUMPDEST PUSH2 0x3BB PUSH2 0xA2F JUMP JUMPDEST PUSH1 0x40 MLOAD PUSH2 0x3C8 SWAP2 SWAP1 PUSH2 0x29EB JUMP JUMPDEST PUSH1 0x40 MLOAD DUP1 SWAP2 SUB SWAP1 RETURN JUMPDEST PUSH2 0x3EB PUSH1 0x4 DUP1 CALLDATASIZE SUB DUP2 ADD SWAP1 PUSH2 0x3E6 SWAP2 SWAP1 PUSH2 0x2AE1 JUMP JUMPDEST PUSH2 0xA44 JUMP JUMPDEST PUSH1 0x40 MLOAD PUSH2 0x3F8 SWAP2 SWAP1 PUSH2 0x2B4B JUMP JUMPDEST PUSH1 0x40 MLOAD DUP1 SWAP2 SUB SWAP1 RETURN JUMPDEST PUSH2 0x41B PUSH1 0x4 DUP1 CALLDATASIZE SUB DUP2 ADD SWAP1 PUSH2 0x416 SWAP2 SWAP1 PUSH2 0x2EDE JUMP JUMPDEST PUSH2 0xAC8 JUMP JUMPDEST PUSH1 0x40 MLOAD PUSH2 0x428 SWAP2 SWAP1 PUSH2 0x2BDB JUMP JUMPDEST PUSH1 0x40 MLOAD DUP1 SWAP2 SUB SWAP1 RETURN JUMPDEST PUSH2 0x439 PUSH2 0xB7C JUMP JUMPDEST STOP JUMPDEST PUSH2 0x443 PUSH2 0xB8F JUMP JUMPDEST STOP JUMPDEST PUSH2 0x44D PUSH2 0xBA1 JUMP JUMPDEST PUSH1 0x40 MLOAD PUSH2 0x45A SWAP2 SWAP1 PUSH2 0x2B4B JUMP JUMPDEST PUSH1 0x40 MLOAD DUP1 SWAP2 SUB SWAP1 RETURN JUMPDEST PUSH2 0x46B PUSH2 0xBCA JUMP JUMPDEST PUSH1 0x40 MLOAD PUSH2 0x478 SWAP2 SWAP1 PUSH2 0x2A8E JUMP JUMPDEST PUSH1 0x40 MLOAD DUP1 SWAP2 SUB SWAP1 RETURN JUMPDEST PUSH2 0x49B PUSH1 0x4 DUP1 CALLDATASIZE SUB DUP2 ADD SWAP1 PUSH2 0x496 SWAP2 SWAP1 PUSH2 0x2F33 JUMP JUMPDEST PUSH2 0xC5A JUMP JUMPDEST STOP JUMPDEST PUSH2 0x4B7 PUSH1 0x4 DUP1 CALLDATASIZE SUB DUP2 ADD SWAP1 PUSH2 0x4B2 SWAP2 SWAP1 PUSH2 0x300F JUMP JUMPDEST PUSH2 0xC70 JUMP JUMPDEST STOP JUMPDEST PUSH2 0x4D3 PUSH1 0x4 DUP1 CALLDATASIZE SUB DUP2 ADD SWAP1 PUSH2 0x4CE SWAP2 SWAP1 PUSH2 0x2E68 JUMP JUMPDEST PUSH2 0xCD2 JUMP JUMPDEST PUSH1 0x40 MLOAD PUSH2 0x4E0 SWAP2 SWAP1 PUSH2 0x29EB JUMP JUMPDEST PUSH1 0x40 MLOAD DUP1 SWAP2 SUB SWAP1 RETURN JUMPDEST PUSH2 0x503 PUSH1 0x4 DUP1 CALLDATASIZE SUB DUP2 ADD SWAP1 PUSH2 0x4FE SWAP2 SWAP1 PUSH2 0x2AE1 JUMP JUMPDEST PUSH2 0xD2A JUMP JUMPDEST PUSH1 0x40 MLOAD PUSH2 0x510 SWAP2 SWAP1 PUSH2 0x2A8E JUMP JUMPDEST PUSH1 0x40 MLOAD DUP1 SWAP2 SUB SWAP1 RETURN JUMPDEST PUSH2 0x521 PUSH2 0xD3C JUMP JUMPDEST PUSH1 0x40 MLOAD PUSH2 0x52E SWAP2 SWAP1 PUSH2 0x2A8E JUMP JUMPDEST PUSH1 0x40 MLOAD DUP1 SWAP2 SUB SWAP1 RETURN JUMPDEST PUSH2 0x551 PUSH1 0x4 DUP1 CALLDATASIZE SUB DUP2 ADD SWAP1 PUSH2 0x54C SWAP2 SWAP1 PUSH2 0x308F JUMP JUMPDEST PUSH2 0xDCC JUMP JUMPDEST STOP JUMPDEST PUSH2 0x56D PUSH1 0x4 DUP1 CALLDATASIZE SUB DUP2 ADD SWAP1 PUSH2 0x568 SWAP2 SWAP1 PUSH2 0x30E9 JUMP JUMPDEST PUSH2 0xE04 JUMP JUMPDEST PUSH1 0x40 MLOAD PUSH2 0x57A SWAP2 SWAP1 PUSH2 0x29EB JUMP JUMPDEST PUSH1 0x40 MLOAD DUP1 SWAP2 SUB SWAP1 RETURN JUMPDEST PUSH2 0x59D PUSH1 0x4 DUP1 CALLDATASIZE SUB DUP2 ADD SWAP1 PUSH2 0x598 SWAP2 SWAP1 PUSH2 0x2EDE JUMP JUMPDEST PUSH2 0xE92 JUMP JUMPDEST STOP JUMPDEST PUSH0 PUSH2 0x5A9 DUP3 PUSH2 0xF14 JUMP JUMPDEST SWAP1 POP SWAP2 SWAP1 POP JUMP JUMPDEST PUSH1 0x60 PUSH0 DUP1 SLOAD PUSH2 0x5BE SWAP1 PUSH2 0x3154 JUMP JUMPDEST DUP1 PUSH1 0x1F ADD PUSH1 0x20 DUP1 SWAP2 DIV MUL PUSH1 0x20 ADD PUSH1 0x40 MLOAD SWAP1 DUP2 ADD PUSH1 0x40 MSTORE DUP1 SWAP3 SWAP2 SWAP1 DUP2 DUP2 MSTORE PUSH1 0x20 ADD DUP3 DUP1 SLOAD PUSH2 0x5EA SWAP1 PUSH2 0x3154 JUMP JUMPDEST DUP1 ISZERO PUSH2 0x635 JUMPI DUP1 PUSH1 0x1F LT PUSH2 0x60C JUMPI PUSH2 0x100 DUP1 DUP4 SLOAD DIV MUL DUP4 MSTORE SWAP2 PUSH1 0x20 ADD SWAP2 PUSH2 0x635 JUMP JUMPDEST DUP3 ADD SWAP2 SWAP1 PUSH0 MSTORE PUSH1 0x20 PUSH0 KECCAK256 SWAP1 JUMPDEST DUP2 SLOAD DUP2 MSTORE SWAP1 PUSH1 0x1 ADD SWAP1 PUSH1 0x20 ADD DUP1 DUP4 GT PUSH2 0x618 JUMPI DUP3 SWAP1 SUB PUSH1 0x1F AND DUP3 ADD SWAP2 JUMPDEST POP POP POP POP POP SWAP1 POP SWAP1 JUMP JUMPDEST PUSH0 PUSH2 0x649 DUP3 PUSH2 0xF8D JUMP JUMPDEST PUSH1 0x4 PUSH0 DUP4 DUP2 MSTORE PUSH1 0x20 ADD SWAP1 DUP2 MSTORE PUSH1 0x20 ADD PUSH0 KECCAK256 PUSH0 SWAP1 SLOAD SWAP1 PUSH2 0x100 EXP SWAP1 DIV PUSH20 0xFFFFFFFFFFFFFFFFFFFFFFFFFFFFFFFFFFFFFFFF AND SWAP1 POP SWAP2 SWAP1 POP JUMP JUMPDEST PUSH0 PUSH2 0x68B DUP3 PUSH2 0xA44 JUMP JUMPDEST SWAP1 POP DUP1 PUSH20 0xFFFFFFFFFFFFFFFFFFFFFFFFFFFFFFFFFFFFFFFF AND DUP4 PUSH20 0xFFFFFFFFFFFFFFFFFFFFFFFFFFFFFFFFFFFFFFFF AND SUB PUSH2 0x6FB JUMPI PUSH1 0x40 MLOAD PUSH32 0x8C379A000000000000000000000000000000000000000000000000000000000 DUP2 MSTORE PUSH1 0x4 ADD PUSH2 0x6F2 SWAP1 PUSH2 0x31F4 JUMP JUMPDEST PUSH1 0x40 MLOAD DUP1 SWAP2 SUB SWAP1 REVERT JUMPDEST DUP1 PUSH20 0xFFFFFFFFFFFFFFFFFFFFFFFFFFFFFFFFFFFFFFFF AND PUSH2 0x71A PUSH2 0xFD8 JUMP JUMPDEST PUSH20 0xFFFFFFFFFFFFFFFFFFFFFFFFFFFFFFFFFFFFFFFF AND EQ DUP1 PUSH2 0x749 JUMPI POP PUSH2 0x748 DUP2 PUSH2 0x743 PUSH2 0xFD8 JUMP JUMPDEST PUSH2 0xE04 JUMP JUMPDEST JUMPDEST PUSH2 0x788 JUMPI PUSH1 0x40 MLOAD PUSH32 0x8C379A000000000000000000000000000000000000000000000000000000000 DUP2 MSTORE PUSH1 0x4 ADD PUSH2 0x77F SWAP1 PUSH2 0x3282 JUMP JUMPDEST PUSH1 0x40 MLOAD DUP1 SWAP2 SUB SWAP1 REVERT JUMPDEST PUSH2 0x792 DUP4 DUP4 PUSH2 0xFDF JUMP JUMPDEST POP POP POP JUMP JUMPDEST PUSH0 PUSH1 0x8 DUP1 SLOAD SWAP1 POP SWAP1 POP SWAP1 JUMP JUMPDEST PUSH2 0x7AB PUSH2 0x28BB JUMP JUMPDEST PUSH0 PUSH2 0x7B4 PUSH2 0xBA1 JUMP JUMPDEST SWAP1 POP PUSH1 0x40 MLOAD DUP1 PUSH1 0xA0 ADD PUSH1 0x40 MSTORE DUP1 PUSH2 0x7C9 PUSH2 0x5B0 JUMP JUMPDEST DUP2 MSTORE PUSH1 0x20 ADD PUSH2 0x7D6 PUSH2 0xBCA JUMP JUMPDEST DUP2 MSTORE PUSH1 0x20 ADD PUSH2 0x7E4 DUP4 PUSH2 0xAC8 JUMP JUMPDEST DUP2 MSTORE PUSH1 0x20 ADD PUSH2 0x7F2 PUSH0 PUSH2 0xD2A JUMP JUMPDEST DUP2 MSTORE PUSH1 0x20 ADD SELFBALANCE DUP2 MSTORE POP SWAP2 POP POP SWAP1 JUMP JUMPDEST PUSH2 0x812 PUSH2 0x80C PUSH2 0xFD8 JUMP JUMPDEST DUP3 PUSH2 0x1095 JUMP JUMPDEST PUSH2 0x851 JUMPI PUSH1 0x40 MLOAD PUSH32 0x8C379A000000000000000000000000000000000000000000000000000000000 DUP2 MSTORE PUSH1 0x4 ADD PUSH2 0x848 SWAP1 PUSH2 0x3310 JUMP JUMPDEST PUSH1 0x40 MLOAD DUP1 SWAP2 SUB SWAP1 REVERT JUMPDEST PUSH2 0x85C DUP4 DUP4 DUP4 PUSH2 0x1129 JUMP JUMPDEST POP POP POP JUMP JUMPDEST PUSH1 0x60 DUP3 DUP3 PUSH1 0x40 MLOAD PUSH1 0x20 ADD PUSH2 0x876 SWAP3 SWAP2 SWAP1 PUSH2 0x3372 JUMP JUMPDEST PUSH1 0x40 MLOAD PUSH1 0x20 DUP2 DUP4 SUB SUB DUP2 MSTORE SWAP1 PUSH1 0x40 MSTORE SWAP1 POP SWAP3 SWAP2 POP POP JUMP JUMPDEST PUSH0 PUSH2 0x897 DUP4 PUSH2 0xAC8 JUMP JUMPDEST DUP3 LT PUSH2 0x8D8 JUMPI PUSH1 0x40 MLOAD PUSH32 0x8C379A000000000000000000000000000000000000000000000000000000000 DUP2 MSTORE PUSH1 0x4 ADD PUSH2 0x8CF SWAP1 PUSH2 0x3405 JUMP JUMPDEST PUSH1 0x40 MLOAD DUP1 SWAP2 SUB SWAP1 REVERT JUMPDEST PUSH1 0x6 PUSH0 DUP5 PUSH20 0xFFFFFFFFFFFFFFFFFFFFFFFFFFFFFFFFFFFFFFFF AND PUSH20 0xFFFFFFFFFFFFFFFFFFFFFFFFFFFFFFFFFFFFFFFF AND DUP2 MSTORE PUSH1 0x20 ADD SWAP1 DUP2 MSTORE PUSH1 0x20 ADD PUSH0 KECCAK256 PUSH0 DUP4 DUP2 MSTORE PUSH1 0x20 ADD SWAP1 DUP2 MSTORE PUSH1 0x20 ADD PUSH0 KECCAK256 SLOAD SWAP1 POP SWAP3 SWAP2 POP POP JUMP JUMPDEST PUSH0 ADDRESS SWAP1 POP SWAP1 JUMP JUMPDEST PUSH2 0x93C PUSH2 0x1415 JUMP JUMPDEST PUSH2 0x944 PUSH2 0x1493 JUMP JUMPDEST JUMP JUMPDEST PUSH2 0x960 DUP4 DUP4 DUP4 PUSH1 0x40 MLOAD DUP1 PUSH1 0x20 ADD PUSH1 0x40 MSTORE DUP1 PUSH0 DUP2 MSTORE POP PUSH2 0xC70 JUMP JUMPDEST POP POP POP JUMP JUMPDEST PUSH2 0x976 PUSH2 0x970 PUSH2 0xFD8 JUMP JUMPDEST DUP3 PUSH2 0x1095 JUMP JUMPDEST PUSH2 0x9B5 JUMPI PUSH1 0x40 MLOAD PUSH32 0x8C379A000000000000000000000000000000000000000000000000000000000 DUP2 MSTORE PUSH1 0x4 ADD PUSH2 0x9AC SWAP1 PUSH2 0x3310 JUMP JUMPDEST PUSH1 0x40 MLOAD DUP1 SWAP2 SUB SWAP1 REVERT JUMPDEST PUSH2 0x9BE DUP2 PUSH2 0x14F4 JUMP JUMPDEST POP JUMP JUMPDEST PUSH0 PUSH2 0x9CA PUSH2 0x797 JUMP JUMPDEST DUP3 LT PUSH2 0xA0B JUMPI PUSH1 0x40 MLOAD PUSH32 0x8C379A000000000000000000000000000000000000000000000000000000000 DUP2 MSTORE PUSH1 0x4 ADD PUSH2 0xA02 SWAP1 PUSH2 0x3493 JUMP JUMPDEST PUSH1 0x40 MLOAD DUP1 SWAP2 SUB SWAP1 REVERT JUMPDEST PUSH1 0x8 DUP3 DUP2 SLOAD DUP2 LT PUSH2 0xA1F JUMPI PUSH2 0xA1E PUSH2 0x34B1 JUMP JUMPDEST JUMPDEST SWAP1 PUSH0 MSTORE PUSH1 0x20 PUSH0 KECCAK256 ADD SLOAD SWAP1 POP SWAP2 SWAP1 POP JUMP JUMPDEST PUSH0 PUSH1 0xB PUSH0 SWAP1 SLOAD SWAP1 PUSH2 0x100 EXP SWAP1 DIV PUSH1 0xFF AND SWAP1 POP SWAP1 JUMP JUMPDEST PUSH0 DUP1 PUSH2 0xA4F DUP4 PUSH2 0x1500 JUMP JUMPDEST SWAP1 POP PUSH0 PUSH20 0xFFFFFFFFFFFFFFFFFFFFFFFFFFFFFFFFFFFFFFFF AND DUP2 PUSH20 0xFFFFFFFFFFFFFFFFFFFFFFFFFFFFFFFFFFFFFFFF AND SUB PUSH2 0xABF JUMPI PUSH1 0x40 MLOAD PUSH32 0x8C379A000000000000000000000000000000000000000000000000000000000 DUP2 MSTORE PUSH1 0x4 ADD PUSH2 0xAB6 SWAP1 PUSH2 0x3528 JUMP JUMPDEST PUSH1 0x40 MLOAD DUP1 SWAP2 SUB SWAP1 REVERT JUMPDEST DUP1 SWAP2 POP POP SWAP2 SWAP1 POP JUMP JUMPDEST PUSH0 DUP1 PUSH20 0xFFFFFFFFFFFFFFFFFFFFFFFFFFFFFFFFFFFFFFFF AND DUP3 PUSH20 0xFFFFFFFFFFFFFFFFFFFFFFFFFFFFFFFFFFFFFFFF AND SUB PUSH2 0xB37 JUMPI PUSH1 0x40 MLOAD PUSH32 0x8C379A000000000000000000000000000000000000000000000000000000000 DUP2 MSTORE PUSH1 0x4 ADD PUSH2 0xB2E SWAP1 PUSH2 0x35B6 JUMP JUMPDEST PUSH1 0x40 MLOAD DUP1 SWAP2 SUB SWAP1 REVERT JUMPDEST PUSH1 0x3 PUSH0 DUP4 PUSH20 0xFFFFFFFFFFFFFFFFFFFFFFFFFFFFFFFFFFFFFFFF AND PUSH20 0xFFFFFFFFFFFFFFFFFFFFFFFFFFFFFFFFFFFFFFFF AND DUP2 MSTORE PUSH1 0x20 ADD SWAP1 DUP2 MSTORE PUSH1 0x20 ADD PUSH0 KECCAK256 SLOAD SWAP1 POP SWAP2 SWAP1 POP JUMP JUMPDEST PUSH2 0xB84 PUSH2 0x1415 JUMP JUMPDEST PUSH2 0xB8D PUSH0 PUSH2 0x1539 JUMP JUMPDEST JUMP JUMPDEST PUSH2 0xB97 PUSH2 0x1415 JUMP JUMPDEST PUSH2 0xB9F PUSH2 0x15FE JUMP JUMPDEST JUMP JUMPDEST PUSH0 PUSH1 0xB PUSH1 0x1 SWAP1 SLOAD SWAP1 PUSH2 0x100 EXP SWAP1 DIV PUSH20 0xFFFFFFFFFFFFFFFFFFFFFFFFFFFFFFFFFFFFFFFF AND SWAP1 POP SWAP1 JUMP JUMPDEST PUSH1 0x60 PUSH1 0x1 DUP1 SLOAD PUSH2 0xBD9 SWAP1 PUSH2 0x3154 JUMP JUMPDEST DUP1 PUSH1 0x1F ADD PUSH1 0x20 DUP1 SWAP2 DIV MUL PUSH1 0x20 ADD PUSH1 0x40 MLOAD SWAP1 DUP2 ADD PUSH1 0x40 MSTORE DUP1 SWAP3 SWAP2 SWAP1 DUP2 DUP2 MSTORE PUSH1 0x20 ADD DUP3 DUP1 SLOAD PUSH2 0xC05 SWAP1 PUSH2 0x3154 JUMP JUMPDEST DUP1 ISZERO PUSH2 0xC50 JUMPI DUP1 PUSH1 0x1F LT PUSH2 0xC27 JUMPI PUSH2 0x100 DUP1 DUP4 SLOAD DIV MUL DUP4 MSTORE SWAP2 PUSH1 0x20 ADD SWAP2 PUSH2 0xC50 JUMP JUMPDEST DUP3 ADD SWAP2 SWAP1 PUSH0 MSTORE PUSH1 0x20 PUSH0 KECCAK256 SWAP1 JUMPDEST DUP2 SLOAD DUP2 MSTORE SWAP1 PUSH1 0x1 ADD SWAP1 PUSH1 0x20 ADD DUP1 DUP4 GT PUSH2 0xC33 JUMPI DUP3 SWAP1 SUB PUSH1 0x1F AND DUP3 ADD SWAP2 JUMPDEST POP POP POP POP POP SWAP1 POP SWAP1 JUMP JUMPDEST PUSH2 0xC6C PUSH2 0xC65 PUSH2 0xFD8 JUMP JUMPDEST DUP4 DUP4 PUSH2 0x1660 JUMP JUMPDEST POP POP JUMP JUMPDEST PUSH2 0xC81 PUSH2 0xC7B PUSH2 0xFD8 JUMP JUMPDEST DUP4 PUSH2 0x1095 JUMP JUMPDEST PUSH2 0xCC0 JUMPI PUSH1 0x40 MLOAD PUSH32 0x8C379A000000000000000000000000000000000000000000000000000000000 DUP2 MSTORE PUSH1 0x4 ADD PUSH2 0xCB7 SWAP1 PUSH2 0x3310 JUMP JUMPDEST PUSH1 0x40 MLOAD DUP1 SWAP2 SUB SWAP1 REVERT JUMPDEST PUSH2 0xCCC DUP5 DUP5 DUP5 DUP5 PUSH2 0x17C7 JUMP JUMPDEST POP POP POP POP JUMP JUMPDEST PUSH0 DUP2 PUSH1 0x40 MLOAD PUSH1 0x20 ADD PUSH2 0xCE4 SWAP2 SWAP1 PUSH2 0x360E JUMP JUMPDEST PUSH1 0x40 MLOAD PUSH1 0x20 DUP2 DUP4 SUB SUB DUP2 MSTORE SWAP1 PUSH1 0x40 MSTORE DUP1 MLOAD SWAP1 PUSH1 0x20 ADD KECCAK256 DUP4 PUSH1 0x40 MLOAD PUSH1 0x20 ADD PUSH2 0xD0B SWAP2 SWAP1 PUSH2 0x360E JUMP JUMPDEST PUSH1 0x40 MLOAD PUSH1 0x20 DUP2 DUP4 SUB SUB DUP2 MSTORE SWAP1 PUSH1 0x40 MSTORE DUP1 MLOAD SWAP1 PUSH1 0x20 ADD KECCAK256 EQ SWAP1 POP SWAP3 SWAP2 POP POP JUMP JUMPDEST PUSH1 0x60 PUSH2 0xD35 DUP3 PUSH2 0x1823 JUMP JUMPDEST SWAP1 POP SWAP2 SWAP1 POP JUMP JUMPDEST PUSH1 0x60 PUSH1 0xD DUP1 SLOAD PUSH2 0xD4B SWAP1 PUSH2 0x3154 JUMP JUMPDEST DUP1 PUSH1 0x1F ADD PUSH1 0x20 DUP1 SWAP2 DIV MUL PUSH1 0x20 ADD PUSH1 0x40 MLOAD SWAP1 DUP2 ADD PUSH1 0x40 MSTORE DUP1 SWAP3 SWAP2 SWAP1 DUP2 DUP2 MSTORE PUSH1 0x20 ADD DUP3 DUP1 SLOAD PUSH2 0xD77 SWAP1 PUSH2 0x3154 JUMP JUMPDEST DUP1 ISZERO PUSH2 0xDC2 JUMPI DUP1 PUSH1 0x1F LT PUSH2 0xD99 JUMPI PUSH2 0x100 DUP1 DUP4 SLOAD DIV MUL DUP4 MSTORE SWAP2 PUSH1 0x20 ADD SWAP2 PUSH2 0xDC2 JUMP JUMPDEST DUP3 ADD SWAP2 SWAP1 PUSH0 MSTORE PUSH1 0x20 PUSH0 KECCAK256 SWAP1 JUMPDEST DUP2 SLOAD DUP2 MSTORE SWAP1 PUSH1 0x1 ADD SWAP1 PUSH1 0x20 ADD DUP1 DUP4 GT PUSH2 0xDA5 JUMPI DUP3 SWAP1 SUB PUSH1 0x1F AND DUP3 ADD SWAP2 JUMPDEST POP POP POP POP POP SWAP1 POP SWAP1 JUMP JUMPDEST PUSH2 0xDD4 PUSH2 0x1415 JUMP JUMPDEST PUSH0 PUSH2 0xDDF PUSH1 0xC PUSH2 0x192D JUMP JUMPDEST SWAP1 POP PUSH2 0xDEB PUSH1 0xC PUSH2 0x1939 JUMP JUMPDEST PUSH2 0xDF5 DUP4 DUP3 PUSH2 0x194D JUMP JUMPDEST PUSH2 0xDFF DUP2 DUP4 PUSH2 0x196A JUMP JUMPDEST POP POP POP JUMP JUMPDEST PUSH0 PUSH1 0x5 PUSH0 DUP5 PUSH20 0xFFFFFFFFFFFFFFFFFFFFFFFFFFFFFFFFFFFFFFFF AND PUSH20 0xFFFFFFFFFFFFFFFFFFFFFFFFFFFFFFFFFFFFFFFF AND DUP2 MSTORE PUSH1 0x20 ADD SWAP1 DUP2 MSTORE PUSH1 0x20 ADD PUSH0 KECCAK256 PUSH0 DUP4 PUSH20 0xFFFFFFFFFFFFFFFFFFFFFFFFFFFFFFFFFFFFFFFF AND PUSH20 0xFFFFFFFFFFFFFFFFFFFFFFFFFFFFFFFFFFFFFFFF AND DUP2 MSTORE PUSH1 0x20 ADD SWAP1 DUP2 MSTORE PUSH1 0x20 ADD PUSH0 KECCAK256 PUSH0 SWAP1 SLOAD SWAP1 PUSH2 0x100 EXP SWAP1 DIV PUSH1 0xFF AND SWAP1 POP SWAP3 SWAP2 POP POP JUMP JUMPDEST PUSH2 0xE9A PUSH2 0x1415 JUMP JUMPDEST PUSH0 PUSH20 0xFFFFFFFFFFFFFFFFFFFFFFFFFFFFFFFFFFFFFFFF AND DUP2 PUSH20 0xFFFFFFFFFFFFFFFFFFFFFFFFFFFFFFFFFFFFFFFF AND SUB PUSH2 0xF08 JUMPI PUSH1 0x40 MLOAD PUSH32 0x8C379A000000000000000000000000000000000000000000000000000000000 DUP2 MSTORE PUSH1 0x4 ADD PUSH2 0xEFF SWAP1 PUSH2 0x3694 JUMP JUMPDEST PUSH1 0x40 MLOAD DUP1 SWAP2 SUB SWAP1 REVERT JUMPDEST PUSH2 0xF11 DUP2 PUSH2 0x1539 JUMP JUMPDEST POP JUMP JUMPDEST PUSH0 PUSH32 0x780E9D6300000000000000000000000000000000000000000000000000000000 PUSH28 0xFFFFFFFFFFFFFFFFFFFFFFFFFFFFFFFFFFFFFFFFFFFFFFFFFFFFFFFF NOT AND DUP3 PUSH28 0xFFFFFFFFFFFFFFFFFFFFFFFFFFFFFFFFFFFFFFFFFFFFFFFFFFFFFFFF NOT AND EQ DUP1 PUSH2 0xF86 JUMPI POP PUSH2 0xF85 DUP3 PUSH2 0x19D5 JUMP JUMPDEST JUMPDEST SWAP1 POP SWAP2 SWAP1 POP JUMP JUMPDEST PUSH2 0xF96 DUP2 PUSH2 0x1AB6 JUMP JUMPDEST PUSH2 0xFD5 JUMPI PUSH1 0x40 MLOAD PUSH32 0x8C379A000000000000000000000000000000000000000000000000000000000 DUP2 MSTORE PUSH1 0x4 ADD PUSH2 0xFCC SWAP1 PUSH2 0x3528 JUMP JUMPDEST PUSH1 0x40 MLOAD DUP1 SWAP2 SUB SWAP1 REVERT JUMPDEST POP JUMP JUMPDEST PUSH0 CALLER SWAP1 POP SWAP1 JUMP JUMPDEST DUP2 PUSH1 0x4 PUSH0 DUP4 DUP2 MSTORE PUSH1 0x20 ADD SWAP1 DUP2 MSTORE PUSH1 0x20 ADD PUSH0 KECCAK256 PUSH0 PUSH2 0x100 EXP DUP2 SLOAD DUP2 PUSH20 0xFFFFFFFFFFFFFFFFFFFFFFFFFFFFFFFFFFFFFFFF MUL NOT AND SWAP1 DUP4 PUSH20 0xFFFFFFFFFFFFFFFFFFFFFFFFFFFFFFFFFFFFFFFF AND MUL OR SWAP1 SSTORE POP DUP1 DUP3 PUSH20 0xFFFFFFFFFFFFFFFFFFFFFFFFFFFFFFFFFFFFFFFF AND PUSH2 0x104F DUP4 PUSH2 0xA44 JUMP JUMPDEST PUSH20 0xFFFFFFFFFFFFFFFFFFFFFFFFFFFFFFFFFFFFFFFF AND PUSH32 0x8C5BE1E5EBEC7D5BD14F71427D1E84F3DD0314C0F7B2291E5B200AC8C7C3B925 PUSH1 0x40 MLOAD PUSH1 0x40 MLOAD DUP1 SWAP2 SUB SWAP1 LOG4 POP POP JUMP JUMPDEST PUSH0 DUP1 PUSH2 0x10A0 DUP4 PUSH2 0xA44 JUMP JUMPDEST SWAP1 POP DUP1 PUSH20 0xFFFFFFFFFFFFFFFFFFFFFFFFFFFFFFFFFFFFFFFF AND DUP5 PUSH20 0xFFFFFFFFFFFFFFFFFFFFFFFFFFFFFFFFFFFFFFFF AND EQ DUP1 PUSH2 0x10E2 JUMPI POP PUSH2 0x10E1 DUP2 DUP6 PUSH2 0xE04 JUMP JUMPDEST JUMPDEST DUP1 PUSH2 0x1120 JUMPI POP DUP4 PUSH20 0xFFFFFFFFFFFFFFFFFFFFFFFFFFFFFFFFFFFFFFFF AND PUSH2 0x1108 DUP5 PUSH2 0x63F JUMP JUMPDEST PUSH20 0xFFFFFFFFFFFFFFFFFFFFFFFFFFFFFFFFFFFFFFFF AND EQ JUMPDEST SWAP2 POP POP SWAP3 SWAP2 POP POP JUMP JUMPDEST DUP3 PUSH20 0xFFFFFFFFFFFFFFFFFFFFFFFFFFFFFFFFFFFFFFFF AND PUSH2 0x1149 DUP3 PUSH2 0xA44 JUMP JUMPDEST PUSH20 0xFFFFFFFFFFFFFFFFFFFFFFFFFFFFFFFFFFFFFFFF AND EQ PUSH2 0x119F JUMPI PUSH1 0x40 MLOAD PUSH32 0x8C379A000000000000000000000000000000000000000000000000000000000 DUP2 MSTORE PUSH1 0x4 ADD PUSH2 0x1196 SWAP1 PUSH2 0x3722 JUMP JUMPDEST PUSH1 0x40 MLOAD DUP1 SWAP2 SUB SWAP1 REVERT JUMPDEST PUSH0 PUSH20 0xFFFFFFFFFFFFFFFFFFFFFFFFFFFFFFFFFFFFFFFF AND DUP3 PUSH20 0xFFFFFFFFFFFFFFFFFFFFFFFFFFFFFFFFFFFFFFFF AND SUB PUSH2 0x120D JUMPI PUSH1 0x40 MLOAD PUSH32 0x8C379A000000000000000000000000000000000000000000000000000000000 DUP2 MSTORE PUSH1 0x4 ADD PUSH2 0x1204 SWAP1 PUSH2 0x37B0 JUMP JUMPDEST PUSH1 0x40 MLOAD DUP1 SWAP2 SUB SWAP1 REVERT JUMPDEST PUSH2 0x121A DUP4 DUP4 DUP4 PUSH1 0x1 PUSH2 0x1AF6 JUMP JUMPDEST DUP3 PUSH20 0xFFFFFFFFFFFFFFFFFFFFFFFFFFFFFFFFFFFFFFFF AND PUSH2 0x123A DUP3 PUSH2 0xA44 JUMP JUMPDEST PUSH20 0xFFFFFFFFFFFFFFFFFFFFFFFFFFFFFFFFFFFFFFFF AND EQ PUSH2 0x1290 JUMPI PUSH1 0x40 MLOAD PUSH32 0x8C379A000000000000000000000000000000000000000000000000000000000 DUP2 MSTORE PUSH1 0x4 ADD PUSH2 0x1287 SWAP1 PUSH2 0x3722 JUMP JUMPDEST PUSH1 0x40 MLOAD DUP1 SWAP2 SUB SWAP1 REVERT JUMPDEST PUSH1 0x4 PUSH0 DUP3 DUP2 MSTORE PUSH1 0x20 ADD SWAP1 DUP2 MSTORE PUSH1 0x20 ADD PUSH0 KECCAK256 PUSH0 PUSH2 0x100 EXP DUP2 SLOAD SWAP1 PUSH20 0xFFFFFFFFFFFFFFFFFFFFFFFFFFFFFFFFFFFFFFFF MUL NOT AND SWAP1 SSTORE PUSH1 0x1 PUSH1 0x3 PUSH0 DUP6 PUSH20 0xFFFFFFFFFFFFFFFFFFFFFFFFFFFFFFFFFFFFFFFF AND PUSH20 0xFFFFFFFFFFFFFFFFFFFFFFFFFFFFFFFFFFFFFFFF AND DUP2 MSTORE PUSH1 0x20 ADD SWAP1 DUP2 MSTORE PUSH1 0x20 ADD PUSH0 KECCAK256 PUSH0 DUP3 DUP3 SLOAD SUB SWAP3 POP POP DUP2 SWAP1 SSTORE POP PUSH1 0x1 PUSH1 0x3 PUSH0 DUP5 PUSH20 0xFFFFFFFFFFFFFFFFFFFFFFFFFFFFFFFFFFFFFFFF AND PUSH20 0xFFFFFFFFFFFFFFFFFFFFFFFFFFFFFFFFFFFFFFFF AND DUP2 MSTORE PUSH1 0x20 ADD SWAP1 DUP2 MSTORE PUSH1 0x20 ADD PUSH0 KECCAK256 PUSH0 DUP3 DUP3 SLOAD ADD SWAP3 POP POP DUP2 SWAP1 SSTORE POP DUP2 PUSH1 0x2 PUSH0 DUP4 DUP2 MSTORE PUSH1 0x20 ADD SWAP1 DUP2 MSTORE PUSH1 0x20 ADD PUSH0 KECCAK256 PUSH0 PUSH2 0x100 EXP DUP2 SLOAD DUP2 PUSH20 0xFFFFFFFFFFFFFFFFFFFFFFFFFFFFFFFFFFFFFFFF MUL NOT AND SWAP1 DUP4 PUSH20 0xFFFFFFFFFFFFFFFFFFFFFFFFFFFFFFFFFFFFFFFF AND MUL OR SWAP1 SSTORE POP DUP1 DUP3 PUSH20 0xFFFFFFFFFFFFFFFFFFFFFFFFFFFFFFFFFFFFFFFF AND DUP5 PUSH20 0xFFFFFFFFFFFFFFFFFFFFFFFFFFFFFFFFFFFFFFFF AND PUSH32 0xDDF252AD1BE2C89B69C2B068FC378DAA952BA7F163C4A11628F55A4DF523B3EF PUSH1 0x40 MLOAD PUSH1 0x40 MLOAD DUP1 SWAP2 SUB SWAP1 LOG4 PUSH2 0x1410 DUP4 DUP4 DUP4 PUSH1 0x1 PUSH2 0x1B10 JUMP JUMPDEST POP POP POP JUMP JUMPDEST PUSH2 0x141D PUSH2 0xFD8 JUMP JUMPDEST PUSH20 0xFFFFFFFFFFFFFFFFFFFFFFFFFFFFFFFFFFFFFFFF AND PUSH2 0x143B PUSH2 0xBA1 JUMP JUMPDEST PUSH20 0xFFFFFFFFFFFFFFFFFFFFFFFFFFFFFFFFFFFFFFFF AND EQ PUSH2 0x1491 JUMPI PUSH1 0x40 MLOAD PUSH32 0x8C379A000000000000000000000000000000000000000000000000000000000 DUP2 MSTORE PUSH1 0x4 ADD PUSH2 0x1488 SWAP1 PUSH2 0x3818 JUMP JUMPDEST PUSH1 0x40 MLOAD DUP1 SWAP2 SUB SWAP1 REVERT JUMPDEST JUMP JUMPDEST PUSH2 0x149B PUSH2 0x1B16 JUMP JUMPDEST PUSH0 PUSH1 0xB PUSH0 PUSH2 0x100 EXP DUP2 SLOAD DUP2 PUSH1 0xFF MUL NOT AND SWAP1 DUP4 ISZERO ISZERO MUL OR SWAP1 SSTORE POP PUSH32 0x5DB9EE0A495BF2E6FF9C91A7834C1BA4FDD244A5E8AA4E537BD38AEAE4B073AA PUSH2 0x14DD PUSH2 0xFD8 JUMP JUMPDEST PUSH1 0x40 MLOAD PUSH2 0x14EA SWAP2 SWAP1 PUSH2 0x2B4B JUMP JUMPDEST PUSH1 0x40 MLOAD DUP1 SWAP2 SUB SWAP1 LOG1 JUMP JUMPDEST PUSH2 0x14FD DUP2 PUSH2 0x1B5F JUMP JUMPDEST POP JUMP JUMPDEST PUSH0 PUSH1 0x2 PUSH0 DUP4 DUP2 MSTORE PUSH1 0x20 ADD SWAP1 DUP2 MSTORE PUSH1 0x20 ADD PUSH0 KECCAK256 PUSH0 SWAP1 SLOAD SWAP1 PUSH2 0x100 EXP SWAP1 DIV PUSH20 0xFFFFFFFFFFFFFFFFFFFFFFFFFFFFFFFFFFFFFFFF AND SWAP1 POP SWAP2 SWAP1 POP JUMP JUMPDEST PUSH0 PUSH1 0xB PUSH1 0x1 SWAP1 SLOAD SWAP1 PUSH2 0x100 EXP SWAP1 DIV PUSH20 0xFFFFFFFFFFFFFFFFFFFFFFFFFFFFFFFFFFFFFFFF AND SWAP1 POP DUP2 PUSH1 0xB PUSH1 0x1 PUSH2 0x100 EXP DUP2 SLOAD DUP2 PUSH20 0xFFFFFFFFFFFFFFFFFFFFFFFFFFFFFFFFFFFFFFFF MUL NOT AND SWAP1 DUP4 PUSH20 0xFFFFFFFFFFFFFFFFFFFFFFFFFFFFFFFFFFFFFFFF AND MUL OR SWAP1 SSTORE POP DUP2 PUSH20 0xFFFFFFFFFFFFFFFFFFFFFFFFFFFFFFFFFFFFFFFF AND DUP2 PUSH20 0xFFFFFFFFFFFFFFFFFFFFFFFFFFFFFFFFFFFFFFFF AND PUSH32 0x8BE0079C531659141344CD1FD0A4F28419497F9722A3DAAFE3B4186F6B6457E0 PUSH1 0x40 MLOAD PUSH1 0x40 MLOAD DUP1 SWAP2 SUB SWAP1 LOG3 POP POP JUMP JUMPDEST PUSH2 0x1606 PUSH2 0x1BAC JUMP JUMPDEST PUSH1 0x1 PUSH1 0xB PUSH0 PUSH2 0x100 EXP DUP2 SLOAD DUP2 PUSH1 0xFF MUL NOT AND SWAP1 DUP4 ISZERO ISZERO MUL OR SWAP1 SSTORE POP PUSH32 0x62E78CEA01BEE320CD4E420270B5EA74000D11B0C9F74754EBDBFC544B05A258 PUSH2 0x1649 PUSH2 0xFD8 JUMP JUMPDEST PUSH1 0x40 MLOAD PUSH2 0x1656 SWAP2 SWAP1 PUSH2 0x2B4B JUMP JUMPDEST PUSH1 0x40 MLOAD DUP1 SWAP2 SUB SWAP1 LOG1 JUMP JUMPDEST DUP2 PUSH20 0xFFFFFFFFFFFFFFFFFFFFFFFFFFFFFFFFFFFFFFFF AND DUP4 PUSH20 0xFFFFFFFFFFFFFFFFFFFFFFFFFFFFFFFFFFFFFFFF AND SUB PUSH2 0x16CE JUMPI PUSH1 0x40 MLOAD PUSH32 0x8C379A000000000000000000000000000000000000000000000000000000000 DUP2 MSTORE PUSH1 0x4 ADD PUSH2 0x16C5 SWAP1 PUSH2 0x3880 JUMP JUMPDEST PUSH1 0x40 MLOAD DUP1 SWAP2 SUB SWAP1 REVERT JUMPDEST DUP1 PUSH1 0x5 PUSH0 DUP6 PUSH20 0xFFFFFFFFFFFFFFFFFFFFFFFFFFFFFFFFFFFFFFFF AND PUSH20 0xFFFFFFFFFFFFFFFFFFFFFFFFFFFFFFFFFFFFFFFF AND DUP2 MSTORE PUSH1 0x20 ADD SWAP1 DUP2 MSTORE PUSH1 0x20 ADD PUSH0 KECCAK256 PUSH0 DUP5 PUSH20 0xFFFFFFFFFFFFFFFFFFFFFFFFFFFFFFFFFFFFFFFF AND PUSH20 0xFFFFFFFFFFFFFFFFFFFFFFFFFFFFFFFFFFFFFFFF AND DUP2 MSTORE PUSH1 0x20 ADD SWAP1 DUP2 MSTORE PUSH1 0x20 ADD PUSH0 KECCAK256 PUSH0 PUSH2 0x100 EXP DUP2 SLOAD DUP2 PUSH1 0xFF MUL NOT AND SWAP1 DUP4 ISZERO ISZERO MUL OR SWAP1 SSTORE POP DUP2 PUSH20 0xFFFFFFFFFFFFFFFFFFFFFFFFFFFFFFFFFFFFFFFF AND DUP4 PUSH20 0xFFFFFFFFFFFFFFFFFFFFFFFFFFFFFFFFFFFFFFFF AND PUSH32 0x17307EAB39AB6107E8899845AD3D59BD9653F200F220920489CA2B5937696C31 DUP4 PUSH1 0x40 MLOAD PUSH2 0x17BA SWAP2 SWAP1 PUSH2 0x29EB JUMP JUMPDEST PUSH1 0x40 MLOAD DUP1 SWAP2 SUB SWAP1 LOG3 POP POP POP JUMP JUMPDEST PUSH2 0x17D2 DUP5 DUP5 DUP5 PUSH2 0x1129 JUMP JUMPDEST PUSH2 0x17DE DUP5 DUP5 DUP5 DUP5 PUSH2 0x1BF6 JUMP JUMPDEST PUSH2 0x181D JUMPI PUSH1 0x40 MLOAD PUSH32 0x8C379A000000000000000000000000000000000000000000000000000000000 DUP2 MSTORE PUSH1 0x4 ADD PUSH2 0x1814 SWAP1 PUSH2 0x390E JUMP JUMPDEST PUSH1 0x40 MLOAD DUP1 SWAP2 SUB SWAP1 REVERT JUMPDEST POP POP POP POP JUMP JUMPDEST PUSH1 0x60 PUSH2 0x182E DUP3 PUSH2 0xF8D JUMP JUMPDEST PUSH0 PUSH1 0xA PUSH0 DUP5 DUP2 MSTORE PUSH1 0x20 ADD SWAP1 DUP2 MSTORE PUSH1 0x20 ADD PUSH0 KECCAK256 DUP1 SLOAD PUSH2 0x184B SWAP1 PUSH2 0x3154 JUMP JUMPDEST DUP1 PUSH1 0x1F ADD PUSH1 0x20 DUP1 SWAP2 DIV MUL PUSH1 0x20 ADD PUSH1 0x40 MLOAD SWAP1 DUP2 ADD PUSH1 0x40 MSTORE DUP1 SWAP3 SWAP2 SWAP1 DUP2 DUP2 MSTORE PUSH1 0x20 ADD DUP3 DUP1 SLOAD PUSH2 0x1877 SWAP1 PUSH2 0x3154 JUMP JUMPDEST DUP1 ISZERO PUSH2 0x18C2 JUMPI DUP1 PUSH1 0x1F LT PUSH2 0x1899 JUMPI PUSH2 0x100 DUP1 DUP4 SLOAD DIV MUL DUP4 MSTORE SWAP2 PUSH1 0x20 ADD SWAP2 PUSH2 0x18C2 JUMP JUMPDEST DUP3 ADD SWAP2 SWAP1 PUSH0 MSTORE PUSH1 0x20 PUSH0 KECCAK256 SWAP1 JUMPDEST DUP2 SLOAD DUP2 MSTORE SWAP1 PUSH1 0x1 ADD SWAP1 PUSH1 0x20 ADD DUP1 DUP4 GT PUSH2 0x18A5 JUMPI DUP3 SWAP1 SUB PUSH1 0x1F AND DUP3 ADD SWAP2 JUMPDEST POP POP POP POP POP SWAP1 POP PUSH0 PUSH2 0x18D2 PUSH2 0x1D78 JUMP JUMPDEST SWAP1 POP PUSH0 DUP2 MLOAD SUB PUSH2 0x18E6 JUMPI DUP2 SWAP3 POP POP POP PUSH2 0x1928 JUMP JUMPDEST PUSH0 DUP3 MLOAD GT ISZERO PUSH2 0x191A JUMPI DUP1 DUP3 PUSH1 0x40 MLOAD PUSH1 0x20 ADD PUSH2 0x1902 SWAP3 SWAP2 SWAP1 PUSH2 0x392C JUMP JUMPDEST PUSH1 0x40 MLOAD PUSH1 0x20 DUP2 DUP4 SUB SUB DUP2 MSTORE SWAP1 PUSH1 0x40 MSTORE SWAP3 POP POP POP PUSH2 0x1928 JUMP JUMPDEST PUSH2 0x1923 DUP5 PUSH2 0x1DCF JUMP JUMPDEST SWAP3 POP POP POP JUMPDEST SWAP2 SWAP1 POP JUMP JUMPDEST PUSH0 DUP2 PUSH0 ADD SLOAD SWAP1 POP SWAP2 SWAP1 POP JUMP JUMPDEST PUSH1 0x1 DUP2 PUSH0 ADD PUSH0 DUP3 DUP3 SLOAD ADD SWAP3 POP POP DUP2 SWAP1 SSTORE POP POP JUMP JUMPDEST PUSH2 0x1966 DUP3 DUP3 PUSH1 0x40 MLOAD DUP1 PUSH1 0x20 ADD PUSH1 0x40 MSTORE DUP1 PUSH0 DUP2 MSTORE POP PUSH2 0x1E34 JUMP JUMPDEST POP POP JUMP JUMPDEST PUSH2 0x1973 DUP3 PUSH2 0x1AB6 JUMP JUMPDEST PUSH2 0x19B2 JUMPI PUSH1 0x40 MLOAD PUSH32 0x8C379A000000000000000000000000000000000000000000000000000000000 DUP2 MSTORE PUSH1 0x4 ADD PUSH2 0x19A9 SWAP1 PUSH2 0x39BF JUMP JUMPDEST PUSH1 0x40 MLOAD DUP1 SWAP2 SUB SWAP1 REVERT JUMPDEST DUP1 PUSH1 0xA PUSH0 DUP5 DUP2 MSTORE PUSH1 0x20 ADD SWAP1 DUP2 MSTORE PUSH1 0x20 ADD PUSH0 KECCAK256 SWAP1 DUP2 PUSH2 0x19D0 SWAP2 SWAP1 PUSH2 0x3B7A JUMP JUMPDEST POP POP POP JUMP JUMPDEST PUSH0 PUSH32 0x80AC58CD00000000000000000000000000000000000000000000000000000000 PUSH28 0xFFFFFFFFFFFFFFFFFFFFFFFFFFFFFFFFFFFFFFFFFFFFFFFFFFFFFFFF NOT AND DUP3 PUSH28 0xFFFFFFFFFFFFFFFFFFFFFFFFFFFFFFFFFFFFFFFFFFFFFFFFFFFFFFFF NOT AND EQ DUP1 PUSH2 0x1A9F JUMPI POP PUSH32 0x5B5E139F00000000000000000000000000000000000000000000000000000000 PUSH28 0xFFFFFFFFFFFFFFFFFFFFFFFFFFFFFFFFFFFFFFFFFFFFFFFFFFFFFFFF NOT AND DUP3 PUSH28 0xFFFFFFFFFFFFFFFFFFFFFFFFFFFFFFFFFFFFFFFFFFFFFFFFFFFFFFFF NOT AND EQ JUMPDEST DUP1 PUSH2 0x1AAF JUMPI POP PUSH2 0x1AAE DUP3 PUSH2 0x1E8E JUMP JUMPDEST JUMPDEST SWAP1 POP SWAP2 SWAP1 POP JUMP JUMPDEST PUSH0 DUP1 PUSH20 0xFFFFFFFFFFFFFFFFFFFFFFFFFFFFFFFFFFFFFFFF AND PUSH2 0x1AD7 DUP4 PUSH2 0x1500 JUMP JUMPDEST PUSH20 0xFFFFFFFFFFFFFFFFFFFFFFFFFFFFFFFFFFFFFFFF AND EQ ISZERO SWAP1 POP SWAP2 SWAP1 POP JUMP JUMPDEST PUSH2 0x1AFE PUSH2 0x1BAC JUMP JUMPDEST PUSH2 0x1B0A DUP5 DUP5 DUP5 DUP5 PUSH2 0x1EF7 JUMP JUMPDEST POP POP POP POP JUMP JUMPDEST POP POP POP POP JUMP JUMPDEST PUSH2 0x1B1E PUSH2 0xA2F JUMP JUMPDEST PUSH2 0x1B5D JUMPI PUSH1 0x40 MLOAD PUSH32 0x8C379A000000000000000000000000000000000000000000000000000000000 DUP2 MSTORE PUSH1 0x4 ADD PUSH2 0x1B54 SWAP1 PUSH2 0x3C93 JUMP JUMPDEST PUSH1 0x40 MLOAD DUP1 SWAP2 SUB SWAP1 REVERT JUMPDEST JUMP JUMPDEST PUSH2 0x1B68 DUP2 PUSH2 0x2052 JUMP JUMPDEST PUSH0 PUSH1 0xA PUSH0 DUP4 DUP2 MSTORE PUSH1 0x20 ADD SWAP1 DUP2 MSTORE PUSH1 0x20 ADD PUSH0 KECCAK256 DUP1 SLOAD PUSH2 0x1B85 SWAP1 PUSH2 0x3154 JUMP JUMPDEST SWAP1 POP EQ PUSH2 0x1BA9 JUMPI PUSH1 0xA PUSH0 DUP3 DUP2 MSTORE PUSH1 0x20 ADD SWAP1 DUP2 MSTORE PUSH1 0x20 ADD PUSH0 KECCAK256 PUSH0 PUSH2 0x1BA8 SWAP2 SWAP1 PUSH2 0x28E8 JUMP JUMPDEST JUMPDEST POP JUMP JUMPDEST PUSH2 0x1BB4 PUSH2 0xA2F JUMP JUMPDEST ISZERO PUSH2 0x1BF4 JUMPI PUSH1 0x40 MLOAD PUSH32 0x8C379A000000000000000000000000000000000000000000000000000000000 DUP2 MSTORE PUSH1 0x4 ADD PUSH2 0x1BEB SWAP1 PUSH2 0x3CFB JUMP JUMPDEST PUSH1 0x40 MLOAD DUP1 SWAP2 SUB SWAP1 REVERT JUMPDEST JUMP JUMPDEST PUSH0 PUSH2 0x1C16 DUP5 PUSH20 0xFFFFFFFFFFFFFFFFFFFFFFFFFFFFFFFFFFFFFFFF AND PUSH2 0x2193 JUMP JUMPDEST ISZERO PUSH2 0x1D6B JUMPI DUP4 PUSH20 0xFFFFFFFFFFFFFFFFFFFFFFFFFFFFFFFFFFFFFFFF AND PUSH4 0x150B7A02 PUSH2 0x1C3F PUSH2 0xFD8 JUMP JUMPDEST DUP8 DUP7 DUP7 PUSH1 0x40 MLOAD DUP6 PUSH4 0xFFFFFFFF AND PUSH1 0xE0 SHL DUP2 MSTORE PUSH1 0x4 ADD PUSH2 0x1C61 SWAP5 SWAP4 SWAP3 SWAP2 SWAP1 PUSH2 0x3D61 JUMP JUMPDEST PUSH1 0x20 PUSH1 0x40 MLOAD DUP1 DUP4 SUB DUP2 PUSH0 DUP8 GAS CALL SWAP3 POP POP POP DUP1 ISZERO PUSH2 0x1C9C JUMPI POP PUSH1 0x40 MLOAD RETURNDATASIZE PUSH1 0x1F NOT PUSH1 0x1F DUP3 ADD AND DUP3 ADD DUP1 PUSH1 0x40 MSTORE POP DUP2 ADD SWAP1 PUSH2 0x1C99 SWAP2 SWAP1 PUSH2 0x3DBF JUMP JUMPDEST PUSH1 0x1 JUMPDEST PUSH2 0x1D1B JUMPI RETURNDATASIZE DUP1 PUSH0 DUP2 EQ PUSH2 0x1CCA JUMPI PUSH1 0x40 MLOAD SWAP2 POP PUSH1 0x1F NOT PUSH1 0x3F RETURNDATASIZE ADD AND DUP3 ADD PUSH1 0x40 MSTORE RETURNDATASIZE DUP3 MSTORE RETURNDATASIZE PUSH0 PUSH1 0x20 DUP5 ADD RETURNDATACOPY PUSH2 0x1CCF JUMP JUMPDEST PUSH1 0x60 SWAP2 POP JUMPDEST POP PUSH0 DUP2 MLOAD SUB PUSH2 0x1D13 JUMPI PUSH1 0x40 MLOAD PUSH32 0x8C379A000000000000000000000000000000000000000000000000000000000 DUP2 MSTORE PUSH1 0x4 ADD PUSH2 0x1D0A SWAP1 PUSH2 0x390E JUMP JUMPDEST PUSH1 0x40 MLOAD DUP1 SWAP2 SUB SWAP1 REVERT JUMPDEST DUP1 MLOAD DUP2 PUSH1 0x20 ADD REVERT JUMPDEST PUSH4 0x150B7A02 PUSH1 0xE0 SHL PUSH28 0xFFFFFFFFFFFFFFFFFFFFFFFFFFFFFFFFFFFFFFFFFFFFFFFFFFFFFFFF NOT AND DUP2 PUSH28 0xFFFFFFFFFFFFFFFFFFFFFFFFFFFFFFFFFFFFFFFFFFFFFFFFFFFFFFFF NOT AND EQ SWAP2 POP POP PUSH2 0x1D70 JUMP JUMPDEST PUSH1 0x1 SWAP1 POP JUMPDEST SWAP5 SWAP4 POP POP POP POP JUMP JUMPDEST PUSH1 0x60 PUSH0 PUSH1 0x40 MLOAD DUP1 PUSH1 0x40 ADD PUSH1 0x40 MSTORE DUP1 PUSH1 0x15 DUP2 MSTORE PUSH1 0x20 ADD PUSH32 0x68747470733A2F2F697066732E696F2F69706E732F0000000000000000000000 DUP2 MSTORE POP SWAP1 POP PUSH0 PUSH2 0x1DBC PUSH2 0xD3C JUMP JUMPDEST SWAP1 POP PUSH2 0x1DC8 DUP3 DUP3 PUSH2 0x861 JUMP JUMPDEST SWAP3 POP POP POP SWAP1 JUMP JUMPDEST PUSH1 0x60 PUSH2 0x1DDA DUP3 PUSH2 0xF8D JUMP JUMPDEST PUSH0 PUSH2 0x1DE3 PUSH2 0x1D78 JUMP JUMPDEST SWAP1 POP PUSH0 DUP2 MLOAD GT PUSH2 0x1E01 JUMPI PUSH1 0x40 MLOAD DUP1 PUSH1 0x20 ADD PUSH1 0x40 MSTORE DUP1 PUSH0 DUP2 MSTORE POP PUSH2 0x1E2C JUMP JUMPDEST DUP1 PUSH2 0x1E0B DUP5 PUSH2 0x21B5 JUMP JUMPDEST PUSH1 0x40 MLOAD PUSH1 0x20 ADD PUSH2 0x1E1C SWAP3 SWAP2 SWAP1 PUSH2 0x392C JUMP JUMPDEST PUSH1 0x40 MLOAD PUSH1 0x20 DUP2 DUP4 SUB SUB DUP2 MSTORE SWAP1 PUSH1 0x40 MSTORE JUMPDEST SWAP2 POP POP SWAP2 SWAP1 POP JUMP JUMPDEST PUSH2 0x1E3E DUP4 DUP4 PUSH2 0x227F JUMP JUMPDEST PUSH2 0x1E4A PUSH0 DUP5 DUP5 DUP5 PUSH2 0x1BF6 JUMP JUMPDEST PUSH2 0x1E89 JUMPI PUSH1 0x40 MLOAD PUSH32 0x8C379A000000000000000000000000000000000000000000000000000000000 DUP2 MSTORE PUSH1 0x4 ADD PUSH2 0x1E80 SWAP1 PUSH2 0x390E JUMP JUMPDEST PUSH1 0x40 MLOAD DUP1 SWAP2 SUB SWAP1 REVERT JUMPDEST POP POP POP JUMP JUMPDEST PUSH0 PUSH32 0x1FFC9A700000000000000000000000000000000000000000000000000000000 PUSH28 0xFFFFFFFFFFFFFFFFFFFFFFFFFFFFFFFFFFFFFFFFFFFFFFFFFFFFFFFF NOT AND DUP3 PUSH28 0xFFFFFFFFFFFFFFFFFFFFFFFFFFFFFFFFFFFFFFFFFFFFFFFFFFFFFFFF NOT AND EQ SWAP1 POP SWAP2 SWAP1 POP JUMP JUMPDEST PUSH2 0x1F03 DUP5 DUP5 DUP5 DUP5 PUSH2 0x2492 JUMP JUMPDEST PUSH1 0x1 DUP2 GT ISZERO PUSH2 0x1F47 JUMPI PUSH1 0x40 MLOAD PUSH32 0x8C379A000000000000000000000000000000000000000000000000000000000 DUP2 MSTORE PUSH1 0x4 ADD PUSH2 0x1F3E SWAP1 PUSH2 0x3E5A JUMP JUMPDEST PUSH1 0x40 MLOAD DUP1 SWAP2 SUB SWAP1 REVERT JUMPDEST PUSH0 DUP3 SWAP1 POP PUSH0 PUSH20 0xFFFFFFFFFFFFFFFFFFFFFFFFFFFFFFFFFFFFFFFF AND DUP6 PUSH20 0xFFFFFFFFFFFFFFFFFFFFFFFFFFFFFFFFFFFFFFFF AND SUB PUSH2 0x1F8C JUMPI PUSH2 0x1F87 DUP2 PUSH2 0x2498 JUMP JUMPDEST PUSH2 0x1FCB JUMP JUMPDEST DUP4 PUSH20 0xFFFFFFFFFFFFFFFFFFFFFFFFFFFFFFFFFFFFFFFF AND DUP6 PUSH20 0xFFFFFFFFFFFFFFFFFFFFFFFFFFFFFFFFFFFFFFFF AND EQ PUSH2 0x1FCA JUMPI PUSH2 0x1FC9 DUP6 DUP3 PUSH2 0x24DC JUMP JUMPDEST JUMPDEST JUMPDEST PUSH0 PUSH20 0xFFFFFFFFFFFFFFFFFFFFFFFFFFFFFFFFFFFFFFFF AND DUP5 PUSH20 0xFFFFFFFFFFFFFFFFFFFFFFFFFFFFFFFFFFFFFFFF AND SUB PUSH2 0x200C JUMPI PUSH2 0x2007 DUP2 PUSH2 0x2632 JUMP JUMPDEST PUSH2 0x204B JUMP JUMPDEST DUP5 PUSH20 0xFFFFFFFFFFFFFFFFFFFFFFFFFFFFFFFFFFFFFFFF AND DUP5 PUSH20 0xFFFFFFFFFFFFFFFFFFFFFFFFFFFFFFFFFFFFFFFF AND EQ PUSH2 0x204A JUMPI PUSH2 0x2049 DUP5 DUP3 PUSH2 0x26F2 JUMP JUMPDEST JUMPDEST JUMPDEST POP POP POP POP POP JUMP JUMPDEST PUSH0 PUSH2 0x205C DUP3 PUSH2 0xA44 JUMP JUMPDEST SWAP1 POP PUSH2 0x206B DUP2 PUSH0 DUP5 PUSH1 0x1 PUSH2 0x1AF6 JUMP JUMPDEST PUSH2 0x2074 DUP3 PUSH2 0xA44 JUMP JUMPDEST SWAP1 POP PUSH1 0x4 PUSH0 DUP4 DUP2 MSTORE PUSH1 0x20 ADD SWAP1 DUP2 MSTORE PUSH1 0x20 ADD PUSH0 KECCAK256 PUSH0 PUSH2 0x100 EXP DUP2 SLOAD SWAP1 PUSH20 0xFFFFFFFFFFFFFFFFFFFFFFFFFFFFFFFFFFFFFFFF MUL NOT AND SWAP1 SSTORE PUSH1 0x1 PUSH1 0x3 PUSH0 DUP4 PUSH20 0xFFFFFFFFFFFFFFFFFFFFFFFFFFFFFFFFFFFFFFFF AND PUSH20 0xFFFFFFFFFFFFFFFFFFFFFFFFFFFFFFFFFFFFFFFF AND DUP2 MSTORE PUSH1 0x20 ADD SWAP1 DUP2 MSTORE PUSH1 0x20 ADD PUSH0 KECCAK256 PUSH0 DUP3 DUP3 SLOAD SUB SWAP3 POP POP DUP2 SWAP1 SSTORE POP PUSH1 0x2 PUSH0 DUP4 DUP2 MSTORE PUSH1 0x20 ADD SWAP1 DUP2 MSTORE PUSH1 0x20 ADD PUSH0 KECCAK256 PUSH0 PUSH2 0x100 EXP DUP2 SLOAD SWAP1 PUSH20 0xFFFFFFFFFFFFFFFFFFFFFFFFFFFFFFFFFFFFFFFF MUL NOT AND SWAP1 SSTORE DUP2 PUSH0 PUSH20 0xFFFFFFFFFFFFFFFFFFFFFFFFFFFFFFFFFFFFFFFF AND DUP3 PUSH20 0xFFFFFFFFFFFFFFFFFFFFFFFFFFFFFFFFFFFFFFFF AND PUSH32 0xDDF252AD1BE2C89B69C2B068FC378DAA952BA7F163C4A11628F55A4DF523B3EF PUSH1 0x40 MLOAD PUSH1 0x40 MLOAD DUP1 SWAP2 SUB SWAP1 LOG4 PUSH2 0x218F DUP2 PUSH0 DUP5 PUSH1 0x1 PUSH2 0x1B10 JUMP JUMPDEST POP POP JUMP JUMPDEST PUSH0 DUP1 DUP3 PUSH20 0xFFFFFFFFFFFFFFFFFFFFFFFFFFFFFFFFFFFFFFFF AND EXTCODESIZE GT SWAP1 POP SWAP2 SWAP1 POP JUMP JUMPDEST PUSH1 0x60 PUSH0 PUSH1 0x1 PUSH2 0x21C3 DUP5 PUSH2 0x276A JUMP JUMPDEST ADD SWAP1 POP PUSH0 DUP2 PUSH8 0xFFFFFFFFFFFFFFFF DUP2 GT ISZERO PUSH2 0x21E1 JUMPI PUSH2 0x21E0 PUSH2 0x2D44 JUMP JUMPDEST JUMPDEST PUSH1 0x40 MLOAD SWAP1 DUP1 DUP3 MSTORE DUP1 PUSH1 0x1F ADD PUSH1 0x1F NOT AND PUSH1 0x20 ADD DUP3 ADD PUSH1 0x40 MSTORE DUP1 ISZERO PUSH2 0x2213 JUMPI DUP2 PUSH1 0x20 ADD PUSH1 0x1 DUP3 MUL DUP1 CALLDATASIZE DUP4 CALLDATACOPY DUP1 DUP3 ADD SWAP2 POP POP SWAP1 POP JUMPDEST POP SWAP1 POP PUSH0 DUP3 PUSH1 0x20 ADD DUP3 ADD SWAP1 POP JUMPDEST PUSH1 0x1 ISZERO PUSH2 0x2274 JUMPI DUP1 DUP1 PUSH1 0x1 SWAP1 SUB SWAP2 POP POP PUSH32 0x3031323334353637383961626364656600000000000000000000000000000000 PUSH1 0xA DUP7 MOD BYTE DUP2 MSTORE8 PUSH1 0xA DUP6 DUP2 PUSH2 0x2269 JUMPI PUSH2 0x2268 PUSH2 0x3E78 JUMP JUMPDEST JUMPDEST DIV SWAP5 POP PUSH0 DUP6 SUB PUSH2 0x2220 JUMPI JUMPDEST DUP2 SWAP4 POP POP POP POP SWAP2 SWAP1 POP JUMP JUMPDEST PUSH0 PUSH20 0xFFFFFFFFFFFFFFFFFFFFFFFFFFFFFFFFFFFFFFFF AND DUP3 PUSH20 0xFFFFFFFFFFFFFFFFFFFFFFFFFFFFFFFFFFFFFFFF AND SUB PUSH2 0x22ED JUMPI PUSH1 0x40 MLOAD PUSH32 0x8C379A000000000000000000000000000000000000000000000000000000000 DUP2 MSTORE PUSH1 0x4 ADD PUSH2 0x22E4 SWAP1 PUSH2 0x3EEF JUMP JUMPDEST PUSH1 0x40 MLOAD DUP1 SWAP2 SUB SWAP1 REVERT JUMPDEST PUSH2 0x22F6 DUP2 PUSH2 0x1AB6 JUMP JUMPDEST ISZERO PUSH2 0x2336 JUMPI PUSH1 0x40 MLOAD PUSH32 0x8C379A000000000000000000000000000000000000000000000000000000000 DUP2 MSTORE PUSH1 0x4 ADD PUSH2 0x232D SWAP1 PUSH2 0x3F57 JUMP JUMPDEST PUSH1 0x40 MLOAD DUP1 SWAP2 SUB SWAP1 REVERT JUMPDEST PUSH2 0x2343 PUSH0 DUP4 DUP4 PUSH1 0x1 PUSH2 0x1AF6 JUMP JUMPDEST PUSH2 0x234C DUP2 PUSH2 0x1AB6 JUMP JUMPDEST ISZERO PUSH2 0x238C JUMPI PUSH1 0x40 MLOAD PUSH32 0x8C379A000000000000000000000000000000000000000000000000000000000 DUP2 MSTORE PUSH1 0x4 ADD PUSH2 0x2383 SWAP1 PUSH2 0x3F57 JUMP JUMPDEST PUSH1 0x40 MLOAD DUP1 SWAP2 SUB SWAP1 REVERT JUMPDEST PUSH1 0x1 PUSH1 0x3 PUSH0 DUP5 PUSH20 0xFFFFFFFFFFFFFFFFFFFFFFFFFFFFFFFFFFFFFFFF AND PUSH20 0xFFFFFFFFFFFFFFFFFFFFFFFFFFFFFFFFFFFFFFFF AND DUP2 MSTORE PUSH1 0x20 ADD SWAP1 DUP2 MSTORE PUSH1 0x20 ADD PUSH0 KECCAK256 PUSH0 DUP3 DUP3 SLOAD ADD SWAP3 POP POP DUP2 SWAP1 SSTORE POP DUP2 PUSH1 0x2 PUSH0 DUP4 DUP2 MSTORE PUSH1 0x20 ADD SWAP1 DUP2 MSTORE PUSH1 0x20 ADD PUSH0 KECCAK256 PUSH0 PUSH2 0x100 EXP DUP2 SLOAD DUP2 PUSH20 0xFFFFFFFFFFFFFFFFFFFFFFFFFFFFFFFFFFFFFFFF MUL NOT AND SWAP1 DUP4 PUSH20 0xFFFFFFFFFFFFFFFFFFFFFFFFFFFFFFFFFFFFFFFF AND MUL OR SWAP1 SSTORE POP DUP1 DUP3 PUSH20 0xFFFFFFFFFFFFFFFFFFFFFFFFFFFFFFFFFFFFFFFF AND PUSH0 PUSH20 0xFFFFFFFFFFFFFFFFFFFFFFFFFFFFFFFFFFFFFFFF AND PUSH32 0xDDF252AD1BE2C89B69C2B068FC378DAA952BA7F163C4A11628F55A4DF523B3EF PUSH1 0x40 MLOAD PUSH1 0x40 MLOAD DUP1 SWAP2 SUB SWAP1 LOG4 PUSH2 0x248E PUSH0 DUP4 DUP4 PUSH1 0x1 PUSH2 0x1B10 JUMP JUMPDEST POP POP JUMP JUMPDEST POP POP POP POP JUMP JUMPDEST PUSH1 0x8 DUP1 SLOAD SWAP1 POP PUSH1 0x9 PUSH0 DUP4 DUP2 MSTORE PUSH1 0x20 ADD SWAP1 DUP2 MSTORE PUSH1 0x20 ADD PUSH0 KECCAK256 DUP2 SWAP1 SSTORE POP PUSH1 0x8 DUP2 SWAP1 DUP1 PUSH1 0x1 DUP2 SLOAD ADD DUP1 DUP3 SSTORE DUP1 SWAP2 POP POP PUSH1 0x1 SWAP1 SUB SWAP1 PUSH0 MSTORE PUSH1 0x20 PUSH0 KECCAK256 ADD PUSH0 SWAP1 SWAP2 SWAP1 SWAP2 SWAP1 SWAP2 POP SSTORE POP JUMP JUMPDEST PUSH0 PUSH1 0x1 PUSH2 0x24E8 DUP5 PUSH2 0xAC8 JUMP JUMPDEST PUSH2 0x24F2 SWAP2 SWAP1 PUSH2 0x3FA2 JUMP JUMPDEST SWAP1 POP PUSH0 PUSH1 0x7 PUSH0 DUP5 DUP2 MSTORE PUSH1 0x20 ADD SWAP1 DUP2 MSTORE PUSH1 0x20 ADD PUSH0 KECCAK256 SLOAD SWAP1 POP DUP2 DUP2 EQ PUSH2 0x25C9 JUMPI PUSH0 PUSH1 0x6 PUSH0 DUP7 PUSH20 0xFFFFFFFFFFFFFFFFFFFFFFFFFFFFFFFFFFFFFFFF AND PUSH20 0xFFFFFFFFFFFFFFFFFFFFFFFFFFFFFFFFFFFFFFFF AND DUP2 MSTORE PUSH1 0x20 ADD SWAP1 DUP2 MSTORE PUSH1 0x20 ADD PUSH0 KECCAK256 PUSH0 DUP5 DUP2 MSTORE PUSH1 0x20 ADD SWAP1 DUP2 MSTORE PUSH1 0x20 ADD PUSH0 KECCAK256 SLOAD SWAP1 POP DUP1 PUSH1 0x6 PUSH0 DUP8 PUSH20 0xFFFFFFFFFFFFFFFFFFFFFFFFFFFFFFFFFFFFFFFF AND PUSH20 0xFFFFFFFFFFFFFFFFFFFFFFFFFFFFFFFFFFFFFFFF AND DUP2 MSTORE PUSH1 0x20 ADD SWAP1 DUP2 MSTORE PUSH1 0x20 ADD PUSH0 KECCAK256 PUSH0 DUP5 DUP2 MSTORE PUSH1 0x20 ADD SWAP1 DUP2 MSTORE PUSH1 0x20 ADD PUSH0 KECCAK256 DUP2 SWAP1 SSTORE POP DUP2 PUSH1 0x7 PUSH0 DUP4 DUP2 MSTORE PUSH1 0x20 ADD SWAP1 DUP2 MSTORE PUSH1 0x20 ADD PUSH0 KECCAK256 DUP2 SWAP1 SSTORE POP POP JUMPDEST PUSH1 0x7 PUSH0 DUP5 DUP2 MSTORE PUSH1 0x20 ADD SWAP1 DUP2 MSTORE PUSH1 0x20 ADD PUSH0 KECCAK256 PUSH0 SWAP1 SSTORE PUSH1 0x6 PUSH0 DUP6 PUSH20 0xFFFFFFFFFFFFFFFFFFFFFFFFFFFFFFFFFFFFFFFF AND PUSH20 0xFFFFFFFFFFFFFFFFFFFFFFFFFFFFFFFFFFFFFFFF AND DUP2 MSTORE PUSH1 0x20 ADD SWAP1 DUP2 MSTORE PUSH1 0x20 ADD PUSH0 KECCAK256 PUSH0 DUP4 DUP2 MSTORE PUSH1 0x20 ADD SWAP1 DUP2 MSTORE PUSH1 0x20 ADD PUSH0 KECCAK256 PUSH0 SWAP1 SSTORE POP POP POP POP JUMP JUMPDEST PUSH0 PUSH1 0x1 PUSH1 0x8 DUP1 SLOAD SWAP1 POP PUSH2 0x2645 SWAP2 SWAP1 PUSH2 0x3FA2 JUMP JUMPDEST SWAP1 POP PUSH0 PUSH1 0x9 PUSH0 DUP5 DUP2 MSTORE PUSH1 0x20 ADD SWAP1 DUP2 MSTORE PUSH1 0x20 ADD PUSH0 KECCAK256 SLOAD SWAP1 POP PUSH0 PUSH1 0x8 DUP4 DUP2 SLOAD DUP2 LT PUSH2 0x2671 JUMPI PUSH2 0x2670 PUSH2 0x34B1 JUMP JUMPDEST JUMPDEST SWAP1 PUSH0 MSTORE PUSH1 0x20 PUSH0 KECCAK256 ADD SLOAD SWAP1 POP DUP1 PUSH1 0x8 DUP4 DUP2 SLOAD DUP2 LT PUSH2 0x2691 JUMPI PUSH2 0x2690 PUSH2 0x34B1 JUMP JUMPDEST JUMPDEST SWAP1 PUSH0 MSTORE PUSH1 0x20 PUSH0 KECCAK256 ADD DUP2 SWAP1 SSTORE POP DUP2 PUSH1 0x9 PUSH0 DUP4 DUP2 MSTORE PUSH1 0x20 ADD SWAP1 DUP2 MSTORE PUSH1 0x20 ADD PUSH0 KECCAK256 DUP2 SWAP1 SSTORE POP PUSH1 0x9 PUSH0 DUP6 DUP2 MSTORE PUSH1 0x20 ADD SWAP1 DUP2 MSTORE PUSH1 0x20 ADD PUSH0 KECCAK256 PUSH0 SWAP1 SSTORE PUSH1 0x8 DUP1 SLOAD DUP1 PUSH2 0x26D9 JUMPI PUSH2 0x26D8 PUSH2 0x3FD5 JUMP JUMPDEST JUMPDEST PUSH1 0x1 SWAP1 SUB DUP2 DUP2 SWAP1 PUSH0 MSTORE PUSH1 0x20 PUSH0 KECCAK256 ADD PUSH0 SWAP1 SSTORE SWAP1 SSTORE POP POP POP POP JUMP JUMPDEST PUSH0 PUSH2 0x26FC DUP4 PUSH2 0xAC8 JUMP JUMPDEST SWAP1 POP DUP2 PUSH1 0x6 PUSH0 DUP6 PUSH20 0xFFFFFFFFFFFFFFFFFFFFFFFFFFFFFFFFFFFFFFFF AND PUSH20 0xFFFFFFFFFFFFFFFFFFFFFFFFFFFFFFFFFFFFFFFF AND DUP2 MSTORE PUSH1 0x20 ADD SWAP1 DUP2 MSTORE PUSH1 0x20 ADD PUSH0 KECCAK256 PUSH0 DUP4 DUP2 MSTORE PUSH1 0x20 ADD SWAP1 DUP2 MSTORE PUSH1 0x20 ADD PUSH0 KECCAK256 DUP2 SWAP1 SSTORE POP DUP1 PUSH1 0x7 PUSH0 DUP5 DUP2 MSTORE PUSH1 0x20 ADD SWAP1 DUP2 MSTORE PUSH1 0x20 ADD PUSH0 KECCAK256 DUP2 SWAP1 SSTORE POP POP POP POP JUMP JUMPDEST PUSH0 DUP1 PUSH0 SWAP1 POP PUSH27 0x184F03E93FF9F4DAA797ED6E38ED64BF6A1F010000000000000000 DUP4 LT PUSH2 0x27C6 JUMPI PUSH27 0x184F03E93FF9F4DAA797ED6E38ED64BF6A1F010000000000000000 DUP4 DUP2 PUSH2 0x27BC JUMPI PUSH2 0x27BB PUSH2 0x3E78 JUMP JUMPDEST JUMPDEST DIV SWAP3 POP PUSH1 0x40 DUP2 ADD SWAP1 POP JUMPDEST PUSH14 0x4EE2D6D415B85ACEF8100000000 DUP4 LT PUSH2 0x2803 JUMPI PUSH14 0x4EE2D6D415B85ACEF8100000000 DUP4 DUP2 PUSH2 0x27F9 JUMPI PUSH2 0x27F8 PUSH2 0x3E78 JUMP JUMPDEST JUMPDEST DIV SWAP3 POP PUSH1 0x20 DUP2 ADD SWAP1 POP JUMPDEST PUSH7 0x2386F26FC10000 DUP4 LT PUSH2 0x2832 JUMPI PUSH7 0x2386F26FC10000 DUP4 DUP2 PUSH2 0x2828 JUMPI PUSH2 0x2827 PUSH2 0x3E78 JUMP JUMPDEST JUMPDEST DIV SWAP3 POP PUSH1 0x10 DUP2 ADD SWAP1 POP JUMPDEST PUSH4 0x5F5E100 DUP4 LT PUSH2 0x285B JUMPI PUSH4 0x5F5E100 DUP4 DUP2 PUSH2 0x2851 JUMPI PUSH2 0x2850 PUSH2 0x3E78 JUMP JUMPDEST JUMPDEST DIV SWAP3 POP PUSH1 0x8 DUP2 ADD SWAP1 POP JUMPDEST PUSH2 0x2710 DUP4 LT PUSH2 0x2880 JUMPI PUSH2 0x2710 DUP4 DUP2 PUSH2 0x2876 JUMPI PUSH2 0x2875 PUSH2 0x3E78 JUMP JUMPDEST JUMPDEST DIV SWAP3 POP PUSH1 0x4 DUP2 ADD SWAP1 POP JUMPDEST PUSH1 0x64 DUP4 LT PUSH2 0x28A3 JUMPI PUSH1 0x64 DUP4 DUP2 PUSH2 0x2899 JUMPI PUSH2 0x2898 PUSH2 0x3E78 JUMP JUMPDEST JUMPDEST DIV SWAP3 POP PUSH1 0x2 DUP2 ADD SWAP1 POP JUMPDEST PUSH1 0xA DUP4 LT PUSH2 0x28B2 JUMPI PUSH1 0x1 DUP2 ADD SWAP1 POP JUMPDEST DUP1 SWAP2 POP POP SWAP2 SWAP1 POP JUMP JUMPDEST PUSH1 0x40 MLOAD DUP1 PUSH1 0xA0 ADD PUSH1 0x40 MSTORE DUP1 PUSH1 0x60 DUP2 MSTORE PUSH1 0x20 ADD PUSH1 0x60 DUP2 MSTORE PUSH1 0x20 ADD PUSH0 DUP2 MSTORE PUSH1 0x20 ADD PUSH1 0x60 DUP2 MSTORE PUSH1 0x20 ADD PUSH0 DUP2 MSTORE POP SWAP1 JUMP JUMPDEST POP DUP1 SLOAD PUSH2 0x28F4 SWAP1 PUSH2 0x3154 JUMP JUMPDEST PUSH0 DUP3 SSTORE DUP1 PUSH1 0x1F LT PUSH2 0x2905 JUMPI POP PUSH2 0x2922 JUMP JUMPDEST PUSH1 0x1F ADD PUSH1 0x20 SWAP1 DIV SWAP1 PUSH0 MSTORE PUSH1 0x20 PUSH0 KECCAK256 SWAP1 DUP2 ADD SWAP1 PUSH2 0x2921 SWAP2 SWAP1 PUSH2 0x2925 JUMP JUMPDEST JUMPDEST POP JUMP JUMPDEST JUMPDEST DUP1 DUP3 GT ISZERO PUSH2 0x293C JUMPI PUSH0 DUP2 PUSH0 SWAP1 SSTORE POP PUSH1 0x1 ADD PUSH2 0x2926 JUMP JUMPDEST POP SWAP1 JUMP JUMPDEST PUSH0 PUSH1 0x40 MLOAD SWAP1 POP SWAP1 JUMP JUMPDEST PUSH0 DUP1 REVERT JUMPDEST PUSH0 DUP1 REVERT JUMPDEST PUSH0 PUSH32 0xFFFFFFFF00000000000000000000000000000000000000000000000000000000 DUP3 AND SWAP1 POP SWAP2 SWAP1 POP JUMP JUMPDEST PUSH2 0x2985 DUP2 PUSH2 0x2951 JUMP JUMPDEST DUP2 EQ PUSH2 0x298F JUMPI PUSH0 DUP1 REVERT JUMPDEST POP JUMP JUMPDEST PUSH0 DUP2 CALLDATALOAD SWAP1 POP PUSH2 0x29A0 DUP2 PUSH2 0x297C JUMP JUMPDEST SWAP3 SWAP2 POP POP JUMP JUMPDEST PUSH0 PUSH1 0x20 DUP3 DUP5 SUB SLT ISZERO PUSH2 0x29BB JUMPI PUSH2 0x29BA PUSH2 0x2949 JUMP JUMPDEST JUMPDEST PUSH0 PUSH2 0x29C8 DUP5 DUP3 DUP6 ADD PUSH2 0x2992 JUMP JUMPDEST SWAP2 POP POP SWAP3 SWAP2 POP POP JUMP JUMPDEST PUSH0 DUP2 ISZERO ISZERO SWAP1 POP SWAP2 SWAP1 POP JUMP JUMPDEST PUSH2 0x29E5 DUP2 PUSH2 0x29D1 JUMP JUMPDEST DUP3 MSTORE POP POP JUMP JUMPDEST PUSH0 PUSH1 0x20 DUP3 ADD SWAP1 POP PUSH2 0x29FE PUSH0 DUP4 ADD DUP5 PUSH2 0x29DC JUMP JUMPDEST SWAP3 SWAP2 POP POP JUMP JUMPDEST PUSH0 DUP2 MLOAD SWAP1 POP SWAP2 SWAP1 POP JUMP JUMPDEST PUSH0 DUP3 DUP3 MSTORE PUSH1 0x20 DUP3 ADD SWAP1 POP SWAP3 SWAP2 POP POP JUMP JUMPDEST PUSH0 JUMPDEST DUP4 DUP2 LT ISZERO PUSH2 0x2A3B JUMPI DUP1 DUP3 ADD MLOAD DUP2 DUP5 ADD MSTORE PUSH1 0x20 DUP2 ADD SWAP1 POP PUSH2 0x2A20 JUMP JUMPDEST PUSH0 DUP5 DUP5 ADD MSTORE POP POP POP POP JUMP JUMPDEST PUSH0 PUSH1 0x1F NOT PUSH1 0x1F DUP4 ADD AND SWAP1 POP SWAP2 SWAP1 POP JUMP JUMPDEST PUSH0 PUSH2 0x2A60 DUP3 PUSH2 0x2A04 JUMP JUMPDEST PUSH2 0x2A6A DUP2 DUP6 PUSH2 0x2A0E JUMP JUMPDEST SWAP4 POP PUSH2 0x2A7A DUP2 DUP6 PUSH1 0x20 DUP7 ADD PUSH2 0x2A1E JUMP JUMPDEST PUSH2 0x2A83 DUP2 PUSH2 0x2A46 JUMP JUMPDEST DUP5 ADD SWAP2 POP POP SWAP3 SWAP2 POP POP JUMP JUMPDEST PUSH0 PUSH1 0x20 DUP3 ADD SWAP1 POP DUP2 DUP2 SUB PUSH0 DUP4 ADD MSTORE PUSH2 0x2AA6 DUP2 DUP5 PUSH2 0x2A56 JUMP JUMPDEST SWAP1 POP SWAP3 SWAP2 POP POP JUMP JUMPDEST PUSH0 DUP2 SWAP1 POP SWAP2 SWAP1 POP JUMP JUMPDEST PUSH2 0x2AC0 DUP2 PUSH2 0x2AAE JUMP JUMPDEST DUP2 EQ PUSH2 0x2ACA JUMPI PUSH0 DUP1 REVERT JUMPDEST POP JUMP JUMPDEST PUSH0 DUP2 CALLDATALOAD SWAP1 POP PUSH2 0x2ADB DUP2 PUSH2 0x2AB7 JUMP JUMPDEST SWAP3 SWAP2 POP POP JUMP JUMPDEST PUSH0 PUSH1 0x20 DUP3 DUP5 SUB SLT ISZERO PUSH2 0x2AF6 JUMPI PUSH2 0x2AF5 PUSH2 0x2949 JUMP JUMPDEST JUMPDEST PUSH0 PUSH2 0x2B03 DUP5 DUP3 DUP6 ADD PUSH2 0x2ACD JUMP JUMPDEST SWAP2 POP POP SWAP3 SWAP2 POP POP JUMP JUMPDEST PUSH0 PUSH20 0xFFFFFFFFFFFFFFFFFFFFFFFFFFFFFFFFFFFFFFFF DUP3 AND SWAP1 POP SWAP2 SWAP1 POP JUMP JUMPDEST PUSH0 PUSH2 0x2B35 DUP3 PUSH2 0x2B0C JUMP JUMPDEST SWAP1 POP SWAP2 SWAP1 POP JUMP JUMPDEST PUSH2 0x2B45 DUP2 PUSH2 0x2B2B JUMP JUMPDEST DUP3 MSTORE POP POP JUMP JUMPDEST PUSH0 PUSH1 0x20 DUP3 ADD SWAP1 POP PUSH2 0x2B5E PUSH0 DUP4 ADD DUP5 PUSH2 0x2B3C JUMP JUMPDEST SWAP3 SWAP2 POP POP JUMP JUMPDEST PUSH2 0x2B6D DUP2 PUSH2 0x2B2B JUMP JUMPDEST DUP2 EQ PUSH2 0x2B77 JUMPI PUSH0 DUP1 REVERT JUMPDEST POP JUMP JUMPDEST PUSH0 DUP2 CALLDATALOAD SWAP1 POP PUSH2 0x2B88 DUP2 PUSH2 0x2B64 JUMP JUMPDEST SWAP3 SWAP2 POP POP JUMP JUMPDEST PUSH0 DUP1 PUSH1 0x40 DUP4 DUP6 SUB SLT ISZERO PUSH2 0x2BA4 JUMPI PUSH2 0x2BA3 PUSH2 0x2949 JUMP JUMPDEST JUMPDEST PUSH0 PUSH2 0x2BB1 DUP6 DUP3 DUP7 ADD PUSH2 0x2B7A JUMP JUMPDEST SWAP3 POP POP PUSH1 0x20 PUSH2 0x2BC2 DUP6 DUP3 DUP7 ADD PUSH2 0x2ACD JUMP JUMPDEST SWAP2 POP POP SWAP3 POP SWAP3 SWAP1 POP JUMP JUMPDEST PUSH2 0x2BD5 DUP2 PUSH2 0x2AAE JUMP JUMPDEST DUP3 MSTORE POP POP JUMP JUMPDEST PUSH0 PUSH1 0x20 DUP3 ADD SWAP1 POP PUSH2 0x2BEE PUSH0 DUP4 ADD DUP5 PUSH2 0x2BCC JUMP JUMPDEST SWAP3 SWAP2 POP POP JUMP JUMPDEST PUSH0 DUP3 DUP3 MSTORE PUSH1 0x20 DUP3 ADD SWAP1 POP SWAP3 SWAP2 POP POP JUMP JUMPDEST PUSH0 PUSH2 0x2C0E DUP3 PUSH2 0x2A04 JUMP JUMPDEST PUSH2 0x2C18 DUP2 DUP6 PUSH2 0x2BF4 JUMP JUMPDEST SWAP4 POP PUSH2 0x2C28 DUP2 DUP6 PUSH1 0x20 DUP7 ADD PUSH2 0x2A1E JUMP JUMPDEST PUSH2 0x2C31 DUP2 PUSH2 0x2A46 JUMP JUMPDEST DUP5 ADD SWAP2 POP POP SWAP3 SWAP2 POP POP JUMP JUMPDEST PUSH2 0x2C45 DUP2 PUSH2 0x2AAE JUMP JUMPDEST DUP3 MSTORE POP POP JUMP JUMPDEST PUSH0 PUSH1 0xA0 DUP4 ADD PUSH0 DUP4 ADD MLOAD DUP5 DUP3 SUB PUSH0 DUP7 ADD MSTORE PUSH2 0x2C65 DUP3 DUP3 PUSH2 0x2C04 JUMP JUMPDEST SWAP2 POP POP PUSH1 0x20 DUP4 ADD MLOAD DUP5 DUP3 SUB PUSH1 0x20 DUP7 ADD MSTORE PUSH2 0x2C7F DUP3 DUP3 PUSH2 0x2C04 JUMP JUMPDEST SWAP2 POP POP PUSH1 0x40 DUP4 ADD MLOAD PUSH2 0x2C94 PUSH1 0x40 DUP7 ADD DUP3 PUSH2 0x2C3C JUMP JUMPDEST POP PUSH1 0x60 DUP4 ADD MLOAD DUP5 DUP3 SUB PUSH1 0x60 DUP7 ADD MSTORE PUSH2 0x2CAC DUP3 DUP3 PUSH2 0x2C04 JUMP JUMPDEST SWAP2 POP POP PUSH1 0x80 DUP4 ADD MLOAD PUSH2 0x2CC1 PUSH1 0x80 DUP7 ADD DUP3 PUSH2 0x2C3C JUMP JUMPDEST POP DUP1 SWAP2 POP POP SWAP3 SWAP2 POP POP JUMP JUMPDEST PUSH0 PUSH1 0x20 DUP3 ADD SWAP1 POP DUP2 DUP2 SUB PUSH0 DUP4 ADD MSTORE PUSH2 0x2CE4 DUP2 DUP5 PUSH2 0x2C4B JUMP JUMPDEST SWAP1 POP SWAP3 SWAP2 POP POP JUMP JUMPDEST PUSH0 DUP1 PUSH0 PUSH1 0x60 DUP5 DUP7 SUB SLT ISZERO PUSH2 0x2D03 JUMPI PUSH2 0x2D02 PUSH2 0x2949 JUMP JUMPDEST JUMPDEST PUSH0 PUSH2 0x2D10 DUP7 DUP3 DUP8 ADD PUSH2 0x2B7A JUMP JUMPDEST SWAP4 POP POP PUSH1 0x20 PUSH2 0x2D21 DUP7 DUP3 DUP8 ADD PUSH2 0x2B7A JUMP JUMPDEST SWAP3 POP POP PUSH1 0x40 PUSH2 0x2D32 DUP7 DUP3 DUP8 ADD PUSH2 0x2ACD JUMP JUMPDEST SWAP2 POP POP SWAP3 POP SWAP3 POP SWAP3 JUMP JUMPDEST PUSH0 DUP1 REVERT JUMPDEST PUSH0 DUP1 REVERT JUMPDEST PUSH32 0x4E487B7100000000000000000000000000000000000000000000000000000000 PUSH0 MSTORE PUSH1 0x41 PUSH1 0x4 MSTORE PUSH1 0x24 PUSH0 REVERT JUMPDEST PUSH2 0x2D7A DUP3 PUSH2 0x2A46 JUMP JUMPDEST DUP2 ADD DUP2 DUP2 LT PUSH8 0xFFFFFFFFFFFFFFFF DUP3 GT OR ISZERO PUSH2 0x2D99 JUMPI PUSH2 0x2D98 PUSH2 0x2D44 JUMP JUMPDEST JUMPDEST DUP1 PUSH1 0x40 MSTORE POP POP POP JUMP JUMPDEST PUSH0 PUSH2 0x2DAB PUSH2 0x2940 JUMP JUMPDEST SWAP1 POP PUSH2 0x2DB7 DUP3 DUP3 PUSH2 0x2D71 JUMP JUMPDEST SWAP2 SWAP1 POP JUMP JUMPDEST PUSH0 PUSH8 0xFFFFFFFFFFFFFFFF DUP3 GT ISZERO PUSH2 0x2DD6 JUMPI PUSH2 0x2DD5 PUSH2 0x2D44 JUMP JUMPDEST JUMPDEST PUSH2 0x2DDF DUP3 PUSH2 0x2A46 JUMP JUMPDEST SWAP1 POP PUSH1 0x20 DUP2 ADD SWAP1 POP SWAP2 SWAP1 POP JUMP JUMPDEST DUP3 DUP2 DUP4 CALLDATACOPY PUSH0 DUP4 DUP4 ADD MSTORE POP POP POP JUMP JUMPDEST PUSH0 PUSH2 0x2E0C PUSH2 0x2E07 DUP5 PUSH2 0x2DBC JUMP JUMPDEST PUSH2 0x2DA2 JUMP JUMPDEST SWAP1 POP DUP3 DUP2 MSTORE PUSH1 0x20 DUP2 ADD DUP5 DUP5 DUP5 ADD GT ISZERO PUSH2 0x2E28 JUMPI PUSH2 0x2E27 PUSH2 0x2D40 JUMP JUMPDEST JUMPDEST PUSH2 0x2E33 DUP5 DUP3 DUP6 PUSH2 0x2DEC JUMP JUMPDEST POP SWAP4 SWAP3 POP POP POP JUMP JUMPDEST PUSH0 DUP3 PUSH1 0x1F DUP4 ADD SLT PUSH2 0x2E4F JUMPI PUSH2 0x2E4E PUSH2 0x2D3C JUMP JUMPDEST JUMPDEST DUP2 CALLDATALOAD PUSH2 0x2E5F DUP5 DUP3 PUSH1 0x20 DUP7 ADD PUSH2 0x2DFA JUMP JUMPDEST SWAP2 POP POP SWAP3 SWAP2 POP POP JUMP JUMPDEST PUSH0 DUP1 PUSH1 0x40 DUP4 DUP6 SUB SLT ISZERO PUSH2 0x2E7E JUMPI PUSH2 0x2E7D PUSH2 0x2949 JUMP JUMPDEST JUMPDEST PUSH0 DUP4 ADD CALLDATALOAD PUSH8 0xFFFFFFFFFFFFFFFF DUP2 GT ISZERO PUSH2 0x2E9B JUMPI PUSH2 0x2E9A PUSH2 0x294D JUMP JUMPDEST JUMPDEST PUSH2 0x2EA7 DUP6 DUP3 DUP7 ADD PUSH2 0x2E3B JUMP JUMPDEST SWAP3 POP POP PUSH1 0x20 DUP4 ADD CALLDATALOAD PUSH8 0xFFFFFFFFFFFFFFFF DUP2 GT ISZERO PUSH2 0x2EC8 JUMPI PUSH2 0x2EC7 PUSH2 0x294D JUMP JUMPDEST JUMPDEST PUSH2 0x2ED4 DUP6 DUP3 DUP7 ADD PUSH2 0x2E3B JUMP JUMPDEST SWAP2 POP POP SWAP3 POP SWAP3 SWAP1 POP JUMP JUMPDEST PUSH0 PUSH1 0x20 DUP3 DUP5 SUB SLT ISZERO PUSH2 0x2EF3 JUMPI PUSH2 0x2EF2 PUSH2 0x2949 JUMP JUMPDEST JUMPDEST PUSH0 PUSH2 0x2F00 DUP5 DUP3 DUP6 ADD PUSH2 0x2B7A JUMP JUMPDEST SWAP2 POP POP SWAP3 SWAP2 POP POP JUMP JUMPDEST PUSH2 0x2F12 DUP2 PUSH2 0x29D1 JUMP JUMPDEST DUP2 EQ PUSH2 0x2F1C JUMPI PUSH0 DUP1 REVERT JUMPDEST POP JUMP JUMPDEST PUSH0 DUP2 CALLDATALOAD SWAP1 POP PUSH2 0x2F2D DUP2 PUSH2 0x2F09 JUMP JUMPDEST SWAP3 SWAP2 POP POP JUMP JUMPDEST PUSH0 DUP1 PUSH1 0x40 DUP4 DUP6 SUB SLT ISZERO PUSH2 0x2F49 JUMPI PUSH2 0x2F48 PUSH2 0x2949 JUMP JUMPDEST JUMPDEST PUSH0 PUSH2 0x2F56 DUP6 DUP3 DUP7 ADD PUSH2 0x2B7A JUMP JUMPDEST SWAP3 POP POP PUSH1 0x20 PUSH2 0x2F67 DUP6 DUP3 DUP7 ADD PUSH2 0x2F1F JUMP JUMPDEST SWAP2 POP POP SWAP3 POP SWAP3 SWAP1 POP JUMP JUMPDEST PUSH0 PUSH8 0xFFFFFFFFFFFFFFFF DUP3 GT ISZERO PUSH2 0x2F8B JUMPI PUSH2 0x2F8A PUSH2 0x2D44 JUMP JUMPDEST JUMPDEST PUSH2 0x2F94 DUP3 PUSH2 0x2A46 JUMP JUMPDEST SWAP1 POP PUSH1 0x20 DUP2 ADD SWAP1 POP SWAP2 SWAP1 POP JUMP JUMPDEST PUSH0 PUSH2 0x2FB3 PUSH2 0x2FAE DUP5 PUSH2 0x2F71 JUMP JUMPDEST PUSH2 0x2DA2 JUMP JUMPDEST SWAP1 POP DUP3 DUP2 MSTORE PUSH1 0x20 DUP2 ADD DUP5 DUP5 DUP5 ADD GT ISZERO PUSH2 0x2FCF JUMPI PUSH2 0x2FCE PUSH2 0x2D40 JUMP JUMPDEST JUMPDEST PUSH2 0x2FDA DUP5 DUP3 DUP6 PUSH2 0x2DEC JUMP JUMPDEST POP SWAP4 SWAP3 POP POP POP JUMP JUMPDEST PUSH0 DUP3 PUSH1 0x1F DUP4 ADD SLT PUSH2 0x2FF6 JUMPI PUSH2 0x2FF5 PUSH2 0x2D3C JUMP JUMPDEST JUMPDEST DUP2 CALLDATALOAD PUSH2 0x3006 DUP5 DUP3 PUSH1 0x20 DUP7 ADD PUSH2 0x2FA1 JUMP JUMPDEST SWAP2 POP POP SWAP3 SWAP2 POP POP JUMP JUMPDEST PUSH0 DUP1 PUSH0 DUP1 PUSH1 0x80 DUP6 DUP8 SUB SLT ISZERO PUSH2 0x3027 JUMPI PUSH2 0x3026 PUSH2 0x2949 JUMP JUMPDEST JUMPDEST PUSH0 PUSH2 0x3034 DUP8 DUP3 DUP9 ADD PUSH2 0x2B7A JUMP JUMPDEST SWAP5 POP POP PUSH1 0x20 PUSH2 0x3045 DUP8 DUP3 DUP9 ADD PUSH2 0x2B7A JUMP JUMPDEST SWAP4 POP POP PUSH1 0x40 PUSH2 0x3056 DUP8 DUP3 DUP9 ADD PUSH2 0x2ACD JUMP JUMPDEST SWAP3 POP POP PUSH1 0x60 DUP6 ADD CALLDATALOAD PUSH8 0xFFFFFFFFFFFFFFFF DUP2 GT ISZERO PUSH2 0x3077 JUMPI PUSH2 0x3076 PUSH2 0x294D JUMP JUMPDEST JUMPDEST PUSH2 0x3083 DUP8 DUP3 DUP9 ADD PUSH2 0x2FE2 JUMP JUMPDEST SWAP2 POP POP SWAP3 SWAP6 SWAP2 SWAP5 POP SWAP3 POP JUMP JUMPDEST PUSH0 DUP1 PUSH1 0x40 DUP4 DUP6 SUB SLT ISZERO PUSH2 0x30A5 JUMPI PUSH2 0x30A4 PUSH2 0x2949 JUMP JUMPDEST JUMPDEST PUSH0 PUSH2 0x30B2 DUP6 DUP3 DUP7 ADD PUSH2 0x2B7A JUMP JUMPDEST SWAP3 POP POP PUSH1 0x20 DUP4 ADD CALLDATALOAD PUSH8 0xFFFFFFFFFFFFFFFF DUP2 GT ISZERO PUSH2 0x30D3 JUMPI PUSH2 0x30D2 PUSH2 0x294D JUMP JUMPDEST JUMPDEST PUSH2 0x30DF DUP6 DUP3 DUP7 ADD PUSH2 0x2E3B JUMP JUMPDEST SWAP2 POP POP SWAP3 POP SWAP3 SWAP1 POP JUMP JUMPDEST PUSH0 DUP1 PUSH1 0x40 DUP4 DUP6 SUB SLT ISZERO PUSH2 0x30FF JUMPI PUSH2 0x30FE PUSH2 0x2949 JUMP JUMPDEST JUMPDEST PUSH0 PUSH2 0x310C DUP6 DUP3 DUP7 ADD PUSH2 0x2B7A JUMP JUMPDEST SWAP3 POP POP PUSH1 0x20 PUSH2 0x311D DUP6 DUP3 DUP7 ADD PUSH2 0x2B7A JUMP JUMPDEST SWAP2 POP POP SWAP3 POP SWAP3 SWAP1 POP JUMP JUMPDEST PUSH32 0x4E487B7100000000000000000000000000000000000000000000000000000000 PUSH0 MSTORE PUSH1 0x22 PUSH1 0x4 MSTORE PUSH1 0x24 PUSH0 REVERT JUMPDEST PUSH0 PUSH1 0x2 DUP3 DIV SWAP1 POP PUSH1 0x1 DUP3 AND DUP1 PUSH2 0x316B JUMPI PUSH1 0x7F DUP3 AND SWAP2 POP JUMPDEST PUSH1 0x20 DUP3 LT DUP2 SUB PUSH2 0x317E JUMPI PUSH2 0x317D PUSH2 0x3127 JUMP JUMPDEST JUMPDEST POP SWAP2 SWAP1 POP JUMP JUMPDEST PUSH32 0x4552433732313A20617070726F76616C20746F2063757272656E74206F776E65 PUSH0 DUP3 ADD MSTORE PUSH32 0x7200000000000000000000000000000000000000000000000000000000000000 PUSH1 0x20 DUP3 ADD MSTORE POP JUMP JUMPDEST PUSH0 PUSH2 0x31DE PUSH1 0x21 DUP4 PUSH2 0x2A0E JUMP JUMPDEST SWAP2 POP PUSH2 0x31E9 DUP3 PUSH2 0x3184 JUMP JUMPDEST PUSH1 0x40 DUP3 ADD SWAP1 POP SWAP2 SWAP1 POP JUMP JUMPDEST PUSH0 PUSH1 0x20 DUP3 ADD SWAP1 POP DUP2 DUP2 SUB PUSH0 DUP4 ADD MSTORE PUSH2 0x320B DUP2 PUSH2 0x31D2 JUMP JUMPDEST SWAP1 POP SWAP2 SWAP1 POP JUMP JUMPDEST PUSH32 0x4552433732313A20617070726F76652063616C6C6572206973206E6F7420746F PUSH0 DUP3 ADD MSTORE PUSH32 0x6B656E206F776E6572206F7220617070726F76656420666F7220616C6C000000 PUSH1 0x20 DUP3 ADD MSTORE POP JUMP JUMPDEST PUSH0 PUSH2 0x326C PUSH1 0x3D DUP4 PUSH2 0x2A0E JUMP JUMPDEST SWAP2 POP PUSH2 0x3277 DUP3 PUSH2 0x3212 JUMP JUMPDEST PUSH1 0x40 DUP3 ADD SWAP1 POP SWAP2 SWAP1 POP JUMP JUMPDEST PUSH0 PUSH1 0x20 DUP3 ADD SWAP1 POP DUP2 DUP2 SUB PUSH0 DUP4 ADD MSTORE PUSH2 0x3299 DUP2 PUSH2 0x3260 JUMP JUMPDEST SWAP1 POP SWAP2 SWAP1 POP JUMP JUMPDEST PUSH32 0x4552433732313A2063616C6C6572206973206E6F7420746F6B656E206F776E65 PUSH0 DUP3 ADD MSTORE PUSH32 0x72206F7220617070726F76656400000000000000000000000000000000000000 PUSH1 0x20 DUP3 ADD MSTORE POP JUMP JUMPDEST PUSH0 PUSH2 0x32FA PUSH1 0x2D DUP4 PUSH2 0x2A0E JUMP JUMPDEST SWAP2 POP PUSH2 0x3305 DUP3 PUSH2 0x32A0 JUMP JUMPDEST PUSH1 0x40 DUP3 ADD SWAP1 POP SWAP2 SWAP1 POP JUMP JUMPDEST PUSH0 PUSH1 0x20 DUP3 ADD SWAP1 POP DUP2 DUP2 SUB PUSH0 DUP4 ADD MSTORE PUSH2 0x3327 DUP2 PUSH2 0x32EE JUMP JUMPDEST SWAP1 POP SWAP2 SWAP1 POP JUMP JUMPDEST PUSH0 DUP2 MLOAD SWAP1 POP SWAP2 SWAP1 POP JUMP JUMPDEST PUSH0 DUP2 SWAP1 POP SWAP3 SWAP2 POP POP JUMP JUMPDEST PUSH0 PUSH2 0x334C DUP3 PUSH2 0x332E JUMP JUMPDEST PUSH2 0x3356 DUP2 DUP6 PUSH2 0x3338 JUMP JUMPDEST SWAP4 POP PUSH2 0x3366 DUP2 DUP6 PUSH1 0x20 DUP7 ADD PUSH2 0x2A1E JUMP JUMPDEST DUP1 DUP5 ADD SWAP2 POP POP SWAP3 SWAP2 POP POP JUMP JUMPDEST PUSH0 PUSH2 0x337D DUP3 DUP6 PUSH2 0x3342 JUMP JUMPDEST SWAP2 POP PUSH2 0x3389 DUP3 DUP5 PUSH2 0x3342 JUMP JUMPDEST SWAP2 POP DUP2 SWAP1 POP SWAP4 SWAP3 POP POP POP JUMP JUMPDEST PUSH32 0x455243373231456E756D657261626C653A206F776E657220696E646578206F75 PUSH0 DUP3 ADD MSTORE PUSH32 0x74206F6620626F756E6473000000000000000000000000000000000000000000 PUSH1 0x20 DUP3 ADD MSTORE POP JUMP JUMPDEST PUSH0 PUSH2 0x33EF PUSH1 0x2B DUP4 PUSH2 0x2A0E JUMP JUMPDEST SWAP2 POP PUSH2 0x33FA DUP3 PUSH2 0x3395 JUMP JUMPDEST PUSH1 0x40 DUP3 ADD SWAP1 POP SWAP2 SWAP1 POP JUMP JUMPDEST PUSH0 PUSH1 0x20 DUP3 ADD SWAP1 POP DUP2 DUP2 SUB PUSH0 DUP4 ADD MSTORE PUSH2 0x341C DUP2 PUSH2 0x33E3 JUMP JUMPDEST SWAP1 POP SWAP2 SWAP1 POP JUMP JUMPDEST PUSH32 0x455243373231456E756D657261626C653A20676C6F62616C20696E646578206F PUSH0 DUP3 ADD MSTORE PUSH32 0x7574206F6620626F756E64730000000000000000000000000000000000000000 PUSH1 0x20 DUP3 ADD MSTORE POP JUMP JUMPDEST PUSH0 PUSH2 0x347D PUSH1 0x2C DUP4 PUSH2 0x2A0E JUMP JUMPDEST SWAP2 POP PUSH2 0x3488 DUP3 PUSH2 0x3423 JUMP JUMPDEST PUSH1 0x40 DUP3 ADD SWAP1 POP SWAP2 SWAP1 POP JUMP JUMPDEST PUSH0 PUSH1 0x20 DUP3 ADD SWAP1 POP DUP2 DUP2 SUB PUSH0 DUP4 ADD MSTORE PUSH2 0x34AA DUP2 PUSH2 0x3471 JUMP JUMPDEST SWAP1 POP SWAP2 SWAP1 POP JUMP JUMPDEST PUSH32 0x4E487B7100000000000000000000000000000000000000000000000000000000 PUSH0 MSTORE PUSH1 0x32 PUSH1 0x4 MSTORE PUSH1 0x24 PUSH0 REVERT JUMPDEST PUSH32 0x4552433732313A20696E76616C696420746F6B656E2049440000000000000000 PUSH0 DUP3 ADD MSTORE POP JUMP JUMPDEST PUSH0 PUSH2 0x3512 PUSH1 0x18 DUP4 PUSH2 0x2A0E JUMP JUMPDEST SWAP2 POP PUSH2 0x351D DUP3 PUSH2 0x34DE JUMP JUMPDEST PUSH1 0x20 DUP3 ADD SWAP1 POP SWAP2 SWAP1 POP JUMP JUMPDEST PUSH0 PUSH1 0x20 DUP3 ADD SWAP1 POP DUP2 DUP2 SUB PUSH0 DUP4 ADD MSTORE PUSH2 0x353F DUP2 PUSH2 0x3506 JUMP JUMPDEST SWAP1 POP SWAP2 SWAP1 POP JUMP JUMPDEST PUSH32 0x4552433732313A2061646472657373207A65726F206973206E6F742061207661 PUSH0 DUP3 ADD MSTORE PUSH32 0x6C6964206F776E65720000000000000000000000000000000000000000000000 PUSH1 0x20 DUP3 ADD MSTORE POP JUMP JUMPDEST PUSH0 PUSH2 0x35A0 PUSH1 0x29 DUP4 PUSH2 0x2A0E JUMP JUMPDEST SWAP2 POP PUSH2 0x35AB DUP3 PUSH2 0x3546 JUMP JUMPDEST PUSH1 0x40 DUP3 ADD SWAP1 POP SWAP2 SWAP1 POP JUMP JUMPDEST PUSH0 PUSH1 0x20 DUP3 ADD SWAP1 POP DUP2 DUP2 SUB PUSH0 DUP4 ADD MSTORE PUSH2 0x35CD DUP2 PUSH2 0x3594 JUMP JUMPDEST SWAP1 POP SWAP2 SWAP1 POP JUMP JUMPDEST PUSH0 DUP2 SWAP1 POP SWAP3 SWAP2 POP POP JUMP JUMPDEST PUSH0 PUSH2 0x35E8 DUP3 PUSH2 0x2A04 JUMP JUMPDEST PUSH2 0x35F2 DUP2 DUP6 PUSH2 0x35D4 JUMP JUMPDEST SWAP4 POP PUSH2 0x3602 DUP2 DUP6 PUSH1 0x20 DUP7 ADD PUSH2 0x2A1E JUMP JUMPDEST DUP1 DUP5 ADD SWAP2 POP POP SWAP3 SWAP2 POP POP JUMP JUMPDEST PUSH0 PUSH2 0x3619 DUP3 DUP5 PUSH2 0x35DE JUMP JUMPDEST SWAP2 POP DUP2 SWAP1 POP SWAP3 SWAP2 POP POP JUMP JUMPDEST PUSH32 0x4F776E61626C653A206E6577206F776E657220697320746865207A65726F2061 PUSH0 DUP3 ADD MSTORE PUSH32 0x6464726573730000000000000000000000000000000000000000000000000000 PUSH1 0x20 DUP3 ADD MSTORE POP JUMP JUMPDEST PUSH0 PUSH2 0x367E PUSH1 0x26 DUP4 PUSH2 0x2A0E JUMP JUMPDEST SWAP2 POP PUSH2 0x3689 DUP3 PUSH2 0x3624 JUMP JUMPDEST PUSH1 0x40 DUP3 ADD SWAP1 POP SWAP2 SWAP1 POP JUMP JUMPDEST PUSH0 PUSH1 0x20 DUP3 ADD SWAP1 POP DUP2 DUP2 SUB PUSH0 DUP4 ADD MSTORE PUSH2 0x36AB DUP2 PUSH2 0x3672 JUMP JUMPDEST SWAP1 POP SWAP2 SWAP1 POP JUMP JUMPDEST PUSH32 0x4552433732313A207472616E736665722066726F6D20696E636F727265637420 PUSH0 DUP3 ADD MSTORE PUSH32 0x6F776E6572000000000000000000000000000000000000000000000000000000 PUSH1 0x20 DUP3 ADD MSTORE POP JUMP JUMPDEST PUSH0 PUSH2 0x370C PUSH1 0x25 DUP4 PUSH2 0x2A0E JUMP JUMPDEST SWAP2 POP PUSH2 0x3717 DUP3 PUSH2 0x36B2 JUMP JUMPDEST PUSH1 0x40 DUP3 ADD SWAP1 POP SWAP2 SWAP1 POP JUMP JUMPDEST PUSH0 PUSH1 0x20 DUP3 ADD SWAP1 POP DUP2 DUP2 SUB PUSH0 DUP4 ADD MSTORE PUSH2 0x3739 DUP2 PUSH2 0x3700 JUMP JUMPDEST SWAP1 POP SWAP2 SWAP1 POP JUMP JUMPDEST PUSH32 0x4552433732313A207472616E7366657220746F20746865207A65726F20616464 PUSH0 DUP3 ADD MSTORE PUSH32 0x7265737300000000000000000000000000000000000000000000000000000000 PUSH1 0x20 DUP3 ADD MSTORE POP JUMP JUMPDEST PUSH0 PUSH2 0x379A PUSH1 0x24 DUP4 PUSH2 0x2A0E JUMP JUMPDEST SWAP2 POP PUSH2 0x37A5 DUP3 PUSH2 0x3740 JUMP JUMPDEST PUSH1 0x40 DUP3 ADD SWAP1 POP SWAP2 SWAP1 POP JUMP JUMPDEST PUSH0 PUSH1 0x20 DUP3 ADD SWAP1 POP DUP2 DUP2 SUB PUSH0 DUP4 ADD MSTORE PUSH2 0x37C7 DUP2 PUSH2 0x378E JUMP JUMPDEST SWAP1 POP SWAP2 SWAP1 POP JUMP JUMPDEST PUSH32 0x4F776E61626C653A2063616C6C6572206973206E6F7420746865206F776E6572 PUSH0 DUP3 ADD MSTORE POP JUMP JUMPDEST PUSH0 PUSH2 0x3802 PUSH1 0x20 DUP4 PUSH2 0x2A0E JUMP JUMPDEST SWAP2 POP PUSH2 0x380D DUP3 PUSH2 0x37CE JUMP JUMPDEST PUSH1 0x20 DUP3 ADD SWAP1 POP SWAP2 SWAP1 POP JUMP JUMPDEST PUSH0 PUSH1 0x20 DUP3 ADD SWAP1 POP DUP2 DUP2 SUB PUSH0 DUP4 ADD MSTORE PUSH2 0x382F DUP2 PUSH2 0x37F6 JUMP JUMPDEST SWAP1 POP SWAP2 SWAP1 POP JUMP JUMPDEST PUSH32 0x4552433732313A20617070726F766520746F2063616C6C657200000000000000 PUSH0 DUP3 ADD MSTORE POP JUMP JUMPDEST PUSH0 PUSH2 0x386A PUSH1 0x19 DUP4 PUSH2 0x2A0E JUMP JUMPDEST SWAP2 POP PUSH2 0x3875 DUP3 PUSH2 0x3836 JUMP JUMPDEST PUSH1 0x20 DUP3 ADD SWAP1 POP SWAP2 SWAP1 POP JUMP JUMPDEST PUSH0 PUSH1 0x20 DUP3 ADD SWAP1 POP DUP2 DUP2 SUB PUSH0 DUP4 ADD MSTORE PUSH2 0x3897 DUP2 PUSH2 0x385E JUMP JUMPDEST SWAP1 POP SWAP2 SWAP1 POP JUMP JUMPDEST PUSH32 0x4552433732313A207472616E7366657220746F206E6F6E204552433732315265 PUSH0 DUP3 ADD MSTORE PUSH32 0x63656976657220696D706C656D656E7465720000000000000000000000000000 PUSH1 0x20 DUP3 ADD MSTORE POP JUMP JUMPDEST PUSH0 PUSH2 0x38F8 PUSH1 0x32 DUP4 PUSH2 0x2A0E JUMP JUMPDEST SWAP2 POP PUSH2 0x3903 DUP3 PUSH2 0x389E JUMP JUMPDEST PUSH1 0x40 DUP3 ADD SWAP1 POP SWAP2 SWAP1 POP JUMP JUMPDEST PUSH0 PUSH1 0x20 DUP3 ADD SWAP1 POP DUP2 DUP2 SUB PUSH0 DUP4 ADD MSTORE PUSH2 0x3925 DUP2 PUSH2 0x38EC JUMP JUMPDEST SWAP1 POP SWAP2 SWAP1 POP JUMP JUMPDEST PUSH0 PUSH2 0x3937 DUP3 DUP6 PUSH2 0x35DE JUMP JUMPDEST SWAP2 POP PUSH2 0x3943 DUP3 DUP5 PUSH2 0x35DE JUMP JUMPDEST SWAP2 POP DUP2 SWAP1 POP SWAP4 SWAP3 POP POP POP JUMP JUMPDEST PUSH32 0x45524337323155524953746F726167653A2055524920736574206F66206E6F6E PUSH0 DUP3 ADD MSTORE PUSH32 0x6578697374656E7420746F6B656E000000000000000000000000000000000000 PUSH1 0x20 DUP3 ADD MSTORE POP JUMP JUMPDEST PUSH0 PUSH2 0x39A9 PUSH1 0x2E DUP4 PUSH2 0x2A0E JUMP JUMPDEST SWAP2 POP PUSH2 0x39B4 DUP3 PUSH2 0x394F JUMP JUMPDEST PUSH1 0x40 DUP3 ADD SWAP1 POP SWAP2 SWAP1 POP JUMP JUMPDEST PUSH0 PUSH1 0x20 DUP3 ADD SWAP1 POP DUP2 DUP2 SUB PUSH0 DUP4 ADD MSTORE PUSH2 0x39D6 DUP2 PUSH2 0x399D JUMP JUMPDEST SWAP1 POP SWAP2 SWAP1 POP JUMP JUMPDEST PUSH0 DUP2 SWAP1 POP DUP2 PUSH0 MSTORE PUSH1 0x20 PUSH0 KECCAK256 SWAP1 POP SWAP2 SWAP1 POP JUMP JUMPDEST PUSH0 PUSH1 0x20 PUSH1 0x1F DUP4 ADD DIV SWAP1 POP SWAP2 SWAP1 POP JUMP JUMPDEST PUSH0 DUP3 DUP3 SHL SWAP1 POP SWAP3 SWAP2 POP POP JUMP JUMPDEST PUSH0 PUSH1 0x8 DUP4 MUL PUSH2 0x3A39 PUSH32 0xFFFFFFFFFFFFFFFFFFFFFFFFFFFFFFFFFFFFFFFFFFFFFFFFFFFFFFFFFFFFFFFF DUP3 PUSH2 0x39FE JUMP JUMPDEST PUSH2 0x3A43 DUP7 DUP4 PUSH2 0x39FE JUMP JUMPDEST SWAP6 POP DUP1 NOT DUP5 AND SWAP4 POP DUP1 DUP7 AND DUP5 OR SWAP3 POP POP POP SWAP4 SWAP3 POP POP POP JUMP JUMPDEST PUSH0 DUP2 SWAP1 POP SWAP2 SWAP1 POP JUMP JUMPDEST PUSH0 PUSH2 0x3A7E PUSH2 0x3A79 PUSH2 0x3A74 DUP5 PUSH2 0x2AAE JUMP JUMPDEST PUSH2 0x3A5B JUMP JUMPDEST PUSH2 0x2AAE JUMP JUMPDEST SWAP1 POP SWAP2 SWAP1 POP JUMP JUMPDEST PUSH0 DUP2 SWAP1 POP SWAP2 SWAP1 POP JUMP JUMPDEST PUSH2 0x3A97 DUP4 PUSH2 0x3A64 JUMP JUMPDEST PUSH2 0x3AAB PUSH2 0x3AA3 DUP3 PUSH2 0x3A85 JUMP JUMPDEST DUP5 DUP5 SLOAD PUSH2 0x3A0A JUMP JUMPDEST DUP3 SSTORE POP POP POP POP JUMP JUMPDEST PUSH0 SWAP1 JUMP JUMPDEST PUSH2 0x3ABF PUSH2 0x3AB3 JUMP JUMPDEST PUSH2 0x3ACA DUP2 DUP5 DUP5 PUSH2 0x3A8E JUMP JUMPDEST POP POP POP JUMP JUMPDEST JUMPDEST DUP2 DUP2 LT ISZERO PUSH2 0x3AED JUMPI PUSH2 0x3AE2 PUSH0 DUP3 PUSH2 0x3AB7 JUMP JUMPDEST PUSH1 0x1 DUP2 ADD SWAP1 POP PUSH2 0x3AD0 JUMP JUMPDEST POP POP JUMP JUMPDEST PUSH1 0x1F DUP3 GT ISZERO PUSH2 0x3B32 JUMPI PUSH2 0x3B03 DUP2 PUSH2 0x39DD JUMP JUMPDEST PUSH2 0x3B0C DUP5 PUSH2 0x39EF JUMP JUMPDEST DUP2 ADD PUSH1 0x20 DUP6 LT ISZERO PUSH2 0x3B1B JUMPI DUP2 SWAP1 POP JUMPDEST PUSH2 0x3B2F PUSH2 0x3B27 DUP6 PUSH2 0x39EF JUMP JUMPDEST DUP4 ADD DUP3 PUSH2 0x3ACF JUMP JUMPDEST POP POP JUMPDEST POP POP POP JUMP JUMPDEST PUSH0 DUP3 DUP3 SHR SWAP1 POP SWAP3 SWAP2 POP POP JUMP JUMPDEST PUSH0 PUSH2 0x3B52 PUSH0 NOT DUP5 PUSH1 0x8 MUL PUSH2 0x3B37 JUMP JUMPDEST NOT DUP1 DUP4 AND SWAP2 POP POP SWAP3 SWAP2 POP POP JUMP JUMPDEST PUSH0 PUSH2 0x3B6A DUP4 DUP4 PUSH2 0x3B43 JUMP JUMPDEST SWAP2 POP DUP3 PUSH1 0x2 MUL DUP3 OR SWAP1 POP SWAP3 SWAP2 POP POP JUMP JUMPDEST PUSH2 0x3B83 DUP3 PUSH2 0x2A04 JUMP JUMPDEST PUSH8 0xFFFFFFFFFFFFFFFF DUP2 GT ISZERO PUSH2 0x3B9C JUMPI PUSH2 0x3B9B PUSH2 0x2D44 JUMP JUMPDEST JUMPDEST PUSH2 0x3BA6 DUP3 SLOAD PUSH2 0x3154 JUMP JUMPDEST PUSH2 0x3BB1 DUP3 DUP3 DUP6 PUSH2 0x3AF1 JUMP JUMPDEST PUSH0 PUSH1 0x20 SWAP1 POP PUSH1 0x1F DUP4 GT PUSH1 0x1 DUP2 EQ PUSH2 0x3BE2 JUMPI PUSH0 DUP5 ISZERO PUSH2 0x3BD0 JUMPI DUP3 DUP8 ADD MLOAD SWAP1 POP JUMPDEST PUSH2 0x3BDA DUP6 DUP3 PUSH2 0x3B5F JUMP JUMPDEST DUP7 SSTORE POP PUSH2 0x3C41 JUMP JUMPDEST PUSH1 0x1F NOT DUP5 AND PUSH2 0x3BF0 DUP7 PUSH2 0x39DD JUMP JUMPDEST PUSH0 JUMPDEST DUP3 DUP2 LT ISZERO PUSH2 0x3C17 JUMPI DUP5 DUP10 ADD MLOAD DUP3 SSTORE PUSH1 0x1 DUP3 ADD SWAP2 POP PUSH1 0x20 DUP6 ADD SWAP5 POP PUSH1 0x20 DUP2 ADD SWAP1 POP PUSH2 0x3BF2 JUMP JUMPDEST DUP7 DUP4 LT ISZERO PUSH2 0x3C34 JUMPI DUP5 DUP10 ADD MLOAD PUSH2 0x3C30 PUSH1 0x1F DUP10 AND DUP3 PUSH2 0x3B43 JUMP JUMPDEST DUP4 SSTORE POP JUMPDEST PUSH1 0x1 PUSH1 0x2 DUP9 MUL ADD DUP9 SSTORE POP POP POP JUMPDEST POP POP POP POP POP POP JUMP JUMPDEST PUSH32 0x5061757361626C653A206E6F7420706175736564000000000000000000000000 PUSH0 DUP3 ADD MSTORE POP JUMP JUMPDEST PUSH0 PUSH2 0x3C7D PUSH1 0x14 DUP4 PUSH2 0x2A0E JUMP JUMPDEST SWAP2 POP PUSH2 0x3C88 DUP3 PUSH2 0x3C49 JUMP JUMPDEST PUSH1 0x20 DUP3 ADD SWAP1 POP SWAP2 SWAP1 POP JUMP JUMPDEST PUSH0 PUSH1 0x20 DUP3 ADD SWAP1 POP DUP2 DUP2 SUB PUSH0 DUP4 ADD MSTORE PUSH2 0x3CAA DUP2 PUSH2 0x3C71 JUMP JUMPDEST SWAP1 POP SWAP2 SWAP1 POP JUMP JUMPDEST PUSH32 0x5061757361626C653A2070617573656400000000000000000000000000000000 PUSH0 DUP3 ADD MSTORE POP JUMP JUMPDEST PUSH0 PUSH2 0x3CE5 PUSH1 0x10 DUP4 PUSH2 0x2A0E JUMP JUMPDEST SWAP2 POP PUSH2 0x3CF0 DUP3 PUSH2 0x3CB1 JUMP JUMPDEST PUSH1 0x20 DUP3 ADD SWAP1 POP SWAP2 SWAP1 POP JUMP JUMPDEST PUSH0 PUSH1 0x20 DUP3 ADD SWAP1 POP DUP2 DUP2 SUB PUSH0 DUP4 ADD MSTORE PUSH2 0x3D12 DUP2 PUSH2 0x3CD9 JUMP JUMPDEST SWAP1 POP SWAP2 SWAP1 POP JUMP JUMPDEST PUSH0 DUP3 DUP3 MSTORE PUSH1 0x20 DUP3 ADD SWAP1 POP SWAP3 SWAP2 POP POP JUMP JUMPDEST PUSH0 PUSH2 0x3D33 DUP3 PUSH2 0x332E JUMP JUMPDEST PUSH2 0x3D3D DUP2 DUP6 PUSH2 0x3D19 JUMP JUMPDEST SWAP4 POP PUSH2 0x3D4D DUP2 DUP6 PUSH1 0x20 DUP7 ADD PUSH2 0x2A1E JUMP JUMPDEST PUSH2 0x3D56 DUP2 PUSH2 0x2A46 JUMP JUMPDEST DUP5 ADD SWAP2 POP POP SWAP3 SWAP2 POP POP JUMP JUMPDEST PUSH0 PUSH1 0x80 DUP3 ADD SWAP1 POP PUSH2 0x3D74 PUSH0 DUP4 ADD DUP8 PUSH2 0x2B3C JUMP JUMPDEST PUSH2 0x3D81 PUSH1 0x20 DUP4 ADD DUP7 PUSH2 0x2B3C JUMP JUMPDEST PUSH2 0x3D8E PUSH1 0x40 DUP4 ADD DUP6 PUSH2 0x2BCC JUMP JUMPDEST DUP2 DUP2 SUB PUSH1 0x60 DUP4 ADD MSTORE PUSH2 0x3DA0 DUP2 DUP5 PUSH2 0x3D29 JUMP JUMPDEST SWAP1 POP SWAP6 SWAP5 POP POP POP POP POP JUMP JUMPDEST PUSH0 DUP2 MLOAD SWAP1 POP PUSH2 0x3DB9 DUP2 PUSH2 0x297C JUMP JUMPDEST SWAP3 SWAP2 POP POP JUMP JUMPDEST PUSH0 PUSH1 0x20 DUP3 DUP5 SUB SLT ISZERO PUSH2 0x3DD4 JUMPI PUSH2 0x3DD3 PUSH2 0x2949 JUMP JUMPDEST JUMPDEST PUSH0 PUSH2 0x3DE1 DUP5 DUP3 DUP6 ADD PUSH2 0x3DAB JUMP JUMPDEST SWAP2 POP POP SWAP3 SWAP2 POP POP JUMP JUMPDEST PUSH32 0x455243373231456E756D657261626C653A20636F6E7365637574697665207472 PUSH0 DUP3 ADD MSTORE PUSH32 0x616E7366657273206E6F7420737570706F727465640000000000000000000000 PUSH1 0x20 DUP3 ADD MSTORE POP JUMP JUMPDEST PUSH0 PUSH2 0x3E44 PUSH1 0x35 DUP4 PUSH2 0x2A0E JUMP JUMPDEST SWAP2 POP PUSH2 0x3E4F DUP3 PUSH2 0x3DEA JUMP JUMPDEST PUSH1 0x40 DUP3 ADD SWAP1 POP SWAP2 SWAP1 POP JUMP JUMPDEST PUSH0 PUSH1 0x20 DUP3 ADD SWAP1 POP DUP2 DUP2 SUB PUSH0 DUP4 ADD MSTORE PUSH2 0x3E71 DUP2 PUSH2 0x3E38 JUMP JUMPDEST SWAP1 POP SWAP2 SWAP1 POP JUMP JUMPDEST PUSH32 0x4E487B7100000000000000000000000000000000000000000000000000000000 PUSH0 MSTORE PUSH1 0x12 PUSH1 0x4 MSTORE PUSH1 0x24 PUSH0 REVERT JUMPDEST PUSH32 0x4552433732313A206D696E7420746F20746865207A65726F2061646472657373 PUSH0 DUP3 ADD MSTORE POP JUMP JUMPDEST PUSH0 PUSH2 0x3ED9 PUSH1 0x20 DUP4 PUSH2 0x2A0E JUMP JUMPDEST SWAP2 POP PUSH2 0x3EE4 DUP3 PUSH2 0x3EA5 JUMP JUMPDEST PUSH1 0x20 DUP3 ADD SWAP1 POP SWAP2 SWAP1 POP JUMP JUMPDEST PUSH0 PUSH1 0x20 DUP3 ADD SWAP1 POP DUP2 DUP2 SUB PUSH0 DUP4 ADD MSTORE PUSH2 0x3F06 DUP2 PUSH2 0x3ECD JUMP JUMPDEST SWAP1 POP SWAP2 SWAP1 POP JUMP JUMPDEST PUSH32 0x4552433732313A20746F6B656E20616C7265616479206D696E74656400000000 PUSH0 DUP3 ADD MSTORE POP JUMP JUMPDEST PUSH0 PUSH2 0x3F41 PUSH1 0x1C DUP4 PUSH2 0x2A0E JUMP JUMPDEST SWAP2 POP PUSH2 0x3F4C DUP3 PUSH2 0x3F0D JUMP JUMPDEST PUSH1 0x20 DUP3 ADD SWAP1 POP SWAP2 SWAP1 POP JUMP JUMPDEST PUSH0 PUSH1 0x20 DUP3 ADD SWAP1 POP DUP2 DUP2 SUB PUSH0 DUP4 ADD MSTORE PUSH2 0x3F6E DUP2 PUSH2 0x3F35 JUMP JUMPDEST SWAP1 POP SWAP2 SWAP1 POP JUMP JUMPDEST PUSH32 0x4E487B7100000000000000000000000000000000000000000000000000000000 PUSH0 MSTORE PUSH1 0x11 PUSH1 0x4 MSTORE PUSH1 0x24 PUSH0 REVERT JUMPDEST PUSH0 PUSH2 0x3FAC DUP3 PUSH2 0x2AAE JUMP JUMPDEST SWAP2 POP PUSH2 0x3FB7 DUP4 PUSH2 0x2AAE JUMP JUMPDEST SWAP3 POP DUP3 DUP3 SUB SWAP1 POP DUP2 DUP2 GT ISZERO PUSH2 0x3FCF JUMPI PUSH2 0x3FCE PUSH2 0x3F75 JUMP JUMPDEST JUMPDEST SWAP3 SWAP2 POP POP JUMP JUMPDEST PUSH32 0x4E487B7100000000000000000000000000000000000000000000000000000000 PUSH0 MSTORE PUSH1 0x31 PUSH1 0x4 MSTORE PUSH1 0x24 PUSH0 REVERT INVALID LOG2 PUSH5 0x6970667358 0x22 SLT KECCAK256 0xFB DUP6 0x21 PUSH26 0x1DEDD760442DE82953710B2F316E757E5E0FCF0FF3FD09EDFA23 0xAD 0xE9 PUSH5 0x736F6C6343 STOP ADDMOD EQ STOP CALLER "
		},
		"gasEstimates": {
			"creation": {
				"codeDepositCost": "3288000",
				"executionCost": "infinite",
				"totalCost": "infinite"
			},
			"external": {
				"approve(address,uint256)": "infinite",
				"balanceOf(address)": "2954",
				"burn(uint256)": "infinite",
				"compareStrings(string,string)": "infinite",
				"concatenate(string,string)": "infinite",
				"getAddress()": "469",
				"getApproved(uint256)": "5305",
				"getHash()": "infinite",
				"getproject()": "infinite",
				"isApprovedForAll(address,address)": "infinite",
				"name()": "infinite",
				"owner()": "2655",
				"ownerOf(uint256)": "3051",
				"pause()": "infinite",
				"paused()": "2519",
				"renounceOwnership()": "30588",
				"safeMint(address,string)": "infinite",
				"safeTransferFrom(address,address,uint256)": "infinite",
				"safeTransferFrom(address,address,uint256,bytes)": "infinite",
				"setApprovalForAll(address,bool)": "infinite",
				"supportsInterface(bytes4)": "940",
				"symbol()": "infinite",
				"tokenByIndex(uint256)": "infinite",
				"tokenOfOwnerByIndex(address,uint256)": "infinite",
				"tokenURI(uint256)": "infinite",
				"totalSupply()": "2508",
				"transferFrom(address,address,uint256)": "infinite",
				"transferOwnership(address)": "30994",
				"unpause()": "infinite"
			},
			"internal": {
				"_baseURI()": "infinite",
				"_beforeTokenTransfer(address,address,uint256,uint256)": "infinite",
				"_burn(uint256)": "infinite"
			}
		},
		"methodIdentifiers": {
			"approve(address,uint256)": "095ea7b3",
			"balanceOf(address)": "70a08231",
			"burn(uint256)": "42966c68",
			"compareStrings(string,string)": "bed34bba",
			"concatenate(string,string)": "266001d3",
			"getAddress()": "38cc4831",
			"getApproved(uint256)": "081812fc",
			"getHash()": "d13319c4",
			"getproject()": "2384630a",
			"isApprovedForAll(address,address)": "e985e9c5",
			"name()": "06fdde03",
			"owner()": "8da5cb5b",
			"ownerOf(uint256)": "6352211e",
			"pause()": "8456cb59",
			"paused()": "5c975abb",
			"renounceOwnership()": "715018a6",
			"safeMint(address,string)": "d204c45e",
			"safeTransferFrom(address,address,uint256)": "42842e0e",
			"safeTransferFrom(address,address,uint256,bytes)": "b88d4fde",
			"setApprovalForAll(address,bool)": "a22cb465",
			"supportsInterface(bytes4)": "01ffc9a7",
			"symbol()": "95d89b41",
			"tokenByIndex(uint256)": "4f6ccce7",
			"tokenOfOwnerByIndex(address,uint256)": "2f745c59",
			"tokenURI(uint256)": "c87b56dd",
			"totalSupply()": "18160ddd",
			"transferFrom(address,address,uint256)": "23b872dd",
			"transferOwnership(address)": "f2fde38b",
			"unpause()": "3f4ba83a"
		}
	},
	"abi": [
		{
			"inputs": [
				{
					"internalType": "string",
					"name": "name",
					"type": "string"
				},
				{
					"internalType": "string",
					"name": "symbol",
					"type": "string"
				},
				{
					"internalType": "string",
					"name": "_ipfsHash",
					"type": "string"
				}
			],
			"stateMutability": "nonpayable",
			"type": "constructor"
		},
		{
			"anonymous": false,
			"inputs": [
				{
					"indexed": true,
					"internalType": "address",
					"name": "owner",
					"type": "address"
				},
				{
					"indexed": true,
					"internalType": "address",
					"name": "approved",
					"type": "address"
				},
				{
					"indexed": true,
					"internalType": "uint256",
					"name": "tokenId",
					"type": "uint256"
				}
			],
			"name": "Approval",
			"type": "event"
		},
		{
			"anonymous": false,
			"inputs": [
				{
					"indexed": true,
					"internalType": "address",
					"name": "owner",
					"type": "address"
				},
				{
					"indexed": true,
					"internalType": "address",
					"name": "operator",
					"type": "address"
				},
				{
					"indexed": false,
					"internalType": "bool",
					"name": "approved",
					"type": "bool"
				}
			],
			"name": "ApprovalForAll",
			"type": "event"
		},
		{
			"anonymous": false,
			"inputs": [
				{
					"indexed": true,
					"internalType": "address",
					"name": "previousOwner",
					"type": "address"
				},
				{
					"indexed": true,
					"internalType": "address",
					"name": "newOwner",
					"type": "address"
				}
			],
			"name": "OwnershipTransferred",
			"type": "event"
		},
		{
			"anonymous": false,
			"inputs": [
				{
					"indexed": false,
					"internalType": "address",
					"name": "account",
					"type": "address"
				}
			],
			"name": "Paused",
			"type": "event"
		},
		{
			"anonymous": false,
			"inputs": [
				{
					"indexed": true,
					"internalType": "address",
					"name": "from",
					"type": "address"
				},
				{
					"indexed": true,
					"internalType": "address",
					"name": "to",
					"type": "address"
				},
				{
					"indexed": true,
					"internalType": "uint256",
					"name": "tokenId",
					"type": "uint256"
				}
			],
			"name": "Transfer",
			"type": "event"
		},
		{
			"anonymous": false,
			"inputs": [
				{
					"indexed": false,
					"internalType": "address",
					"name": "account",
					"type": "address"
				}
			],
			"name": "Unpaused",
			"type": "event"
		},
		{
			"inputs": [
				{
					"internalType": "address",
					"name": "to",
					"type": "address"
				},
				{
					"internalType": "uint256",
					"name": "tokenId",
					"type": "uint256"
				}
			],
			"name": "approve",
			"outputs": [],
			"stateMutability": "nonpayable",
			"type": "function"
		},
		{
			"inputs": [
				{
					"internalType": "address",
					"name": "owner",
					"type": "address"
				}
			],
			"name": "balanceOf",
			"outputs": [
				{
					"internalType": "uint256",
					"name": "",
					"type": "uint256"
				}
			],
			"stateMutability": "view",
			"type": "function"
		},
		{
			"inputs": [
				{
					"internalType": "uint256",
					"name": "tokenId",
					"type": "uint256"
				}
			],
			"name": "burn",
			"outputs": [],
			"stateMutability": "nonpayable",
			"type": "function"
		},
		{
			"inputs": [
				{
					"internalType": "string",
					"name": "a",
					"type": "string"
				},
				{
					"internalType": "string",
					"name": "b",
					"type": "string"
				}
			],
			"name": "compareStrings",
			"outputs": [
				{
					"internalType": "bool",
					"name": "",
					"type": "bool"
				}
			],
			"stateMutability": "pure",
			"type": "function"
		},
		{
			"inputs": [
				{
					"internalType": "string",
					"name": "a",
					"type": "string"
				},
				{
					"internalType": "string",
					"name": "b",
					"type": "string"
				}
			],
			"name": "concatenate",
			"outputs": [
				{
					"internalType": "string",
					"name": "",
					"type": "string"
				}
			],
			"stateMutability": "pure",
			"type": "function"
		},
		{
			"inputs": [],
			"name": "getAddress",
			"outputs": [
				{
					"internalType": "address",
					"name": "",
					"type": "address"
				}
			],
			"stateMutability": "view",
			"type": "function"
		},
		{
			"inputs": [
				{
					"internalType": "uint256",
					"name": "tokenId",
					"type": "uint256"
				}
			],
			"name": "getApproved",
			"outputs": [
				{
					"internalType": "address",
					"name": "",
					"type": "address"
				}
			],
			"stateMutability": "view",
			"type": "function"
		},
		{
			"inputs": [],
			"name": "getHash",
			"outputs": [
				{
					"internalType": "string",
					"name": "",
					"type": "string"
				}
			],
			"stateMutability": "view",
			"type": "function"
		},
		{
			"inputs": [],
			"name": "getproject",
			"outputs": [
				{
					"components": [
						{
							"internalType": "string",
							"name": "name",
							"type": "string"
						},
						{
							"internalType": "string",
							"name": "symbol",
							"type": "string"
						},
						{
							"internalType": "uint256",
							"name": "amount",
							"type": "uint256"
						},
						{
							"internalType": "string",
							"name": "img",
							"type": "string"
						},
						{
							"internalType": "uint256",
							"name": "balance",
							"type": "uint256"
						}
					],
					"internalType": "struct PropertyToken.Proyecto",
					"name": "",
					"type": "tuple"
				}
			],
			"stateMutability": "view",
			"type": "function"
		},
		{
			"inputs": [
				{
					"internalType": "address",
					"name": "owner",
					"type": "address"
				},
				{
					"internalType": "address",
					"name": "operator",
					"type": "address"
				}
			],
			"name": "isApprovedForAll",
			"outputs": [
				{
					"internalType": "bool",
					"name": "",
					"type": "bool"
				}
			],
			"stateMutability": "view",
			"type": "function"
		},
		{
			"inputs": [],
			"name": "name",
			"outputs": [
				{
					"internalType": "string",
					"name": "",
					"type": "string"
				}
			],
			"stateMutability": "view",
			"type": "function"
		},
		{
			"inputs": [],
			"name": "owner",
			"outputs": [
				{
					"internalType": "address",
					"name": "",
					"type": "address"
				}
			],
			"stateMutability": "view",
			"type": "function"
		},
		{
			"inputs": [
				{
					"internalType": "uint256",
					"name": "tokenId",
					"type": "uint256"
				}
			],
			"name": "ownerOf",
			"outputs": [
				{
					"internalType": "address",
					"name": "",
					"type": "address"
				}
			],
			"stateMutability": "view",
			"type": "function"
		},
		{
			"inputs": [],
			"name": "pause",
			"outputs": [],
			"stateMutability": "nonpayable",
			"type": "function"
		},
		{
			"inputs": [],
			"name": "paused",
			"outputs": [
				{
					"internalType": "bool",
					"name": "",
					"type": "bool"
				}
			],
			"stateMutability": "view",
			"type": "function"
		},
		{
			"inputs": [],
			"name": "renounceOwnership",
			"outputs": [],
			"stateMutability": "nonpayable",
			"type": "function"
		},
		{
			"inputs": [
				{
					"internalType": "address",
					"name": "to",
					"type": "address"
				},
				{
					"internalType": "string",
					"name": "uri",
					"type": "string"
				}
			],
			"name": "safeMint",
			"outputs": [],
			"stateMutability": "nonpayable",
			"type": "function"
		},
		{
			"inputs": [
				{
					"internalType": "address",
					"name": "from",
					"type": "address"
				},
				{
					"internalType": "address",
					"name": "to",
					"type": "address"
				},
				{
					"internalType": "uint256",
					"name": "tokenId",
					"type": "uint256"
				}
			],
			"name": "safeTransferFrom",
			"outputs": [],
			"stateMutability": "nonpayable",
			"type": "function"
		},
		{
			"inputs": [
				{
					"internalType": "address",
					"name": "from",
					"type": "address"
				},
				{
					"internalType": "address",
					"name": "to",
					"type": "address"
				},
				{
					"internalType": "uint256",
					"name": "tokenId",
					"type": "uint256"
				},
				{
					"internalType": "bytes",
					"name": "data",
					"type": "bytes"
				}
			],
			"name": "safeTransferFrom",
			"outputs": [],
			"stateMutability": "nonpayable",
			"type": "function"
		},
		{
			"inputs": [
				{
					"internalType": "address",
					"name": "operator",
					"type": "address"
				},
				{
					"internalType": "bool",
					"name": "approved",
					"type": "bool"
				}
			],
			"name": "setApprovalForAll",
			"outputs": [],
			"stateMutability": "nonpayable",
			"type": "function"
		},
		{
			"inputs": [
				{
					"internalType": "bytes4",
					"name": "interfaceId",
					"type": "bytes4"
				}
			],
			"name": "supportsInterface",
			"outputs": [
				{
					"internalType": "bool",
					"name": "",
					"type": "bool"
				}
			],
			"stateMutability": "view",
			"type": "function"
		},
		{
			"inputs": [],
			"name": "symbol",
			"outputs": [
				{
					"internalType": "string",
					"name": "",
					"type": "string"
				}
			],
			"stateMutability": "view",
			"type": "function"
		},
		{
			"inputs": [
				{
					"internalType": "uint256",
					"name": "index",
					"type": "uint256"
				}
			],
			"name": "tokenByIndex",
			"outputs": [
				{
					"internalType": "uint256",
					"name": "",
					"type": "uint256"
				}
			],
			"stateMutability": "view",
			"type": "function"
		},
		{
			"inputs": [
				{
					"internalType": "address",
					"name": "owner",
					"type": "address"
				},
				{
					"internalType": "uint256",
					"name": "index",
					"type": "uint256"
				}
			],
			"name": "tokenOfOwnerByIndex",
			"outputs": [
				{
					"internalType": "uint256",
					"name": "",
					"type": "uint256"
				}
			],
			"stateMutability": "view",
			"type": "function"
		},
		{
			"inputs": [
				{
					"internalType": "uint256",
					"name": "tokenId",
					"type": "uint256"
				}
			],
			"name": "tokenURI",
			"outputs": [
				{
					"internalType": "string",
					"name": "",
					"type": "string"
				}
			],
			"stateMutability": "view",
			"type": "function"
		},
		{
			"inputs": [],
			"name": "totalSupply",
			"outputs": [
				{
					"internalType": "uint256",
					"name": "",
					"type": "uint256"
				}
			],
			"stateMutability": "view",
			"type": "function"
		},
		{
			"inputs": [
				{
					"internalType": "address",
					"name": "from",
					"type": "address"
				},
				{
					"internalType": "address",
					"name": "to",
					"type": "address"
				},
				{
					"internalType": "uint256",
					"name": "tokenId",
					"type": "uint256"
				}
			],
			"name": "transferFrom",
			"outputs": [],
			"stateMutability": "nonpayable",
			"type": "function"
		},
		{
			"inputs": [
				{
					"internalType": "address",
					"name": "newOwner",
					"type": "address"
				}
			],
			"name": "transferOwnership",
			"outputs": [],
			"stateMutability": "nonpayable",
			"type": "function"
		},
		{
			"inputs": [],
			"name": "unpause",
			"outputs": [],
			"stateMutability": "nonpayable",
			"type": "function"
		}
	]
}